:100000000C94D0040C94F8040C94F8040C94F804A8
:100010000C94F8040C94F8040C94F8040C94F80470
:100020000C94F8040C94F8040C940F060C948106BC
:100030000C94F8040C94F8040C94F8040C94F80450
:100040000C94F8040C94F8040C94F8040C94F80440
:100050000C94F8040C94F8040C94F8040C94EE0E30
:100060000C94F8040C94F8040C94F8040C94F80420
:100070000C94F8040C94F8040C94F8040C94F80410
:100080000C94F8040C94F8040C94F8040C94F80400
:100090000C94F8040C94F8040C94F8040C94F804F0
:1000A0000C94F8040C94F8040C94F804F0F89C8E6A
:1000B0008783878E9CF8F00000FEFF030303030391
:1000C000070EFCF80000FEFF0303030303070EFC0A
:1000D000F80000FFFF00000000000000FFFF00002C
:1000E000FEFF8383838383C7EE7C380000F8FC0E19
:1000F00007030303070EFCF800003F7FE0C0808089
:10010000C0E07F3FFFFF01010101010101FFFF008E
:1001100000FFFF0C0C0C0C1C3E77E3C100007FFFBE
:10012000C0C0C0C0C0E0703F1F00001F3F70E0C0F3
:10013000C0C0E0703F1F00007FFFC1C1C1C1C1E36B
:10014000773E1C00001F3F70E0C0C0C0E0703F1F42
:10015000000000000001FFFF01000000D5F08D1439
:10016000A1C881CFD9F1AF20000000C0E030180C49
:100170000C06060606060606060C0C1830E0C00043
:100180000000FFFF00000000070707000000000755
:10019000070700000000FFFF00000003070C1830F5
:1001A0003161616161616161613130180C07030087
:1001B000000000C0E030180C0C0606060606060615
:1001C000060C0C1830E0C0000000FFFF00000040EB
:1001D0008707070000000007078740000000FFFFB7
:1001E00000000003070C18303061616161616161DA
:1001F000613030180C0703000055555555555555BD
:1002000055FFFFFFFFFFFFFFFF55AA55AA55AA554F
:10021000AA00FF00FF00FF00FF55FFAAFF55FFAA3D
:10022000FF5500AA005500AA00FFFFFF0707E7E7F8
:10023000676767676767E7E70707FFFF67671F1F6E
:1002400007079F9F878707076767E7E7070787878E
:100250007F7FE7E78787FFFF0707E7E7676767674E
:100260006767E7E70707FFFFFFFFFFFF00007F7FEC
:100270006060606060607F7F0000FFFF6060F8F892
:10028000181887876161F8F80000E7E760608181EE
:100290001E1E87871919FFFF00007F7F6060606066
:1002A00060607F7F0000FFFFFFFFFFFF868606067E
:1002B000666606069E9EFEFE66661F1F06067F7F1A
:1002C0000000676700009F9FE0E0E1E18080E1E1DE
:1002D000E6E68787989867679E9E1E1E8686E6E6F6
:1002E00066667E7E8686FFFFFFFFFFFF19199E9ED2
:1002F000808006061919191966669E9E1818E0E096
:10030000E0E01E1E86868181070781819999878793
:10031000FFFF1F1F7979F8F81919FEFEF9F9E7E7D1
:1003200006061E1E1919FFFFFFFFFFFF78789F9F2B
:10033000E7E7FEFEE6E6060666661919F8F861616B
:100340000101F8F87F7F676778781919E1E11F1FCD
:10035000E7E7E0E06060F9F978781919616187876B
:100360001E1E8080FEFEFFFFFFFFFFFF7E7E676791
:1003700067677979616160606666FEFE99999E9E05
:1003800000000101F8F8FEFEE6E6FEFE81818080B5
:10039000E7E77F7F0606E7E76060E0E00000070729
:1003A00080801F1F9F9FFFFFFFFFFFFF0000FEFEDB
:1003B000060606060606FEFE0000FFFF1F1F0101DF
:1003C0008686E6E60101E1E10707818181816767B1
:1003D00067679E9E60608787E6E60707808098983B
:1003E0006767FEFE0707FFFFFFFFFFFFE0E0E7E7AD
:1003F000E6E6E6E6E6E6E7E7E0E0FFFFE0E0E0E08D
:10040000E1E1FFFFF8F8E7E7FEFEF9F9FFFFFEFE86
:10041000E6E6E7E7E0E0E1E1E7E7F8F8FFFFF9F912
:10042000FEFEE1E1FEFEFFFFFF080B0002020201FB
:10043000000904000001020200000524001001056B
:100440002401010104240206052406000107058198
:100450000310004009040100020A00000007050221
:100460000240000007058302400000040309041253
:10047000010002EF02014041233680000101020326
:100480000141726475696E6F204C4C430041726487
:1004900075696E6F204C656F6E6172646F0000004D
:1004A0000000003E5B4F5B3E3E6B4F6B3E1C3E7C54
:1004B0003E1C183C7E3C181C577D571C1C5E7F5E02
:1004C0001C00183C1800FFE7C3E7FF0018241800C1
:1004D000FFE7DBE7FF30483A060E26297929264058
:1004E0007F050507407F05253F5A3CE73C5A7F3E84
:1004F0001C1C08081C1C3E7F14227F22145F5F0016
:100500005F5F06097F017F006689956A60606060B1
:100510006094A2FFA29408047E040810207E20109C
:1005200008082A1C08081C2A08081E101010100CA5
:100530001E0C1E0C30383E3830060E3E0E060000F3
:1005400000000000005F00000007000700147F1497
:100550007F14242A7F2A1223130864623649562006
:10056000500008070300001C2241000041221C002B
:100570002A1C7F1C2A08083E0808008070300008EA
:1005800008080808000060600020100804023E51BE
:1005900049453E00427F4000724949494621414950
:1005A0004D331814127F1027454545393C4A4949B7
:1005B0003141211109073649494936464949291E21
:1005C0000000140000004034000000081422411410
:1005D00014141414004122140802015909063E4162
:1005E0005D594E7C1211127C7F494949363E41418A
:1005F00041227F4141413E7F494949417F090909E3
:10060000013E414151737F0808087F00417F41004E
:100610002040413F017F081422417F404040407FFD
:10062000021C027F7F0408107F3E4141413E7F094A
:100630000909063E4151215E7F091929462649498B
:10064000493203017F01033F4040403F1F204020CB
:100650001F3F4038403F63140814630304780403C9
:100660006159494D43007F41414102040810200077
:100670004141417F040201020440404040400003E8
:1006800007080020545478407F28444438384444B4
:100690004428384444287F385454541800087E09AC
:1006A0000218A4A49C787F0804047800447D4000CC
:1006B0002040403D007F1028440000417F40007CE6
:1006C000047804787C080404783844444438FC18DE
:1006D00024241818242418FC7C08040408485454C2
:1006E000542404043F44243C4040207C1C204020EF
:1006F0001C3C4030403C44281028444C9090907C56
:100700004464544C44000836410000007700000067
:100710004136080002010204023C2623263C1EA1A9
:10072000A161123A4040207A385454555921555508
:1007300079412154547841215554784020545579B9
:10074000400C1E527212395555555939545454594A
:1007500039555454580000457C410002457D420003
:1007600001457C40F0292429F0F0282528F07C540C
:100770005545002054547C547C0A097F493249492C
:1007800049323248484832324A4848303A41412199
:100790007A3A42402078009DA0A07D3944444439F3
:1007A0003D4040403D3C24FF2424487E4943662B85
:1007B0002FFC2F2BFF0929F620C0887E0903205427
:1007C0005479410000447D413048484A3238404025
:1007D000227A007A0A0A727D0D19317D2629292F85
:1007E00028262929292630484D402038080808089D
:1007F00008080808382F10C8ACBA2F102834FA009F
:10080000007B000008142A142222142A14089500E0
:10081000220095AA005500AAAA55AA55AA000000D0
:10082000FF00101010FF00141414FF001010FF0040
:10083000FF1010F010F0141414FC001414F700FF53
:100840000000FF00FF1414F404FC141417101F1010
:10085000101F101F1414141F00101010F0000000BF
:10086000001F101010101F10101010F010000000CA
:10087000FF101010101010101010FF10000000FFDB
:10088000140000FF00FF00001F10170000FC04F41C
:1008900014141710171414F404F40000FF00F714D4
:1008A000141414141414F700F7141414171410105B
:1008B0001F101F141414F4141010F010F000001F77
:1008C000101F0000001F14000000FC140000F010B6
:1008D000F01010FF10FF141414FF141010101F005C
:1008E000000000F010FFFFFFFFFFF0F0F0F0F0FF5E
:1008F000FFFF0000000000FFFF0F0F0F0F0F384435
:100900004438447C2A2A3E147E02020606027E02F5
:100910007E0263554941633844443C04407E201EB6
:100920002006027E020299A5E7A5991C2A492A1CE5
:100930004C7201724C304A4D4D303048784830BCD2
:10094000625A463D3E494949007E0101017E2A2AFC
:100950002A2A2A44445F444440514A444040444A7D
:1009600051400000FF0103E080FF000008086B6BAE
:10097000083612362436060F090F06000018180034
:1009800000001010003040FF0101001F01011E0097
:10099000191D1712003C3C3C3C00000000000816EA
:1009A00011241FBECFEFDAE0DEBFCDBF11E0A0E023
:1009B000B1E0E0E1FFE202C005900D92AE36B10772
:1009C000D9F728E0AEE6B1E001C01D92AA37B20720
:1009D000E1F714E0C0EDD4E004C02197FE010E94CD
:1009E0007B17CF3CD107C9F70E94380F0C948617AC
:1009F0000C940000CF93DF931F92CDB7DEB76983CD
:100A0000DC01ED91FC910280F381E02D41E050E0AA
:100A1000BE016F5F7F4F09950F90DF91CF910895D1
:100A200083E08093E9008091F200882319F08AE343
:100A30008093E8000895FC018485958597FD0BC09F
:100A40009FB7F89482E08093E9008091F2009FBF05
:100A500090E0019608959FB7F89482E08093E900B2
:100A60008091F2009FBF90E008954091F60350916D
:100A7000F7032091F4033091F50342175307B4F4C0
:100A80009091E8009570E1F39091E80092FD19C013
:100A90008093F1008091F6039091F70301968F7394
:100AA0009927892B19F48EEF8093E8008091F60343
:100AB0009091F70301969093F7038093F60381E0FA
:100AC000089580E00895DF92EF92FF920F931F93B5
:100AD000CF93DF93D82E8A017B01E40EF51EEB0144
:100AE000CE15DF0571F0D7FE03C0FE01849101C071
:100AF00088810E94350521968111F2CF8FEF9FEFFB
:100B000001C0C801DF91CF911F910F91FF90EF902D
:100B1000DF900895615030F02091F100FC012083B6
:100B20000196F8CF289884E68093FA0308950E94EE
:100B30006D0C90E008950F931F93CF93DF931F9256
:100B4000CDB7DEB78C01FC018485958597FF0EC07B
:100B5000CE0101960E943F0C019719F4898190E023
:100B600002C08FEF9FEFF80195878487F801848595
:100B700095850F90DF91CF911F910F910895CF939D
:100B8000DF931F92CDB7DEB7FC018485958597FD75
:100B900005C02FEF3FEF358724870BC0CE010196AC
:100BA0000E943F0C019719F4898190E002C08FEFF9
:100BB0009FEF0F90DF91CF9108950F931F93CF93E5
:100BC000DF931F92CDB7DEB782E0898342E450E025
:100BD00069E274E080E80E9463050E947E0CDC01FB
:100BE00012960D911C9113970115110589F0D801EA
:100BF000ED91FC910280F381E02DBE016F5F7F4F8C
:100C0000C801099597FD04C0F80100851185ECCF56
:100C100089810F90DF91CF911F910F9108951F92BD
:100C20000F920FB60F9211248F939F938091E10042
:100C30009091E100937F9093E10083FF0FC01092A9
:100C4000E90091E09093EB001092EC0092E3909316
:100C5000ED001092FB0398E09093F00082FF20C01B
:100C600093E09093E9009091F200992319F09AE3B0
:100C70009093E8009091F903992339F09091F9034A
:100C800091509093F903992389F19091FA03992354
:100C900039F09091FA0391509093FA03992341F11E
:100CA00084FF10C08091E2008E7E81608093E2001C
:100CB0008091E1008F7E8093E1008091F3038E7E2E
:100CC000806111C080FF16C08091E2008E7E80613D
:100CD0008093E2008091E1008E7E8093E10080911C
:100CE000F3038E7E81608093F30304C05D9ACDCFC1
:100CF000289AD6CF9F918F910F900FBE0F901F9083
:100D000018951F920F920FB60F921124CF92DF9277
:100D1000EF92FF920F931F932F933F934F935F9305
:100D20006F937F938F939F93AF93BF93EF93FF93B3
:100D3000CF93DF93CDB7DEB76C97DEBFCDBF1092F8
:100D4000E9008091E80083FFFBC168E0CE01459691
:100D50000E948A0582EF8093E8008D8987FF05C095
:100D60009091E80090FFFCCF03C09EEF9093E800C5
:100D7000982F907609F0C6C09E894F89588D2F898B
:100D8000F88C91110CC0803829F48091F203809383
:100D9000F10002C01092F1001092F10045C19130B3
:100DA00051F4811141C14130510509F03DC180919B
:100DB000F2038D7F0BC0933061F4811135C1413056
:100DC000510509F031C18091F20382608093F203F2
:100DD0002BC1953049F48091E80080FFFCCF822F31
:100DE00080688093E30020C1963009F05EC00B8DCF
:100DF0001C8D22E01092E9001092F7031092F60386
:100E0000F21232C01092F5031092F4030E94DD0535
:100E100099E0BE016F5F7F4FDB01E92F1D92EA95DC
:100E2000E9F79983FA8291E09E8390EA98879AEF96
:100E300099872091F6033091F703275F3F4F3C835A
:100E40002B838D831092E9001092F7031092F60322
:100E50001093F5030093F40349E050E080E00E9412
:100E600063050E94DD05E0C01093F5030093F403D1
:100E70000E947E0CDC0112960D911C9113970115B6
:100E8000110509F4BBC0D801ED91FC910480F581F6
:100E9000E02DBE016B5E7F4FC8010995009709F0F8
:100EA000C7C0F80100851185EACF973009F445C124
:100EB000983021F481E08093F100B6C0993009F0B8
:100EC000B3C0837009F039C1E1E1F1E081E031E0C4
:100ED00096E32081211109C08EE78093EA001092E9
:100EE000EA008F898093FB039FC08093E9003093D1
:100EF000EB0021912093EC009093ED008F5F873001
:100F000041F7EACF8B8D9C8D1092E9001092F70388
:100F10001092F6039093F5038093F403898D811169
:100F200053C08E899D89913A49F4813209F005C1F7
:100F300047E050E064E071E080E0BBC0913209F02E
:100F4000FCC0833269F48F89988DA0E0B0E0809373
:100F5000000190930101A0930201B093030164C0CA
:100F6000803269F48091E80082FFFCCF67E084E082
:100F700091E00E948A058BEF8093E80055C0823291
:100F800009F052C08F8980930B01EEEFFFE7859146
:100F900094918B3F9C4D19F0E0E0F8E002C0EEEF39
:100FA000FAE08091040190910501A0910601B091B1
:100FB0000701803B9440A105B10509F09EC08091D6
:100FC0000B0180FF79C099C00E947E0CFC01028158
:100FD00013810115110509F4B0C0D801ED91FC9100
:100FE0000190F081E02DBE016B5E7F4FC801099535
:100FF00081111AC0F80100851185EBCFF1E0FF16D1
:1010000009F44EC0F3E0FF1298C08F89882309F4D9
:101010004AC0823089F440E860E18DE894E00E94A3
:10102000D315882309F489C08EEF8093E80088C027
:1010300018161906CCF381C0813029F440E86BE022
:1010400081E894E0ECCF833009F077C00E947E0CF9
:10105000DC011296ED90FC9013978E010F5F1F4FED
:101060006801E114F10479F0D701ED91FC9106805B
:10107000F781E02DB801C7010995080F111DF7018F
:10108000E084F184EECFD8011C92F601019000209B
:10109000E9F73197BF016C197D0940E0C601BFCF68
:1010A0006FE674E002C06BE674E0FB01449150E02F
:1010B00080E80E946305B8CFEE3F2AE0F20751F0C6
:1010C000808191818737A7E79A0721F09093FF0AE3
:1010D0008093FE0A87E797E7918380838091600081
:1010E0008093F8039BE088E10FB6F894A89580936D
:1010F00060000FBE9093600097CF80819181873709
:10110000974709F091CFA8958091600088618093FE
:1011100060008091F80380936000EE3FBAE0FB0727
:1011200039F08091FE0A9091FF0A918380837CCFF1
:101130001092FF0A1092FE0A77CF81E28093EB00B3
:101140006C960FB6F894DEBF0FBECDBFDF91CF9186
:10115000FF91EF91BF91AF919F918F917F916F918F
:101160005F914F913F912F911F910F91FF90EF90C1
:10117000DF90CF900F900FBE0F901F9018958F9219
:101180009F92AF92BF92CF92DF92EF92FF926B014C
:101190007C010E94C90E4B015C01C114D104E10421
:1011A000F104F1F00E94C90EDC01CB018819990904
:1011B000AA09BB09883E9340A105B10570F321E05F
:1011C000C21AD108E108F10888EE880E83E0981E63
:1011D000A11CB11CC114D104E104F10419F7DDCF45
:1011E000FF90EF90DF90CF90BF90AF909F908F9047
:1011F00008958F929F92AF92BF92CF92DF92EF921B
:10120000FF920F931F93CF93DF936C017B018A01B1
:1012100080910B01882309F45CC08091FB03882333
:1012200009F457C08091F30380FF05C08091E0006E
:1012300082608093E000E801B12C8AEFA82E93E051
:10124000892E2AE3922E209711F4BB20D9F10E9417
:101250006D0C81110AC0AA94AA20D9F161E070E056
:1012600080E090E00E94BF08EECF282F30E0C21748
:10127000D3070CF48C2F9FB7F8948092E90020914B
:10128000E80025FF1DC0282F30E0C21BD30BF7015B
:10129000815020F041914093F100FACFE20EF31E0D
:1012A000BB2019F09092E8000AC08091E80085FD0B
:1012B00007C09092E800BB24B394209709F0B12CAA
:1012C0009FBFC1CF5D9884E68093F9031016110685
:1012D00044F081E090E0F6019383828380E090E027
:1012E00001C0C801DF91CF911F910F91FF90EF9046
:1012F000DF90CF90BF90AF909F908F9008959C010A
:10130000255F3F4F2B38310560F5FC0197FF02C088
:10131000E0E0F0E00C968138910514F080E890E070
:101320008E1B9B012770332791E001C0990F2A95EE
:10133000EAF777FF02C0695F7F4F23E075956795F5
:101340002A95E1F77695762F662777956795E60FCC
:10135000F71FE450FC4F815020F02081292B21936E
:10136000FACF0895009769F0FC0101900020E9F799
:101370003197AF01481B590BBC018EEF97E00C94DD
:10138000920C80E090E00895CF93C091FC0781E734
:1013900091E00E94DA16C81729F06C2F81E791E0DE
:1013A0000E94E216C091FD0782E791E00E94DA16E2
:1013B000C81729F06C2F82E791E00E94E2168CEFAB
:1013C00097E0CF91089580E0ECEFF3E081118FEF8B
:1013D000002481938193819381930394D1F708959D
:1013E000ECEFF3E0A0E0B8E000800EBC8111012C2E
:1013F0001197A0FDFDCF0192B9F70DB408952F927A
:101400003F924F925F926F927F928F929F92AF9294
:10141000BF92CF92DF92EF92FF920F931F93CF93E1
:10142000DF93CDB7DEB72A970FB6F894DEBF0FBEB5
:10143000CDBF5A01822E912C9401280F391F37FD00
:10144000BAC0803891050CF0B6C09B01200F311D49
:1014500037FDB1C0603471050CF0ADC0AB0177FF52
:1014600004C044275527461B570B477055279B013F
:1014700077FF02C0295F3F4FE3E035952795EA9556
:10148000E1F777FF08C02150310968E070E0FB0107
:10149000E41BF50BAF01202E269426942694312CC4
:1014A000077019F0FFEF2F1A3F0A220E331E390181
:1014B0007694762C662477946794680E791EE12CD6
:1014C000F12C00E010E0B30160587F4F7A87698704
:1014D00068E070E0FB01E41BF50BFA83E983221658
:1014E000330609F468C02830310509F464C02F3F81
:1014F000FFEF3F070CF454C0E985FA85E00FF11FB8
:10150000BF0164507C4F7C836B83D801A60DB71D4F
:10151000A450BC4F6C0160E070E0681579050CF0D8
:101520003FC0E0E8CE16D10409F43AC0D7FC2CC085
:101530002F3FFFEF3F0709F43AC0FB01EE0DFF1DFF
:10154000EA0DFB1DE491042E01C0EE0F0A94EAF7A8
:10155000FC91EF2BEC9341155105B1F0273031058B
:1015600099F0FB01EE0DFF1DEA0DFB1DE4914E2EDF
:10157000512C098002C0559447940A94E2F7EB81FC
:10158000FC815080452840826F5F7F4FEB81FC815A
:101590003196FC83EB83FFEFCF1ADF0A1196BDCFA4
:1015A0002F5F3F4F00581F4FE80CF91C98CF411593
:1015B0005105B9F6E9CF2A960FB6F894DEBF0FBEF3
:1015C000CDBFDF91CF911F910F91FF90EF90DF90F2
:1015D000CF90BF90AF909F908F907F906F905F90D3
:1015E0004F903F902F9008952F923F924F925F928D
:1015F0006F927F928F929F92AF92BF92CF92DF9223
:10160000EF92FF920F931F93CF93DF93EC018B0127
:101610007A016901C61AD70AD7FE03C0D194C194D2
:10162000D10847018C1A9D0A97FE03C091948194BA
:1016300091088C149D0454F49E2D8F2D7901292F2F
:10164000382F9C2F8D2FE801092F182FEC16FD063F
:1016500054F4902F812F8901292F382F9C2F8D2F03
:10166000E701E92EF82E17012C1A3D0A2901401A2C
:10167000510A57FE03C0519441945108310137FE7D
:1016800003C08FEF681A780A7594679402171307DE
:1016900014F08FEF01C081E0A82E880FBB08EC1674
:1016A000FD06ACF041E08C149D041CF4BE01C801A1
:1016B00002C0B801CE010E94D40C6418750877FEF0
:1016C00004C00A0D1B1D620C731C2196E8CFDF912C
:1016D000CF911F910F91FF90EF90DF90CF90BF902F
:1016E000AF909F908F907F906F905F904F903F90C2
:1016F0002F9008950C94B2098F929F92AF92BF924F
:10170000CF92DF92EF92FF920F931F93CF93DF93CD
:10171000CDB7DEB7A1970FB6F894DEBF0FBECDBF31
:101720006C01990FEE08FF08F7FE2BC06DE28EEFFB
:1017300097E00E94EF0C8C0122273327A9012C1976
:101740003D094E095F0919A2CE0181967C019AE0FC
:10175000892E912CA12CB12CCA01B901A5019401AB
:101760000E942217605DF70162937F012115310508
:101770004105510589F7CF010E94B209800F911FE1
:101780001DC0A701960119A28E010F5D1F4F8AE0AF
:10179000C82ED12CE12CF12CCA01B901A701960168
:1017A0000E942217605DF80162938F0121153105B7
:1017B0004105510589F7CF010E94B209A1960FB6E4
:1017C000F894DEBF0FBECDBFDF91CF911F910F9177
:1017D000FF90EF90DF90CF90BF90AF909F908F9051
:1017E0000895AF92BF92CF92DF92EF92FF920F9344
:1017F0001F93CF93DF938C01EB016034710510F4DC
:101800000E947F09BE01655F7F4F6034710518F447
:10181000C8010E947F095E018CE0A80EB11CD7FFB1
:1018200002C0C0E0D0E07E01650181E4A816B104E9
:101830001CF080E4C82ED12CEC14FD044CF441E0E3
:10184000B701C8010E94D40C8FEFE81AF80AECCF58
:10185000055F1F4FCC15DD053CF441E0BE01C8011A
:101860000E94D40C2196F6CFDF91CF911F910F915A
:10187000FF90EF90DF90CF90BF90AF9008952091B0
:10188000FB03211103C08FEF9FEF08955FB7F8941A
:1018900022E02093E9002091F20030E012161306B6
:1018A00014F421E030E0422FFC0184E6415038F08E
:1018B00028988093FA039091F1009193F7CF211526
:1018C000310521F08091F200882319F05FBFC90132
:1018D00008958BE68093E800F9CF2FB7F89483E062
:1018E0008093E9009091E800892F807295FF04C0F1
:1018F0009091F20080E4891B2FBF08958091190810
:1019000081110DC082E08093150884E08093160851
:10191000109218081092170881E08093190885E149
:1019200098E00895CF92DF92EF92FF920F931F936A
:10193000CF93DF936C017A018B01C0E0D0E0CE152C
:10194000DF0581F0D8016D918D01D601ED91FC91FB
:101950000190F081E02DC6010995892B11F02196A7
:10196000EECF7E01C701DF91CF911F910F91FF90C4
:10197000EF90DF90CF9008950895089580E090E073
:1019800008950E9481172D9A0895BC0180E090E08F
:101990000C94BF088FB18095807F669B88601C9BEC
:1019A000846008950C94DA1680389105B8F4603498
:1019B0007105A0F490E121E061FD24E060FD220FBB
:1019C00062FD2295687F969FD0011124A80FA45034
:1019D000BC4F8C91822B40FF82278C9308952F92CD
:1019E0003F924F925F926F927F928F929F92AF92AF
:1019F000BF92CF92DF92EF92FF920F931F93CF93FC
:101A0000DF93CDB7DEB727970FB6F894DEBF0FBED2
:101A1000CDBF9F838E836A30A1F4DC0155962C9153
:101A2000559751968D919C915297B8E02B9F800DC0
:101A3000911D1124EE81FF81928B818B108A178674
:101A4000ADC06D3009F4AAC0AE81BF811F960D9163
:101A50001C91509700381105BCF0EE81FF8125895B
:101A6000422F50E087859089F6E02F9F800D911DD1
:101A70001124AE81BF8150969C938E931F975696EA
:101A80002C91211175C08AC0EE81FF8181889288D6
:101A9000F0E48F1691040CF7AE81BF8155963C900F
:101AA000C801B5E03B9E800D911D11241816190642
:101AB000A4F6432C512CC401E8E03E9E800D911DFC
:101AC0001124181619064CF6AE81BF815496BC91AC
:101AD000BC83EE81FF81F389FD8325E0629FB00125
:101AE0001124CB0182569B4F3C011982F3012490B3
:101AF000F981F53009F4212C640128E02B8320FEC4
:101B000003C03D813A8302C08C818A839A819111FE
:101B100004C0AC81BD81AB17B9F078018E2D801B5C
:101B2000831590F456018A2D8C19831548F44A8147
:101B3000B501C7010E94D40CEFEFAE1ABE0AF3CF75
:101B4000FFEFEF1AFF0AEACF26942B8121502B8357
:101B5000C40CD51C2111D3CF39813F5F3983040DCB
:101B6000151DC30101963C01363009F0BFCF75CF7A
:101B70006AEF64039001659F300D112420583F4F98
:101B8000281739075CF4AE81BF81ED91FC91119764
:101B90000190F081E02D6AE0CD01099581E090E0AF
:101BA00027960FB6F894DEBF0FBECDBFDF91CF9161
:101BB0001F910F91FF90EF90DF90CF90BF90AF906B
:101BC0009F908F907F906F905F904F903F902F905D
:101BD000089520918603309187032F3F8FEF3807B8
:101BE00019F480E090E00895F901EE0FFF1FE25331
:101BF000FE4F8081918121503109309387032093DA
:101C00008603089520918603309187032B3D31058B
:101C100069F02F5F3F4F3093870320938603220F95
:101C2000331FF901E253FE4F9183808308954EE6FE
:101C300051E02CE080E090E0FA01E80FF91F1082FB
:101C4000019688309105C1F72150485F5F4F2111FF
:101C5000F1CF0895CF92DF92EF92FF921F93CF932F
:101C6000DF93109289031092880384E190E09093AF
:101C7000EC038093EB038091FC079091FD070E9499
:101C8000CF168BE8E82E83E0F82E1CE096E0C92EF4
:101C9000D12CC0E0D0E00E94CA16F701EC0FFD1F66
:101CA000B6010E94531780830E94170E2196C830F8
:101CB000D10589F7115088E0E80EF11C1111E9CF28
:101CC00080918B0380938A03DF91CF911F91FF90C6
:101CD000EF90DF90CF900895CF92DF92EF92FF9236
:101CE0000F93CF93DF9320E430E04DE150E060E0CC
:101CF00070E08DE190E00E94F40AC0E2D0E0CE01F5
:101D000085599C4F6C01E12CF12CF60181916F01FA
:101D10008230C9F04CF4882389F0813031F508E035
:101D200028E049E052E01DC08430B9F08CF08530E5
:101D3000E1F408E028E049EF51E013C008E028E0B2
:101D400041E252E00EC008E028E049E152E009C05B
:101D500008E028E041E052E004C008E028E041E16A
:101D600052E0B701CE010E94FF09F8E0EF0EF11C2E
:101D700080E4E816F10449F62896C038D10509F048
:101D8000BECFDF91CF910F91FF90EF90DF90CF907A
:101D900008953FB7F8948091760890917708A091C4
:101DA0007808B091790826B5A89B05C02F3F19F097
:101DB0000196A11DB11D3FBFBA2FA92F982F8827CB
:101DC000820F911DA11DB11DBC01CD0142E0660F26
:101DD000771F881F991F4A95D1F708951F920F9278
:101DE0000FB60F9211242F933F938F939F93AF932E
:101DF000BF938091710890917208A0917308B0917F
:101E000074083091750823E0230F2D3720F40196D4
:101E1000A11DB11D05C026E8230F0296A11DB11D0D
:101E2000209375088093710890937208A0937308AB
:101E3000B09374088091760890917708A091780803
:101E4000B09179080196A11DB11D809376089093F9
:101E50007708A0937808B0937908BF91AF919F91CC
:101E60008F913F912F910F900FBE0F901F9018955B
:101E7000789484B5826084BD84B5816084BD85B565
:101E8000826085BD85B5816085BD80916E00816071
:101E900080936E0010928100809181008260809317
:101EA0008100809181008160809381008091800019
:101EB0008160809380008091910082608093910086
:101EC0008091910081608093910080919000816069
:101ED000809390008091C10084608093C1008091C4
:101EE000C10082608093C1008091C10081608093B5
:101EF000C1008091C30081608093C3008091C000C5
:101F000082608093C0008091C20081608093C20093
:101F100080917A00846080937A0080917A00826058
:101F200080937A0080917A00816080937A0080911A
:101F30007A00806880937A001092FB031092F2037B
:101F40001092F3038091D70081608093D70080EADC
:101F50008093D80089B5806189BD89B5826089BDCB
:101F600009B400FEFDCF61E070E080E090E00E94E7
:101F7000BF088091D8008F7C80618093D8008091C9
:101F8000E000807F8093E0008091E1008E7E80936E
:101F9000E1008DE08093E200559A209A81EC8093D5
:101FA0007C0085B1806F85B984B1877E84B984B1A6
:101FB000876E84B95E9A5F988AB1806D8AB9769A85
:101FC0006E9881B3806F81BB899880B38D7080BB20
:101FD00080E58CBD81E08DBD85E090E00E94C50C60
:101FE0005F9A85E090E00E94C50C5E985C98ECE5F5
:101FF000F1E089E691E024912EBD00000DB407FECA
:10200000FDCF31968E179F07B1F75C9A81E88093D8
:1020100064008091650081608093650080E00E948B
:10202000F0090E94CA0C87FF24C05C9885EA8EBD27
:1020300000000DB407FEFDCF5C9A2E982F982D98C6
:102040008091640080628093640081E083BF889502
:1020500013BEFCCF2D980E94CA0C8478843871F08E
:102060000E94CA0C8471843131F188EC90E00E94A6
:10207000C50C0E94CA0C82FDEDCF3AC00E94C30C71
:1020800088EC90E00E94C50C2F9882E090E00E94BE
:10209000DA168F3F29F06FEF82E090E00E94E2169F
:1020A00084EF91E00E94C50C2F9A0E94CA0C84789C
:1020B0008438D9F3D5CF0E94C30C88EC90E00E94FD
:1020C000C50C2E9882E090E00E94DA16882329F051
:1020D00060E082E090E00E94E21684EF91E00E94CE
:1020E000C50C2E9A0E94CA0C84718431D9F3BDCFDD
:1020F0000E94C30C82E090E00E94D20C882319F069
:102100003E9A3F9A02C03E983F9881E090E00E943C
:10211000D20C182F147081FF39C011112E98C0EF06
:10212000DFEF0E94CA0C86FF05C02E9A2F9A0E94EC
:10213000C30C2CC0112329F0C430D10511F42E9A00
:102140002F9881E00E94F00900E128E54CEA50E078
:10215000BE0184E190E00E94FF0980E00E94F00946
:102160008FE090E00E94C50C2196C931D105C9F6D7
:10217000112311F02F9A2D9880E991E00E94C50C4F
:102180000E94C30C8EEF97E00E94391682E390E024
:102190000E94C50C0E94CA0C8111F8CF0E94E3096D
:1021A0001092100810920F0810920E0810920D084D
:1021B00080E18093090881E08093F0038093EF032E
:1021C00082E08093EE031092ED0310928A03109246
:1021D000F10381E791E00E94DA168093FC0782E721
:1021E00091E00E94DA168093FD078091FC079091A0
:1021F000FD07883E934034F087EE93E09093FD070F
:102200008093FC078091FC079091FD071816190632
:1022100034F081E090E09093FD078093FC0794E018
:10222000C92ED12C29E0622E712CAA24A394B12CA2
:1022300042E0842E912CCCE0D0E08CE2E82EF12C10
:102240008FB7F894409171085091720860917308AB
:10225000709174088FBF80910A08342F381B832F28
:1022600090910B08992329F030930C0810920B08D9
:10227000A9C390910908391748F48F5F891708F0AE
:10228000A1C381E083BF889513BE9CC311E0109366
:102290000B0840930A088091050890910608019662
:1022A00090930608809305080E94E3091092100895
:1022B00010920F0810920E0810920D088091F103F1
:1022C000823009F4B0C234F48823B9F1813009F4C2
:1022D0004DC155C3833009F4F1C2843009F04FC3B6
:1022E0000E94CA0C83FF05C08091F003813029F45D
:1022F00071C30E94CA0C82FDF7CF0E94CA0C87FFEF
:1023000005C08091EF03813069F464C30E94CA0C58
:1023100084FDF7CF0E94CA0C85FDF3CF0E94CA0C42
:1023200086FDEFCF00E420E449E252E060E070E097
:1023300080E290E00E94FF0922C30E94CA0C83FF42
:102340000EC08091F003813051F41092F00390910F
:10235000EE03933009F045C384E08093F1030E94BB
:10236000CA0C87FF1FC08091EF038130D9F410920F
:10237000EF038091EE03813009F43AC3823009F40F
:1023800044C381110FC08091FC079091FD078438F0
:1023900023E092070CF034C38C599F4F9093FD07B4
:1023A0008093FC070E94CA0C84FF17C08091EF0342
:1023B000813099F41092EF038091EE03813009F09F
:1023C00031C38091FC079091FD078B3091050CF093
:1023D00027C3B092FD07A092FC070E94CA0C85FF9C
:1023E0000DC08091EF03813049F41092EF0380918A
:1023F000EE0318161CF481508093EE030E94CA0C61
:1024000086FF0DC08091EF03813049F41092EF03F5
:102410008091EE0383301CF48F5F8093EE03D092A3
:102420000E08C0920D089092100880920F0812E0DA
:10243000109313088DE391E00E947A0B21E130E0C4
:1024400040E850E061E170E080E090E00E94F40A32
:1024500081E080931308D0930E08C0930D0886E1A5
:1024600090E09093100880930F0888E491E00E9418
:102470007A0B2FE030E030930E0820930D088EE1A8
:1024800090E09093100880930F088FE491E00E94F1
:102490007A0B24E530E030930E0820930D088AE192
:1024A00090E09093100880930F0885E591E00E94DA
:1024B0007A0B109313088091FC079091FD07D0933D
:1024C0000E08C0930D08F0921008E0920F088A30B1
:1024D00091053CF48AE591E00E947A0B84E290E059
:1024E00009C08436910594F48BE591E00E947A0B43
:1024F00088E190E090930E0880930D08F092100808
:10250000E0920F088091FC079091FD070E947C0BE0
:102510008091EE03823049F42EE330E04EE250E049
:102520006EE370E084E290E00AC0813059F42EE35B
:1025300030E042E250E06EE370E088E190E00E941B
:10254000F40A1DC2811109C02EE330E046E150E0DB
:102550006EE370E08CE090E0F2CF23E230E04AE6F8
:1025600050E063E270E084E590E0E9CF0E94CA0C9D
:1025700087FF0DC08091EF03813049F48091ED0316
:1025800082301CF082508093ED031092EF030E9482
:10259000CA0C84FF0DC08091EF03813049F4809113
:1025A000ED0384301CF48E5F8093ED031092EF03F3
:1025B0000E94CA0C85FF10C08091EF03813061F446
:1025C0008091ED03982F9D7F913009F448C28530AA
:1025D00009F445C21092EF030E94CA0C86FF0FC097
:1025E0008091EF03813059F48091ED03982F9D7F06
:1025F00009F439C2843009F436C21092EF030E9404
:10260000CA0C83FF4CC08091F003813009F047C0B1
:102610001092F00320908B0320928A033090ED03F8
:102620002314E9F10091EB031091EC03015011091F
:102630001093EC030093EB038FEF9FEF90938703CE
:102640008093860380E090E00E94020E80918603D2
:102650009091870397FF0BC28FEF9FEF90938703B3
:102660008093860310928903109288030E94170EAC
:1026700080E090E00E94020E222423948091860341
:102680009091870397FF28C28091880390918903D6
:102690008036910509F063C282E08093F1030E94C5
:1026A000CA0C82FF05C08091F003813009F45CC23E
:1026B0000E946C0E08E028E041E252E06CE170E01C
:1026C00083E090E00E94FF0928E049E152E069E2DE
:1026D00070E083E090E00E94FF0928E041E152E0D1
:1026E00066E370E083E090E00E94FF0928E049E0A3
:1026F00052E06CE170E080E190E00E94FF0928E088
:1027000041E052E069E270E080E190E00E94FF0960
:1027100028E049EF51E066E370E080E190E00E943C
:10272000FF098091ED03823099F03CF4882369F031
:102730008130E9F46AE170E016C0843079F05CF031
:102740008530A9F464E370E00EC06AE170E008C06F
:1027500067E270E005C067E270E005C064E370E026
:1027600081E090E002C08EE090E00E94F10B29E051
:1027700030E04DE150E069E070E080E090E00E94E0
:10278000F40A25E130E04DE150E065E170E080E0E1
:1027900090E00E94F40A81E08093130890920E0862
:1027A00080920D081092100810920F088DE591E0AC
:1027B0000E947A0B8091FC079091FD070E947C0B90
:1027C0008091EB039091EC0384309105CCF485E08B
:1027D00090E090930E0880930D08D0931008C0935A
:1027E0000F088FE591E00E947A0B8091EB039091A6
:1027F000EC030E947C0B8FE591E00E947A0BBFC036
:102800008A3091051CF42BE030E002C028E030E073
:1028100030930E0820930D08D0931008C0930F0832
:102820000E947C0BACC00E946C0E08E128E141EBD9
:1028300051E06CE170E080E090E00E94FF091093AD
:102840001308D0920E08C0920D0810921008109232
:102850000F0881E691E00E947A0BD0920E08C09298
:102860000D087092100860920F0885E691E00E94B2
:102870007A0B0E94CA0C87FF06C08091F00381305A
:1028800009F07DC015C00E94CA0C84FDF6CF0E94DD
:10289000CA0C85FDF2CF0E94CA0C86FDEECF0E94C5
:1028A000CA0C83FDEACF0E94CA0C82FDE6CF67C046
:1028B0008091EF03813009F06EC049C00E946C0E18
:1028C00008E128E149E651E06CE170E080E090E049
:1028D0000E94FF0910931308D0920E08C0920D08B1
:1028E0001092100810920F0881E691E00E947A0B76
:1028F000B0920E08A0920D087092100860920F0816
:1029000089E691E00E947A0B0E94CA0C87FF05C0FD
:102910008091F003813099F515C00E94CA0C84FDA6
:10292000F7CF0E94CA0C85FDF3CF0E94CA0C86FD2A
:10293000EFCF0E94CA0C83FDEBCF0E94CA0C82FD30
:10294000E7CF1DC08091EF03813029F51DC11092A2
:10295000F0031092EF038093F1038091FC079091B4
:10296000FD070196883E33E0930709F008C1B09255
:10297000FD07A092FC070E94C4090E942A0E8091C4
:10298000F003811108C00E94CA0C83FD04C00E949C
:10299000CA0C82FF00C18091EF03811110C00E9418
:1029A000CA0C87FD0CC00E94CA0C84FD08C00E949E
:1029B000CA0C85FD04C00E94CA0C86FFF0C080E0EE
:1029C0000E94F00980E090E0892B09F439CC0E9444
:1029D000000033CC1092F0031092EF031092F10339
:1029E000A1CC8093F1030E94C4090E942A0EB7CCA7
:1029F0008091FC079091FD078E3D23E092071CF02B
:102A000087EE93E0CBCC0A96C9CC8091FC079091DD
:102A1000FD07873E33E093070CF0C4CC0196BECC93
:102A20000A970EC0823089F08111D7CC8091FC07C3
:102A30009091FD07853691050CF4CBCC8456910915
:102A40009093FD078093FC07C8CC8091FC07909180
:102A5000FD07823091050CF4C0CC0197F1CF815075
:102A60008093ED03B7CD8F5F8093ED03C6CD0E94B9
:102A7000E90D2C0197E0951508F4E8CD2BE024151D
:102A800008F4E4CD38E08302F0011124E557FC4F4F
:102A9000E50DF11D57FCFA9580812812D7CD3082C3
:102AA00081E0840D8C3019F0952D0E94020E8FEF7D
:102AB000840D8F3F19F0952D0E94020E91E0950D27
:102AC000983019F0842D0E94020E9FEF950D9830DA
:102AD00008F0BCCD842DB8CD0E94E90D2C0187E013
:102AE000851508F4CBCD9BE0941508F4C7CD852D52
:102AF000052C000C990B242D38E02302F001112441
:102B0000DF01A557BC4FA80FB91F2C913212B6CDCB
:102B1000E259FE4FE80FF91F8081813009F4AECDF4
:102B20002082809188039091890301969093890374
:102B30008093880381E0840D952D0E94020E8FEF13
:102B4000840D952D0E94020E842D91E0950D0E941A
:102B5000020E842D9FEF950D0E94020E8FCD012B4A
:102B600009F09DCD83E099CD1092F0031092F1030E
:102B700084E190E09093EC038093EB0399CD9093E4
:102B8000FD078093FC07F7CE1092F0031092EF033D
:102B90008093F103F2CE81E08093F003FCCE81E0DC
:102BA0008093EF030CCFDF92EF92FF920F931F936E
:102BB000CF93DF93D82EF92EE42E062F10E0C80114
:102BC0000196880F0E94350583E00E943505CD2DC2
:102BD000DF2D0C0F1D1FC017D10789F0E7FE03C0C2
:102BE000FE01849101C088810E943505F82E80E0A5
:102BF0000E9435058F2121968111EDCF01C081E022
:102C0000DF91CF911F910F91FF90EF90DF9008958A
:102C1000E1E2F8E01382128288EE93E0A0E0B0E0F7
:102C200084839583A683B7838BE191E0918380832E
:102C30008FEF9FEF95878487EEEFF7E01382128284
:102C40001186128680E183871086178215868DE2B1
:102C500091E0918380838BE391E095838483108A54
:102C60001786128A118A81E0838B148A858B168AD3
:102C700008950F931F93CF93DF938C0181E090E031
:102C80000E94D20C80FF32C08AE090E00E94D20CF9
:102C90009FEF980F9E3F50F522E330E0D801509609
:102CA0003C932E931F9728E330E052963C932E934B
:102CB0005197CBE0D0E0D801ED91FC910190F081EB
:102CC000E02D682FC8010995CE010E94D20C2196F3
:102CD000C131D10581F780E00E94F00988EE93E0D0
:102CE000DF91CF911F910F910C94C50CDF91CF9183
:102CF0001F910F91089504970C9439168F929F920B
:102D0000AF92BF92CF92DF92EF92FF92CF93DF9379
:102D1000EC01688179818A819B816115710581054A
:102D2000910521F464E279ED8BE597E02DE133EF35
:102D300041E050E00E94F01649015A019B01AC01AC
:102D4000A7EAB1E40E940F176B017C01ACEEB4EF6F
:102D5000A50194010E941D17DC01CB018C0D9D1D66
:102D6000AE1DBF1DB7FF03C00197A109B0488883FE
:102D70009983AA83BB839F77DF91CF91FF90EF90D8
:102D8000DF90CF90BF90AF909F908F9008950E945A
:102D90007E1608958CE091E00E947E160895A0E0D2
:102DA000B0E080930C0190930D01A0930E01B093BD
:102DB0000F010895F999FECF92BD81BDF89A992728
:102DC00080B50895262FF999FECF1FBA92BD81BD17
:102DD00020BD0FB6F894FA9AF99A0FBE019608959D
:102DE000052E97FB1EF400940E94071757FD07D08D
:102DF0000E94221707FC03D04EF40C94071750953D
:102E00004095309521953F4F4F4F5F4F08959095D6
:102E10008095709561957F4F8F4F9F4F08950E94C9
:102E20004417A59F900DB49F900DA49F800D911DF8
:102E300011240895B7FF0C940F170E940F17821BDF
:102E4000930B0895A1E21A2EAA1BBB1BFD010DC016
:102E5000AA1FBB1FEE1FFF1FA217B307E407F5074A
:102E600020F0A21BB30BE40BF50B661F771F881F26
:102E7000991F1A9469F760957095809590959B01BC
:102E8000AC01BD01CF010895A29FB001B39FC00165
:102E9000A39F700D811D1124911DB29F700D811D86
:102EA0001124911D089597FB072E16F4009407D066
:102EB00077FD09D00E94671707FC05D03EF4909576
:102EC00081959F4F0895709561957F4F0895AA1B36
:102ED000BB1B51E107C0AA1FBB1FA617B70710F005
:102EE000A61BB70B881F991F5A95A9F78095909537
:102EF000BC01CD010895EE0FFF1F0590F491E02D68
:102F0000099481E090E0F8940C948617F894FFCF30
:102F1000FFFFFFFF00E100000000000001000000D3
:102F200000C1808100000000000000FA04F9089749
:102F30000510051B05BF059B0500000000EF0C9266
:102F40000CBE0CBD0C3916FCFF00007B16464C4F26
:102F50004F442046494C4C0053656C656374004CEB
:102F60006576656C0048656C700030300023002A7F
:0E2F700000596F7500576F6E004C6F73740040
:00000001FF
