:100000000C9426040C944E040C944E040C944E0450
:100010000C944E040C944E040C944E040C944E0418
:100020000C944E040C944E040C94A5070C941708E1
:100030000C944E040C944E040C944E040C944E04F8
:100040000C944E040C944E040C944E040C944E04E8
:100050000C944E040C944E040C944E040C94060B19
:100060000C944E040C944E040C944E040C944E04C8
:100070000C944E040C944E040C944E040C944E04B8
:100080000C944E040C944E040C944E040C944E04A8
:100090000C94500B0C944E040C944E040C944E048F
:1000A0000C944E040C944E040C944E04F0F89C8E68
:1000B0008783878E9CF8F00000FEFF030303030391
:1000C000070EFCF80000FEFF0303030303070EFC0A
:1000D000F80000FFFF00000000000000FFFF00002C
:1000E000FEFF8383838383C7EE7C380000F8FC0E19
:1000F00007030303070EFCF800003F7FE0C0808089
:10010000C0E07F3FFFFF01010101010101FFFF008E
:1001100000FFFF0C0C0C0C1C3E77E3C100007FFFBE
:10012000C0C0C0C0C0E0703F1F00001F3F70E0C0F3
:10013000C0C0E0703F1F00007FFFC1C1C1C1C1E36B
:10014000773E1C00001F3F70E0C0C0C0E0703F1F42
:10015000000000000001FFFF01000000D5F08D1439
:10016000A1C881CFD9F1AF200043616C656E646591
:1001700072417070004368616E6765204B657973EA
:10018000005361766520262051756974004F6666BC
:10019000004F6E00596561726C793A200044656CBD
:1001A000657465003C20637265617465206E6577D7
:1001B000206E6F7465203E002E0053750053610061
:1001C0004672005468005765005475004D6F004A30
:1001D000616E75617279002046656272756172792F
:1001E000004D6172636800202020417072696C00CC
:1001F0002020204D61690020202020204A756E6556
:1002000000202020204A756C6900202020204175A4
:100210006775737400202053657074656D62657234
:100220004F6B746F62657200204E6F76656D62650C
:100230007200446563656D62657200000000000035
:1002400000000000000000000000000000000000AE
:10025000000000000000000000000000000000801E
:10026000606060606060608000FC02FAFAFAFAFA8E
:10027000FAFAFAEADABA6ADABAFA02FC00806060DC
:10028000606060606080000000000000000000000E
:10029000000000000000000000000000000000005E
:1002A000000000000000000000000000000000004E
:1002B000000000000000000000000000000000003E
:1002C000000000000000000000C03008068382012A
:1002D000315131018283041F20EF2F2F2F2F4F8F99
:1002E0002F8F4F2F2F2E2FEF201F84838201312934
:1002F00031010283060830C0000000000000000049
:1003000000000000000000000000000000000000ED
:1003100000000000000000000000000000000000DD
:1003200000000000000000000000000000000000CD
:10033000000000000000F807182040838201181414
:100340001801C22390C8686FC89622C680BFA0BF9C
:1003500080C62692C86F68C89322C3002810280060
:10036000818241201807F800000000000000000012
:10037000000000000000000000000000000000007D
:10038000000000000000000000000000000000006D
:10039000000000000000000000000000000000005D
:1003A0000000007E010000000000000101814121E9
:1003B0001B04091316161309040304070407040396
:1003C00004091316161309041B2141010101000041
:1003D00000000000017E000000000000000000009E
:1003E000000000000000000000000000000000000D
:1003F000000000FCFCFFFF030303030F0F0C0C00C5
:1004000000FCFCFFFFC3C3C3C3FFFFFCFC0000FFF5
:10041000FFFFFF00080808080404020100FFFFFFB7
:10042000FFC3C3C3C3030303030000FFFFFFFF3C7D
:100430003CF0F0FFFFFFFF0000FFFFFFFF030B0B8F
:1004400003FFFFFCFC0000FCFCFFFFC3C3C3C3FFB2
:10045000FFFCFC0000FFFFFFFFC3C3C3C3FFFF3C63
:100460003C03030F0F0C0C0C0C0F0F030300000FC9
:100470000F0F0F000000000F0F0F0F00000F0F0FE6
:100480000F0C0C0C0C0C0C0C0C00000F0F0F0F0CB5
:100490000C0C0C0C0C0C0C00000F0F0F0F000000CC
:1004A000000F0F0F0F00000F0F0F0F0C0C0C0C03A1
:1004B00003030300000F0F0F0F000000000F0F0FCA
:1004C0000F00000F0F0F0F000003030F0F0C0C4164
:1004D00042434445464748492E2C3F21824A4B4CD3
:1004E0004D4E4F5051522A2F3C3E81535455565732
:1004F00058595A204022282901020408102040801F
:10050000080B0002020201000904000001020200BF
:100510000005240010010524010101042402060540
:1005200024060001070581031000400904010002B0
:100530000A00000007050202400000070583024090
:1005400000000403090412010002EF0201404123EC
:10055000368000010102030141726475696E6F20EB
:100560004C4C430041726475696E6F204C656F6E30
:100570006172646F00000000000000373700000067
:1005800000030700030700123F3F123F12242A3FD7
:100590002A3A122333180633311A3F253F3A2807E7
:1005A00003000000001E3F21000000213F1E00004C
:1005B0000014081400000008083E3E08083818001F
:1005C000000000080808080000303000000000307B
:1005D0003C0F0300001E3F29253F1E223F3F200005
:1005E00000223339292F26113125253F1A0F0F08F4
:1005F0003E3E08173725253D191E3F25253D18018C
:1006000001393D07031A3F25253F1A062F29293FA7
:100610001E3636000000003B1B00000000081C36A0
:1006200022000014141414000022361C08000002DA
:1006300003292D07031E212D2B2F163E3F09093FAD
:100640003E3F3F25253F1A1E3F212133123F3F21C8
:10065000211F1E3F3F292921213F3F090901011E7A
:100660003F212919383F3F08083F3F213F3F2100E4
:10067000001021213F1F013F3F0C1E3B313F3F2017
:100680002020203F270E073F3F3F3F060C3F3F1EE5
:100690003F21213F1E3F3F09090F061E3F21113F09
:1006A0002E3F3F09193F26262725253D1D01013FE5
:1006B0003F01011F3F20203F1F0F1F30301F0F3F02
:1006C0003118303F3F21331E1E3321070F08383FBA
:1006D000072131392D27233F3F21000000030F3C24
:1006E000300000213F3F0000000C0603060C000014
:1006F0000000000000030700000000123A2A2E3E0E
:100700001C3F3F22221E1C1C3E222236141C3C226F
:10071000223F3F1C3E2A2A2E0C043E3F05050006C0
:100720000F29292F1E3F3F02023E3C3D3D20000085
:10073000001020203D1D003F3F181C36221F3F2087
:100740001000003E063C063E3E3E3C04063E3C1C7D
:100750003E22223E1C3E3E12121E0C060F09093F8D
:100760003E3E3E040602002C2E2A2A3A1A023F3F41
:100770002200001E3E20203E1E0E1E30301E0E3E69
:10078000301E303E3E22361C1C3622070F28381FF2
:100790000F2232322A2E26081E3F2100003F3F0042
:1007A000000000213F1E080000180C0C18180C084F
:1007B0001C3E08080E04063F3F060408183F3F1879
:1007C000080C1E3F0C0C0C0C0C0C3F1E0C1C0E07D6
:1007D000070E1C0E1C38381C0E0C1E3F3321000067
:1007E00021333F1E0C0C120C1E041A1E2121212144
:1007F0001E162D392E271B000000000000000000EF
:1008000000000000000000000000000000000000E8
:1008100000000000001F001F1E1F1E1F1F1E1F1EA6
:100820001F6162636465666768692B313233826A6F
:100830006B6C6D6E6F7071722D343536807374759C
:10084000767778797A203D3738391C1D11241FBE00
:10085000CFEFDAE0DEBFCDBF11E0A0E0B1E0ECED1C
:10086000F1E402C005900D92A03CB107D9F727E052
:10087000A0ECB1E001C01D92A339B207E1F714E08A
:10088000C6E2D4E004C02197FE010E94DA1EC53200
:10089000D107C9F70E9488130C94EC200C94000037
:1008A00040913A0250913B02209138023091390236
:1008B00042175307B4F49091E8009570E1F39091DA
:1008C000E80092FD19C08093F10080913A02909166
:1008D0003B0201968F739927892B19F48EEF809331
:1008E000E80080913A0290913B02019690933B027E
:1008F00080933A0281E0089580E00895DF92EF92BC
:10090000FF920F931F93CF93DF93D82E8A017B0121
:10091000E40EF51EEB01CE15DF0571F0D7FE03C026
:10092000FE01849101C088810E94500421968111AA
:10093000F2CF8FEF9FEF01C0C801DF91CF911F91E0
:100940000F91FF90EF90DF900895615030F020916B
:10095000F100FC0120830196F8CF289884E680936B
:1009600081070895CF92DF92EF92FF920F931F932A
:10097000CF93DF936C017A018B01C0E0D0E0CE15FC
:10098000DF0589F0D8016D918D01D601ED91FC91C3
:100990000190F081E02DC6010995892B11F47E01AB
:1009A00002C02196ECCFC701DF91CF911F910F912B
:1009B000FF90EF90DF90CF900895CF93DF931F9239
:1009C000CDB7DEB76983DC01ED91FC910280F38144
:1009D000E02D41E050E0BE016F5F7F4F09950F9021
:1009E000DF91CF91089583E08093E9008091F20038
:1009F000882319F08AE38093E8000895FC01848538
:100A0000958597FD0BC09FB7F89482E08093E9002D
:100A10008091F2009FBF90E0019608959FB7F894EF
:100A200082E08093E9008091F2009FBF90E00895FA
:100A30003FB7F8948091340290913502A09136022C
:100A4000B091370226B5A89B05C02F3F19F001963B
:100A5000A11DB11D3FBFBA2FA92F982F8827820F44
:100A6000911DA11DB11DBC01CD0142E0660F771F94
:100A7000881F991F4A95D1F7089585ED8093BC0092
:100A80008091BC0084FDFCCF10920D02089540912E
:100A9000E701262F30E0240F311D21323105DCF42F
:100AA00020910D022430C9F4FC0180E090E086170B
:100AB00058F43091E7012191DC01AB53BE4FA30FF5
:100AC000B11D2C930196F3CF8091E701680F6093DD
:100AD000E70180E0089581E0089582E00895089597
:100AE0008FEF9FEF08958FEF9FEF08958091C401DE
:100AF00090E09195819591090895CF93DF9300D06F
:100B0000CDB7DEB7CB01642F49835A830E944705D6
:100B10004981842F5A81952F0F900F90DF91CF91AB
:100B20000895CF93DF931F92CDB7DEB7698361E05D
:100B3000CE0101960E94470581E090E00F90DF9181
:100B4000CF9108950895089580E090E008950E945F
:100B5000D7200F931F93CF93DF93EC018881998166
:100B6000009729F02A813B812617370788F48B01EB
:100B70006F5F7F4F0E940D20009761F099838883FB
:100B80001B830A832C813D81232B11F4FC011082ED
:100B900081E001C080E0DF91CF911F910F91089516
:100BA000EF92FF920F931F93CF93DF93FC01248169
:100BB00035816115710511F480E019C041155105A9
:100BC000A9F07B01EC018A01020F131FB8010E94FA
:100BD000A905882389F3288139818C819D81B701FA
:100BE000820F931F0E94E5201D830C8381E0DF911B
:100BF000CF911F910F91FF90EF900895CF93DF93C6
:100C0000EC0188819981009711F00E94751F19826B
:100C100018821D821C821B821A82DF91CF91089557
:100C2000EF92FF920F931F93CF93DF938C017B0181
:100C30006115710569F0FB0101900020E9F731971A
:100C4000EF01C61BD70BBE010E94A905811104C08C
:100C5000C8010E94FE0508C0F801D583C483B7010E
:100C6000808191810E94E520C801DF91CF911F9181
:100C70000F91FF90EF9008950F931F93CF93DF9301
:100C80001F92CDB7DEB782E0898342E450E060E096
:100C900075E080E80E947E040E947413DC011296C5
:100CA0000D911C9113970115110569F0D801ED9173
:100CB000FC910280F381E02DBE016F5F7F4FC80180
:100CC000099597FF07C089810F90DF91CF911F9100
:100CD0000F910895F80100851185E5CF0E946313F7
:100CE00090E008950F931F93CF93DF931F92CDB79A
:100CF000DEB78C01FC018485958597FF0EC0CE017F
:100D000001960E943913019719F4298130E002C03D
:100D10002FEF3FEFF80135872487F801848595850B
:100D20000F90DF91CF911F910F910895CF93DF9393
:100D30001F92CDB7DEB7FC018485958597FD05C070
:100D40002FEF3FEF358724870BC0CE0101960E941D
:100D50003913019719F4898190E002C08FEF9FEF5A
:100D60000F90DF91CF910895CF93DF93EC01611540
:100D7000710561F0FB0101900020E9F73197AF01A7
:100D8000461B570B0E94D005811103C0CE010E9463
:100D9000FE05CE01DF91CF910895CF93DF93EC0153
:100DA000FB0144815581608171810E94D0058111D0
:100DB00003C0CE010E94FE05CE01DF91CF910895C0
:100DC000FC01808191810C94751F0F931F93CF9329
:100DD000DF93CDB7DEB761970FB6F894DEBF0FBED5
:100DE000CDBF8C01CB01F8011182108213821282D7
:100DF0001582148250E0BE016F5F7F4F0E94E91D93
:100E0000BE016F5F7F4FC8010E94100661960FB64A
:100E1000F894DEBF0FBECDBFDF91CF911F910F9130
:100E200008950F931F93CF93DF93CDB7DEB76297EB
:100E30000FB6F894DEBF0FBECDBF8C01CB01F80119
:100E400011821082138212821582148250E0BE0138
:100E50006F5F7F4F0E94D31DBE016F5F7F4FC80140
:100E60000E94100662960FB6F894DEBF0FBECDBF8B
:100E7000DF91CF911F910F9108950F931F93CF93FF
:100E8000DF93CDB7DEB729970FB6F894DEBF0FBE5C
:100E9000CDBF8C01862FF80111821082138212823D
:100EA0001582148250E0BE016F5F7F4F90E00E9478
:100EB000E91DBE016F5F7F4FC8010E941006299691
:100EC0000FB6F894DEBF0FBECDBFDF91CF911F915B
:100ED0000F910895EF92FF920F931F93CF93DF939B
:100EE000EC01198218821B821A821D821C826115F4
:100EF000710521F18B01FB0101900020E9F7319789
:100F00007F01E61AF70AB7010E94A905811109C0FD
:100F1000CE01DF91CF911F910F91FF90EF900C9434
:100F2000FE05FD82EC82B80188819981DF91CF9125
:100F30001F910F91FF90EF900C94E520DF91CF91DE
:100F40001F910F91FF90EF9008951F920F920FB68F
:100F50000F9211248F939F938091E1009091E10073
:100F6000937F9093E10083FF0FC01092E90091E01E
:100F70009093EB001092EC0092E39093ED001092AE
:100F8000820798E09093F00082FF20C093E0909356
:100F9000E9009091F200992319F09AE39093E80008
:100FA00090913C02992339F090913C02915090939A
:100FB0003C02992389F190918107992339F090910E
:100FC0008107915090938107992341F184FF10C0CC
:100FD0008091E2008E7E81608093E2008091E1004A
:100FE0008F7E8093E1008091C1018E7E806111C06F
:100FF00080FF16C08091E2008E7E80618093E200C7
:101000008091E1008E7E8093E1008091C1018E7E0F
:1010100081608093C10104C05D9ACDCF289AD6CF5C
:101020009F918F910F900FBE0F901F9018951F9258
:101030000F920FB60F921124CF92DF92EF92FF9290
:101040000F931F932F933F934F935F936F937F93D0
:101050008F939F93AF93BF93EF93FF93CF93DF93C0
:10106000CDB7DEB76C97DEBFCDBF1092E90080919F
:10107000E80083FFEDC168E0CE0145960E94A5041B
:1010800082EF8093E8008D8987FF05C09091E8008A
:1010900090FFFCCF03C09EEF9093E800982F9076CE
:1010A00009F0C6C09E892F89188D91110CC0803817
:1010B00029F48091C2018093F10002C01092F100E6
:1010C0001092F10048C1422F50E0512B913051F461
:1010D000811141C14130510509F03DC18091C201EA
:1010E0008D7F0BC0933061F4811135C141305105C2
:1010F00009F031C18091C20182608093C2012BC18D
:10110000953041F48091E80080FFFCCF2068209367
:10111000E30021C1963009F05FC0EB8CFC8C10928B
:10112000E90010923B0210923A02123091F51092AF
:101130003902109238020E943C0699E0BE016F5FAE
:101140007F4FDB01E92F1D92EA95E9F799831A8316
:1011500091E09E8390EA98879AEF998720913A02CE
:1011600030913B02275F3F4F3C832B838D8310924E
:10117000E90010923B0210923A02F0923902E0929A
:10118000380249E050E080E00E947E040E943C0664
:10119000E2C0F0923902E09238020E947413DC013E
:1011A0001296ED90FC901397E114F10409F4C0C07D
:1011B000D701ED91FC910480F581E02DBE016B5EBD
:1011C0007F4FC7010995009719F00CF0C4C0C7C044
:1011D000F701E084F184E8CF973009F4C0C098307B
:1011E00021F481E08093F100B6C0993009F0B3C0DA
:1011F000837009F0B4C0E4E1F1E081E021E036E37E
:101200009081992361F08093E9002093EB00919104
:101210009093EC003093ED008F5F873089F78EE775
:101220008093EA001092EA008F898093820793C02E
:101230008B8D9C8D1092E90010923B0210923A0225
:101240009093390280933802898D811156C08E891E
:101250009D89913A59F4813209F081C047E050E00C
:1012600065E071E080E00E947E0475C0913209F073
:1012700076C0833289F4888D90E0982F88272F8953
:10128000822BA0E0B0E08093010190930201A09333
:101290000301B09304015FC0803269F48091E800DB
:1012A00082FFFCCF67E085E091E00E94A5048BEF10
:1012B0008093E80006C0823209F04DC08F89809388
:1012C0000C018091C001882319F0EEEFFAE002C012
:1012D000E0E0F8E08091050190910601A0910701FE
:1012E000B0910801803B9440A105B10509F07BC095
:1012F00080910C0180FF93C076C00E947413DC01C2
:1013000012960D911C9113970115110541F1D80109
:10131000ED91FC910190F081E02DBE016B5E7F4F5D
:10132000C8010995811117C0F80100851185ECCF1E
:10133000113009F44EC0133091F48F89882309F4D9
:1013400045C0823081F440E860E184E695E00E9487
:10135000DF1C882321F08EEF8093E80079C081E2C2
:101360008093EB0075C0813029F440E86BE088E59C
:1013700095E0EDCF833099F70E947413DC0112964B
:10138000ED90FC9013978E010F5F1F4F6801E114E1
:10139000F10479F0D701ED91FC910680F781E02D01
:1013A000B801C7010995080F111DF701E084F18408
:1013B000EECFD8011C92F60101900020E9F7319799
:1013C000BF016C197D0940E0C601C1CF62E475E040
:1013D00002C066E475E06115710509F2FB014491F4
:1013E00050E080E840CF0FB6F894A8958091600057
:1013F000886180936000109260000FBEA895EE3F58
:101400002AE0F20739F08091FE0A9091FF0A918359
:101410008083A1CF1092FF0A1092FE0A9CCFEE3F6C
:101420008AE0F80731F0808191819093FF0A8093E0
:10143000FE0A87E797E7918380839BE088E10FB6F8
:10144000F894A895809360000FBE9093600083CFBE
:101450006C960FB6F894DEBF0FBECDBFDF91CF9173
:10146000FF91EF91BF91AF919F918F917F916F917C
:101470005F914F913F912F911F910F91FF90EF90AE
:10148000DF90CF900F900FBE0F901F9018958F9206
:101490009F92AF92BF92CF92DF92EF92FF926B0139
:1014A0007C010E9418054B015C01C114D104E104C8
:1014B000F104F1F00E941805DC01CB0188199909AB
:1014C000AA09BB09883E9340A105B10570F321E04C
:1014D000C21AD108E108F10888EE880E83E0981E50
:1014E000A11CB11CC114D104E104F10419F7DDCF32
:1014F000FF90EF90DF90CF90BF90AF909F908F9034
:1015000008958F929F92AF92BF92CF92DF92EF9207
:10151000FF920F931F93CF93DF935C016B017A01CE
:1015200080910C01882309F45BC080918207882395
:1015300009F456C08091C10180FF05C08091E00090
:1015400082608093E000E70110E00AEF83E0882EDC
:101550009AE3992E2097D9F10E94631381110AC052
:10156000015009F43DC061E070E080E090E00E942D
:10157000470AF0CF282F30E0C217D3070CF48C2F86
:101580004FB7F8948092E9009091E80095FF1DC054
:10159000282F30E0C21BD30BF601982F915020F07A
:1015A00081918093F100FACFC20ED31E112319F05E
:1015B0009092E80009C08091E80085FD06C09092F5
:1015C000E80011E0209709F010E04FBFC3CF1111E0
:1015D000C3CF5D9884E680933C021E141F0444F040
:1015E00081E090E0F5019383828380E090E001C088
:1015F000C701DF91CF911F910F91FF90EF90DF9086
:10160000CF90BF90AF909F908F9008951F920F92B0
:101610000FB60F9211242F933F938F939F93AF9305
:10162000BF938091D0069091D106A091D206B0913F
:10163000D3063091330223E0230F2D3720F4019697
:10164000A11DB11D05C026E8230F0296A11DB11DE5
:10165000209333028093D0069093D106A093D206B4
:10166000B093D3068091340290913502A091360256
:10167000B09137020196A11DB11D80933402909361
:101680003502A0933602B0933702BF91AF919F917C
:101690008F913F912F910F900FBE0F901F90189533
:1016A0001F920F920FB60F9211242F933F934F93D7
:1016B0005F936F937F938F939F93AF93BF93EF93BA
:1016C000FF938091B900887F803609F49CC068F54B
:1016D000883209F45BC090F4803109F454C038F4C6
:1016E000882309F4F6C0883009F44DC0F6C088316B
:1016F00009F44CC0803209F45DC0EFC0803409F4B5
:1017000068C048F4803309F455C0883309F0E5C057
:1017100080930C02D8C0803509F44FC0883509F495
:101720005DC0883409F0D9C0D6C0883909F4C7C073
:10173000A8F4883709F467C038F4883609F463C020
:10174000803709F460C0C9C0883809F4B8C080394E
:1017500009F45FC0803809F0C0C05BC0803B09F469
:1017600086C038F4803A09F466C0883A09F47FC02C
:10177000B4C0803C09F4A7C0883C09F4A4C0883BED
:1017800009F48AC0AAC08091320210C0909131023F
:1017900080913002981770F5E091310281E08E0F50
:1017A00080933102F0E0E05FFD4F80818093BB00C9
:1017B00085EC86C080930C028EC0E091310281E0FE
:1017C0008E0F809331028091BB00F0E0E05FFD4F0F
:1017D000808390913102809130026EC0E09131029D
:1017E00081E08E0F809331028091BB00F0E0E05FDA
:1017F000FD4F808380910F0281116DC081E0809345
:101800000E0284EA61C083E080930D0210920B0205
:10181000CFCF80910B02803208F051C0E0910B02D3
:1018200081E08E0F80930B028091BB00F0E0E551C8
:10183000FE4F8083BDCF85EC8093BC0010920D02DB
:1018400080910B02803230F4E0910B02F0E0E55120
:10185000FE4F108260910B0270E0E091E901F0917F
:10186000EA018BEE91E0099510920B0236C084E0FC
:1018700080930D021092E8011092E701E091E501DA
:10188000F091E60109958091E701811105C081E0A1
:101890008093E7011092C501E091E80181E08E0F8D
:1018A0008093E801F0E0EB53FE4F80818093BB0012
:1018B0009091E8018091E701981708F479CF85E8C5
:1018C0008093BC000AC085EC8093BC0010920D028E
:1018D00004C010920C020E943D05FF91EF91BF9150
:1018E000AF919F918F917F916F915F914F913F91B8
:1018F0002F910F900FBE0F901F9018952D9A08955D
:10190000BC0180E090E00C94470A8FB18095807F05
:10191000669B88601C9B8460089560387105D0F4D4
:1019200040345105B8F4E8EFF4E080E1849FD00141
:10193000A0781124A60F4770E40FF11D8491A35CD9
:10194000BD4F222319F06C91862B03C080956C91BA
:1019500086238C930895982F9F7D99F0805280372D
:1019600008F08FE396E0899FF0011124E658FA4FC2
:1019700086E09491911106C0815031978111F9CF81
:10198000089586E008950C941E1EFC017383628303
:10199000808191816817790741F08617970714F4C1
:1019A000019601C001979183808357834683848188
:1019B00095814817590741F08417950714F401964B
:1019C00001C00197958384830895EF92FF920F934E
:1019D0001F93CF93DF931F92CDB7DEB77C01FC013D
:1019E00000811181C80169830E941E1E69816817E8
:1019F00019F0C8010E94261EC7010F90DF91CF91F8
:101A00001F910F91FF90EF9008950F931F93CF9325
:101A1000DF93209148063091440680914B069091C7
:101A20004C06831B910941EB56E0FA01815B96401D
:101A300061E03E2F341B321790F4EC01CE0FDF1F14
:101A40001082ADE4B6E00D911D910C171D0709F44D
:101A5000608336E0A13BB307B1F73196EACFDF915F
:101A6000CF911F910F9108954091460650914706DE
:101A70009A01205D37406DE671E0269FC001279FE7
:101A8000900D369F900D112437FF02C02D5F3F4F00
:101A90003595279535952795820F931F9A012370C9
:101AA0003327509145062115310511F4523008F0C5
:101AB000019665E178E0FB014E2F461B451770F457
:101AC000413029F42115310521F04CE103C0449146
:101AD00001C04DE1840F911D3196EECF2091440657
:101AE000820F911D90934C0680934B060895E091D0
:101AF000D806F091D9060280F381E02D42E050E053
:101B000062E671E088ED96E009948F929F92AF9221
:101B1000BF92CF92DF92EF92FF920F93CF93DF931A
:101B20006B01EC014C01840E911C5B01A20EB11CF7
:101B3000C815D905ECF47601D7FE10C0E12CF12CC4
:101B40000DC0E816F90694F4202FA701BE018AE61D
:101B500097E00E948D0C2FEFE21AF20AC50121E4F2
:101B6000A216B10474F380E490E0EBCF2196E0CFAD
:101B7000DF91CF910F91FF90EF90DF90CF90BF90CA
:101B8000AF909F908F900895811102C080E00895DA
:101B90008FB7F8944091D0065091D1066091D2064B
:101BA0007091D3068FBF8091D4069091D506A091F5
:101BB000D606B091D706481759076A077B0730F356
:101BC0002FB7F8948091D0069091D106A091D206BB
:101BD000B091D3062FBF88539F4FAF4FBF4F809315
:101BE000D4069093D506A093D606B093D70681E08D
:101BF0000895CF93DF93E091D806F091D906DC01E8
:101C000014964D915C9115976D917C910280F381B2
:101C1000E02D88ED96E00995EC010E94770D8C0F80
:101C20009D1FDF91CF9108954F925F926F927F92A7
:101C30008F929F92AF92BF92CF92DF92EF92FF92DC
:101C40000F931F93CF93DF93CDB7DEB762970FB695
:101C5000F894DEBF0FBECDBFE091D806F091D90653
:101C60000280F381E02D4BE050E065E671E088ED05
:101C700096E009950E94770D3DE4E32E36E0F32EC1
:101C80004701612C712C10E086E590E09C01285200
:101C90003740590183E597E002E1080FF4012191F3
:101CA00031914F0180914B0690914C0628173907CE
:101CB00009F04AC04AE0612FCE0101960E943D071B
:101CC00060914B0670914C064AE0CE0107960E9447
:101CD000E50661E771E0CE010D960E946A07BE013C
:101CE000695F7F4FCE010D960E94CD066BE771E0D4
:101CF0000E94B406BE016F5F7F4F0E94CD060E9416
:101D0000F90DCE010D960E94E006CE0107960E94C5
:101D1000E006CE0101960E94E00623E5C22E27E0F0
:101D2000D22E2501460C571CF60161916F01C201AC
:101D30008E0F9F1F9A838983CE0101960E94E50C26
:101D40000C11F2CF81E001C080E01F5F123309F473
:101D500044C0F2E16F0E711C882309F49FCF0E94EA
:101D6000050D6091440680E190E09A838983CE015D
:101D700001960E94E50C6091450681E190E09A830E
:101D80008983CE0101960E94E50C60914606605D54
:101D900082E190E09A838983CE0101960E94E50C4E
:101DA00083E090E0909343068093420662960FB6DC
:101DB000F894DEBF0FBECDBFDF91CF911F910F9181
:101DC000FF90EF90DF90CF90BF90AF909F908F905B
:101DD0007F906F905F904F9008958111C0CF0EE17A
:101DE00010E0812C912C712C86E590E09C0128520A
:101DF0003740590183E597E092E1692E680EF701BB
:101E000080819181892B09F063C04AE0672DCE0162
:101E100001960E943D0760914B0670914C064AE086
:101E2000CE0107960E94E50661E771E0CE010D96AE
:101E30000E946A07BE01695F7F4FCE010D960E9426
:101E4000CD0666E971E00E94B406BE016F5F7F4F68
:101E50000E94CD060E94F90DCE010D960E94E0066B
:101E6000CE0107960E94E006CE0101960E94E00690
:101E700080914B0690914C068F839887F701808361
:101E80009183682F1A830983CE0101960E94E50C85
:101E90006885C80101969A838983CE0101960E94C4
:101EA000E50C83E5C82E87E0D82E2501480C591C87
:101EB000F60161916F01C2018E0F9F1F9A83898382
:101EC000CE0101960E94E50C6C10F2CF81E001C0BA
:101ED00080E073940038110509F441CFF2E0EF0E71
:101EE000F11C22E1820E911C0E5F1F4F882309F422
:101EF00086CF35CF20917007282329F490916F0762
:101F0000982381E009F480E008950E94340D8091C7
:101F10004B0690914C06059620914406821B910930
:101F200067E070E00E94C61E80934906E091450676
:101F3000E13051F420914606309147062370332753
:101F4000232B39F0ECE106C0F0E0EB5EF74FE491B3
:101F500001C0EDE1E0934806EE3110F485E005C0E4
:101F6000EE3139F40697D1F786E080934A060C9457
:101F7000050D8550823090F7F7CF809144069091FF
:101F80004806891728F48F5F809344060C94340D1B
:101F900081E080934406809145068A3020F48F5F6B
:101FA000809345060BC0109245068091460690919D
:101FB0004706019690934706809346060C94850F3A
:101FC00080914406823028F08150809344060C941E
:101FD000340D80914506882321F081508093450679
:101FE00010C08BE08093450680914606909147068D
:101FF000813D27E0920728F0019790934706809350
:1020000046060E94850F80914806809344060895F5
:10201000EF92FF920F931F93CF93DF93CDB7DEB76D
:1020200068970FB6F894DEBF0FBECDBF082F162FEE
:102030007A014AE0B701CE0101960E941107612F93
:10204000012E000C770B4AE0CE0107960E94110783
:10205000602F002E000C770B4AE0CE010D960E94F7
:1020600011076DEA71E0CE0143960E946A07BE0136
:10207000635F7F4FCE0143960E94CD066DEB71E00A
:102080000E94B406BE01695F7F4F0E94CD066DEBD2
:1020900071E00E94B406BE016F5F7F4F0E94CD06C3
:1020A0000E94F90DCE0143960E94E006CE010D96E6
:1020B0000E94E006CE0107960E94E006CE0101963E
:1020C0000E94E0061F3F21F48BE08093450607C085
:1020D0001C3019F41092450602C01093450680ED9D
:1020E000E81687E0F8063CF480ED97E09093470609
:1020F0008093460604C0F0924706E092460600939D
:1021000044060E94850F80914806909144068917E5
:1021100010F48093440668960FB6F894DEBF0FBEA5
:10212000CDBFDF91CF911F910F91FF90EF90089558
:102130005F926F927F928F929F92AF92BF92CF9257
:10214000DF92EF92FF920F931F93CF93DF93209133
:102150003D0630913E062A5F3F4F2738310508F093
:10216000BFC020913F0630914006A901495F5F4FF3
:102170004834510508F0B4C0873609F4A8C0982F38
:10218000977F913709F4A3C0612CC82F0E94AB0C34
:102190007090410690EE9C0F903708F09FE360919D
:1021A0003F0670914006C0913D06D0913E069B01CE
:1021B000285F3F4F482F50E02934310550F066200A
:1021C00009F47CC0615071097093400660933F062A
:1021D00075C09E01240F351F37FDF1CFC138D105E1
:1021E00074F77B0187E0E822FF244B0177FF03C0EF
:1021F000A7E08A0E911C83E0959487948A95E1F775
:102200009694982C882497948794F6E09F9F500189
:102210001124CE01AC1ABD0A08E010E00E191F0906
:102220009C012C1B3D0B2417350748F6F501E80FE0
:10223000F91FEB58FA4FE4919C01280D391D211527
:10224000A4E03A07C8F580389105B0F5D901A35C40
:10225000BD4FF0E077FD21C071100AC06F010E2C58
:1022600001C0CC0C0A94EAF7C094DC90CD2008C0E1
:102270005C906F010E2C01C0CC0C0A94EAF7C528C3
:10228000CC92E114F104C1F02038A3E03A07A4F4A1
:1022900020583F4FD901A35CBD4F002E02C0F595D9
:1022A000E7950A94E2F7711004C0E0952C91E223BF
:1022B00002C02C91E22BEC930196B2CF4F5F5F4F9F
:1022C000C40FD51FD0933E06C0933D0609C02F5FB3
:1022D0003F4F3093400620933F066624639455CFCA
:1022E000DF91CF911F910F91FF90EF90DF90CF90F2
:1022F000BF90AF909F908F907F906F905F90089568
:10230000CF92DF92EF92FF920F931F93CF93DF93C1
:102310006C01649F70011124C42FD0E000E010E034
:102320000C171D0769F0F801EE0DFF1DEC0DFD1DEA
:1023300084910F5F1F4F882319F00E949810F0CFEF
:10234000DF91CF911F910F91FF90EF90DF90CF9091
:1023500008954F925F926F927F928F929F92AF9269
:10236000BF92CF92DF92EF92FF920F931F93CF9382
:10237000DF934B015C0197FF08C0B094A094909448
:102380008094811C911CA11CB11C2401350110E01A
:10239000C12CD12C7601C394411451046104710401
:1023A000C1F01F5FC301B2012AE030E040E050E01D
:1023B0000E94341E29013A01232B242B252B61F383
:1023C000AAE0B0E0A70196010E94531E6B017C01B8
:1023D000E3CF00E0CAE0D0E08AE0482E512C612C27
:1023E000712C0117B9F0C501B401A70196010E9433
:1023F000341EC901BE010E94C61E805D0E94981055
:10240000C701B601A30192010E94341E69017A013D
:102410000F5FE7CFDF91CF911F910F91FF90EF906A
:10242000DF90CF90BF90AF909F908F907F906F90F4
:102430005F904F9008951F93CF93DF93EC01FE01BF
:102440001491812F0E94981021961111F8CFDF91DD
:10245000CF911F9108952F923F924F925F926F926A
:102460007F928F929F92AF92BF92CF92DF92EF9224
:10247000FF920F931F93CF93DF93CDB7DEB72897CB
:102480000FB6F894DEBF0FBECDBF5A01822E912C3D
:102490009C01280D391D37FDC4C0803891050CF012
:1024A000C0C09B01200F311D37FDBBC060347105DA
:1024B0000CF0B7C0AB0177FF04C044275527461B7B
:1024C000570B477055279B0177FF02C0295F3F4F8D
:1024D000E3E035952795EA95E1F777FF08C02150AD
:1024E000310968E070E0DB01A41BB50BAD01602F82
:1024F00066956695669570E0077011F06F5F7F4F87
:10250000DB01A20FB31FBA83A98339017694762C1D
:10251000662477946794680E791EE12CF12C00E014
:1025200010E02301B0E84B0E511C68E070E0DB01C5
:10253000A41BB50BBC83AB8369817A81261737074F
:1025400009F46FC02830310509F46BC02F3FBFEF8D
:102550003B070CF45BC0B201600F711FDB01A35C91
:10256000BD4FBE83AD83D801A60DB71DA35CBD4F83
:102570006C0160E070E0681579050CF047C0E0E898
:10258000CE16D10409F442C0D7FC34C02F3FFFEF70
:102590003F0709F442C0FB01EE0DFF1DEA0DFB1DD4
:1025A000E491042E01C0EE0F0A94EAF73C90E3296F
:1025B000EC9341155105F1F027303105D9F0FB01BD
:1025C000EE0DFF1DEA0DFB1DE4912E2E312CF101C5
:1025D0000B8002C0F595E7950A94E2F7F887EF8340
:1025E000ED81FE813080EF81F885E3291F01ED81C7
:1025F000FE8120826F5F7F4FED81FE813196FE83E9
:10260000ED83FFEFCF1ADF0A1196B5CF2F5F3F4F53
:1026100000581F4FE80CF91C8FCF4115510579F672
:10262000E9CF28960FB6F894DEBF0FBECDBFDF917D
:10263000CF911F910F91FF90EF90DF90CF90BF90BF
:10264000AF909F908F907F906F905F904F903F9052
:102650002F900895EDE3F2E0A0E0B8E000800EBC1A
:102660008111012C1197A0FDFDCF0192B9F70DB496
:102670000895FC0180918207811103C08FEF9FEFC5
:1026800008959FB7F89482E08093E9002091F200CA
:1026900030E01216130614F421E030E02115310564
:1026A00059F0289884E6809381078091F100808317
:1026B0008091F200882319F09FBFC90108958BE62D
:1026C0008093E800F9CF2FB7F89483E08093E90076
:1026D0009091E800892F807295FF04C09091F200DC
:1026E00080E4891B2FBF08958091870781110DC059
:1026F00082E08093830784E08093840710928607AA
:102700001092850781E08093870783E897E008951A
:10271000CF93DF93CDB7DEB76A970FB6F894DEBFDD
:102720000FBECDBF789484B5826084BD84B58160CE
:1027300084BD85B5826085BD85B5816085BD80918C
:102740006E00816080936E00109281008091810004
:1027500082608093810080918100816080938100FC
:1027600080918000816080938000809191008260E0
:10277000809391008091910081608093910080917D
:1027800090008160809390008091C100846080936C
:10279000C1008091C10082608093C1008091C1001E
:1027A00081608093C1008091C30081608093C300E9
:1027B0008091C00082608093C0008091C2008160DF
:1027C0008093C20080917A00846080937A00809127
:1027D0007A00826080937A0080917A008160809391
:1027E0007A0080917A00806880937A001092820744
:1027F0001092C2011092C1018091D7008160809334
:10280000D70080EA8093D80089B5806189BD89B5F9
:10281000826089BD09B400FEFDCF61E070E080E018
:1028200090E00E94470A8091D8008F7C806180935D
:10283000D8008091E000807F8093E0008091E100EB
:102840008E7E8093E1008DE08093E200559A209A7D
:10285000EEEFFFE7859194918B3F9C4D19F481E059
:102860008093C0018FEF9FEF9093E5068093E4067D
:1028700064E670E080E090E00E94470A80E1809387
:10288000710781EC80937C0085B1806F85B984B13C
:10289000877E84B984B1876E84B95E9A5F988AB165
:1028A000806D8AB9769A6E9881B3806F81BB899862
:1028B00080B38D7080BB80E58CBD81E08DBD85E0EF
:1028C00090E00E94800C5F9A85E090E00E94800C6E
:1028D0005E985C98ECE5F1E08DE08E0F94919EBDE2
:1028E00000000DB407FEFDCF31968E13F7CF5C9A32
:1028F00081E8809364008091650081608093650029
:1029000080E00E942A130E94850C87FF16C05C9805
:1029100085EA8EBD00000DB407FEFDCF8EB55C9A32
:102920002E982F982D988091640080628093640087
:1029300081E083BF889513BEFCCF02E010E00E94C7
:10294000850C82FF42C02D980E94850C84788438C3
:10295000C9F00E94850C8471843191F50E947E0C2F
:1029600088EC90E00E94800C2E981A83098360E026
:10297000CE0101960E94E50C84EF91E00E94800C4C
:102980002E9A19C00E947E0C88EC90E00E94800C68
:102990002F981A8309836FEFCE0101960E94E50CF0
:1029A00084EF91E00E94800C2F9A0E94850C84781D
:1029B0008438D9F3CECF0E94850C84718431D9F349
:1029C00088EC90E00E94800CBACF0E947E0C82E0DE
:1029D00090E00E941E1E882329F03E9A3F9A81E0D3
:1029E0008093C30181E090E00E941E1E82FB1127AC
:1029F00010F981E090E00E941E1E81FF3AC0111183
:102A00002E98B0EFEB2EFF24FA940E94850C86FFDF
:102A100004C02E9A2F9A2D9A2CC0112331F034E045
:102A2000E316F10411F42E9A2F9881E00E942A13E4
:102A300000E128E54CEA50E0B70184E190E00E9413
:102A40002B1280E00E942A138FE090E00E94800CFD
:102A50008FEFE81AF80A99E1E916F104B1F61123AB
:102A600011F02F9A2D9880E991E00E94800C0E942D
:102A70007E0C82E390E00E94800C0E94850C811104
:102A8000F8CF81E08093000103E110E0C8010E94CB
:102A9000C30CF801EA5AFE4FE4918E131092000124
:102AA0000F5F1F4F0E31110589F7809100018823B8
:102AB000E9F080910001882309F43FC080E190E0B3
:102AC0000E94C30C8093440681E190E00E94C30CF5
:102AD0008093450682E190E00E94C30C90E0805311
:102AE000984F90934706809346062DC0A0E1EA2EAA
:102AF000F12CFA82E98260E0CE0101960E94E50C99
:102B0000EFEFEE1AFE0AF0E1EF16F4E0FF0689F7A8
:102B1000F3E1EF2EF12CF701EA5AFE4F6491FA82AD
:102B2000E982CE0101960E94E50C2FEFE21AF20A2B
:102B30003EE1E316F10479F7BCCF43EE57E06AE0DB
:102B400081E00E9408101092430610924206EDE4C4
:102B5000EE2EE6E0FE2EC8010E941E1E8983C801EB
:102B600001960E941E1E8A8389819A81F7018193B2
:102B700091937F010E5F1F4F0238110561F780911D
:102B80000001811138C081E48093530782E780936C
:102B9000540784E68093550785E78093560782E6BD
:102BA000809357078FE68093580789E780935907EA
:102BB00080E280935A0797E490935B0721E6209385
:102BC0005C079DE690935D0735E630935E07809342
:102BD0005F073AE4309360072093610790936207A0
:102BE0008093630784E3809364070E94140E10921D
:102BF0004306109242060E94850F87E590E09C01F3
:102C000028523740388F2F8B8FB7F8944091D006D9
:102C10005091D1066091D2067091D3068FBF8091FA
:102C20007207942F981B80917307882329F0909343
:102C3000740710927307B4C620917107921748F475
:102C40009F5F921708F0ACC681E083BF889513BEE2
:102C5000A7C611E0109373074093720720916D0788
:102C600030916E072F5F3F4F30936E0720936D07B3
:102C7000EDE3F2E081118FEF002481938193819342
:102C800081930394D1F780916F07809370070E941E
:102C9000850C80936F0780914206909143068230A5
:102CA000910509F403C12CF4009759F0019791F0B4
:102CB000EDC28330910509F4A2C1049709F4CBC198
:102CC000E5C288E00E947A0F882309F4DFC281E020
:102CD00090E0E7C020913C0730913D0780913E078E
:102CE00090913F072817390771F5109341060E940C
:102CF000850C85FF03C081E590E002C082E590E08D
:102D000090933E0680933D068BE090E090934006C2
:102D100080933F0686E80E9498100E94850C86FFEB
:102D200003C089E790E002C088E790E090933E06F8
:102D300080933D068BE090E09093400680933F06A1
:102D400087E80E94981020913407309135078091D0
:102D500036079091370728173907D9F581E0809316
:102D600041060E94850C87FF09C08CE190E090939A
:102D70003E0680933D0683E090E008C08CE190E041
:102D800090933E0680933D0684E090E09093400649
:102D900080933F0684E80E9498100E94850C84FF6F
:102DA00009C08CE190E090933E0680933D0682E15D
:102DB00090E008C08CE190E090933E0680933D0641
:102DC00083E190E09093400680933F0685E80E945F
:102DD00098100E94850C91E084FF90E0892F0E945A
:102DE000C40D882359F040914606509147066091E2
:102DF00045066F5F809144060E9408100E94850C72
:102E0000982F991F9927991F892F0E94C40D8823F5
:102E100059F0409146065091470660914506615031
:102E2000809144060E9408100E94850C91E086FF64
:102E300090E0892F0E94C40D882361F040914606DE
:102E4000509147064F5F5F4F609145068091440661
:102E50000E9408100E94850C91E085FF90E0892F68
:102E60000E94C40D882361F04091460650914706A8
:102E70004150510960914506809144060E94081016
:102E800084E00E947A0F882321F01092430610926A
:102E9000420688E00E947A0F882309F4F7C182E095
:102EA00090E09093430680934206F0C180E20E9436
:102EB0007A0F81110E94E00F80E40E947A0F811145
:102EC0000E94BD0F80E80E947A0F811106C080E148
:102ED0000E947A0F811107C00BC017E00E94E00F1B
:102EE0001150E1F7F4CF17E00E94BD0F1150E1F748
:102EF00084E00E947A0F882331F081E090E0909383
:102F000043068093420688E00E947A0F882309F4E2
:102F1000BDC183E090E090934306809342067DE438
:102F2000C72E76E0D72EE12CF12C80E010E023E5CF
:102F300037E002E1020FF601419151916F012091BA
:102F40004B0630914C064217530709F046C04AE041
:102F5000612FCE010D960E943D0760914B06709146
:102F60004C064AE0CE0107960E94E50664E471E053
:102F7000CE0101960E946A07BE01695F7F4FCE01B4
:102F800001960E94CD0660E571E00E94B406BE0184
:102F9000635F7F4F0E94CD060E94F90DCE0101961E
:102FA0000E94E006CE0107960E94E006CE010D9633
:102FB0000E94E00663E5862E67E0962EAF88B88C07
:102FC000AE0CBF1CC501880D991D0E94C30CF401F5
:102FD00081934F010E13F6CF81E01F5FF2E1EF0EF8
:102FE000F11C123309F0A7CF811150C1E3E5F7E0DE
:102FF00090E282E18E0F91938E13FDCF47C184E062
:103000000E947A0F8111D4C480E80E947A0F811146
:10301000CFC480E10E947A0F8111CAC480E20E946D
:103020007A0F8111C5C480E40E947A0F8111C0C457
:1030300088E00E947A0F882309F428C184E090E098
:1030400090934306809342061092520710925007C5
:10305000109251071BC184E00E947A0F882331F03F
:1030600083E090E0909343068093420688E00E94BC
:103070007A0F882309F487C080916707882309F4B1
:103080007CC0E091500780915107ED3009F044C0B9
:10309000811123C09091690780915207992339F0DB
:1030A000E82FF0E0ED5CF84F90E290A311C0982F6C
:1030B000882309F468C0923140F4E92FF0E0E85D1C
:1030C000F84F23A522A79F5FF6CF90E29093640765
:1030D000882309F458C081504DC0813089F4809113
:1030E0006507909166078152984019F48FEC94E03F
:1030F00002C081E298E0909366078093650743C021
:10310000823039F49091680781E0892780936807BD
:103110003AC00E94140E37C0F0E03EE0839FE00DFD
:10312000F11D11248091650790916607E80FF91F42
:10313000449180916907882361F080915207A82FFC
:10314000B0E0AD5CB84F90964C938131E0F48F5F66
:1031500011C090915207A4E6B7E080E18A1B282FA6
:103160002A0F921750F79D0122503109F901208151
:103170002E93F5CF8093520706C09091690781E0A6
:103180008927809369070E94850C91E084FF90E075
:10319000892F0E94C40D8823A1F08091670788239E
:1031A00069F080915107833060F48F5F80935107FD
:1031B000833039F48DE08093500703C081E0809321
:1031C00067070E94850C982F991F9927991F892FAF
:1031D0000E94C40D882399F080916707882379F0B5
:1031E00080915107882349F0833019F49DE0909332
:1031F000500781508093510702C0109267070E94C8
:10320000850C91E086FF90E0892F0E94C40D8823F1
:10321000D1F080916707882379F08091510783303E
:1032200091F0809150078D3020F48F5F809350078C
:103230000AC01092500707C080915207813118F4DC
:103240008F5F809352070E94850C91E085FF90E08C
:10325000892F0E94C40D8823C9F0809167078823B5
:1032600071F080915107833089F080915007882355
:1032700011F0815001C08DE08093500707C080910C
:103280005207882319F0815080935207809142069B
:1032900090914306892B19F440E050E002C04EECB7
:1032A0005FEF69E070E088E297E00E94C50C6091F2
:1032B0002C0770912D070CE22EE64BE352E0809133
:1032C0002807909129070E942B1280914206909125
:1032D0004306009729F442E350E063E170E011C037
:1032E0008130910529F44BE050E06EE070E009C0B8
:1032F000029719F440E050E002C046EF5FEF63E050
:1033000070E088E397E00E94C50C81E0809341065D
:1033100080913C0790913D07209138073091390703
:1033200030933E0620933D069093400680933F06DF
:1033300049E0609145068FEC91E00E9480118091F8
:10334000420690914306009729F442E350E063E57A
:1033500070E011C08130910529F44BE050E06BE53D
:1033600070E009C0029719F440E050E002C046EF57
:103370005FEF63E670E080E397E00E94C50C81E0B8
:103380008093410680913407909135072091300752
:103390003091310730933E0620933D0690934006CE
:1033A00080933F06609146067091470680E090E06A
:1033B0000E94A9118091420690914306009719F44A
:1033C00040E450E013C08130910519F44CE150E025
:1033D0000DC08230910519F448E050E007C0039712
:1033E00019F440EF5FEF02C040EC5FEF60E070E087
:1033F00080E497E00E94C50C81E08093410653E091
:10340000E52EF12C10E0809144079091450701963C
:10341000F0923E06E0923D069093400680933F0670
:10342000111103C08CEC91E01BC0113019F489EC30
:1034300091E016C0123019F486EC91E011C01330FF
:1034400019F483EC91E00CC0143019F480EC91E095
:1034500007C0153019F48DEB91E002C08AEB91E0C2
:103460000E941B121F5FF2E1EF0EF11C173059F69C
:10347000E09049063090480680914A06863018F060
:1034800038E019E002C039E01AE01092410660917C
:10349000440770914507685F7F4F01E020E340E8F3
:1034A00080E090E0398F0E94850DA12CB12C398DE0
:1034B000832F90E09E8B8D8BC12ED12C22242394C0
:1034C00080914A0690E0A816B9060CF0B5C04E2CC3
:1034D000512CED89FE89AE9E4001AF9E900CBE9EA0
:1034E000900C1124F2E1EF9E70011124F7E04F16C9
:1034F00051040CF09CC0332009F499C03A94109107
:1035000048061319812F90E000E03C016AE070E06A
:103510000E94C61E805D698F7A8F0E94AB0C90E07E
:103520009C01200F311D698D862F7A8D972F009772
:1035300019F001E0020FEACF8EE090E0821B9109C2
:1035400097FD01969C01359527953C8B2B8B80919F
:103550004406181313C020924106609144077091ED
:1035600045076C0D7D1D61507109680D791D00E0E6
:1035700028E041E1C70101960E94850DF301EF5457
:10358000F94F8081882351F131E08091440618136E
:1035900030E060914407709145076C0D7D1D6150CE
:1035A0007109680D791D032F22E042E0370180E1A7
:1035B000680E711CC301398F0E94850D398D21E081
:1035C000232740914407509145074C0D5D1D480D40
:1035D000591DB3018AE697E00E948D0C8091440743
:1035E000909145078C0D9D1D880D991D2B893C8957
:1035F0002D5F3F4F2E0D3F1D30933E0620933D061D
:103600009093400680933F06612F70E080E090E049
:103610000E94A91180914406181302C0109241061D
:103620009FEF491A590AE2E1EE0EF11C5FCF2FEF2E
:10363000A21AB20AE12C44CF80914206909143062F
:103640008330910519F44AE250E007C0049719F459
:1036500040E050E002C042E450E060E070E088E406
:1036600097E00E94C50C60914C0770914D076A5E0F
:103670007F4F01E02CE240E880E090E00E94850D61
:1036800081E08093410680914C0790914D0702960E
:103690002091480730914907265F3F4F30933E06FF
:1036A00020933D069093400680933F066091440628
:1036B00070E080E090E00E94A91188EB91E00E9408
:1036C0001B1249E0609145068FEC91E00E94801149
:1036D00080E20E949810609146067091470680E053
:1036E00090E00E94A9118AE30E94981080916D07D2
:1036F00080FF34C08091420690914306049771F593
:1037000023E5E22E27E0F22E10E000E0F7018191A0
:103710007F010E94AB0C90915207901741F0E12F6E
:10372000E80F11E01E0F0F5F023181F780E09091EA
:10373000690760914C0770914D07E12FF0E0645FDD
:103740007F4F01E028E0992321F0482FCF01039615
:1037500003C041E0CF0102960E94850D81E0809375
:10376000410680914C0790914D070D9623E030E083
:1037700030933E0620933D069093400680933F068B
:103780008091420690914306039769F4E0914406C4
:10379000F0E0EF54F94F8081811105C084EA91E097
:1037A0000E941B120CC003E517E092E1F92EF00E07
:1037B000F80181918F010E949810F012F9CF1092B8
:1037C000410610E0A12CB12C812C912C772473940C
:1037D00083E0C82ED12CE12CF12C8091500790E091
:1037E000E816F906D9F48091510790E088169906F9
:1037F000A9F480916707882389F07092410660914F
:103800004C0770914D07655E7F4F6A0D7B1D00E090
:1038100028E04AE0C60102970E94850D80914C077E
:1038200090914D074C968A0D9B1DD0923E06C092FA
:103830003D069093400680933F0641E0612F6E0D58
:1038400080916507909166070E9480112091500732
:10385000822F90E0E816F90641F48091510790E03C
:103860008816990611F410924106FFEFEF1AFF0A2D
:1038700039E0C30ED11C8EE0E816F10409F0ADCF9B
:103880009FEF891A990AE9E0AE0EB11C125F1A3255
:1038900009F09ECF80914C0790914D078E9648E796
:1038A00050E050933E0640933D069093400680932F
:1038B0003F062D3041F480915107823021F481E0A0
:1038C0008093410602C010924106809168078823C8
:1038D00011F08AE801C089E80E94981060914C07B5
:1038E00070914D0788E790E090933E0680933D06E7
:1038F000CB01C7969093400680933F068091510775
:10390000833089F480916707882349F06A5C7F4F90
:1039100000E028E04AE086E790E00E94850D81E023
:103920008093410602C01092410688E80E949810D8
:1039300080914C0790914D07C99623E030E0309379
:103940003E0620933D069093400680933F061092DA
:103950004106809150078D3001F58091510781110A
:1039600003C08DE991E017C0813019F485E791E03B
:1039700012C0823071F484E991E00E941B128091A0
:103980006807882319F081E991E005C08DE891E08E
:1039900002C081E891E00E941B1280E00E942A137D
:1039A00080E090E0892B09F42FC90E9400002CC907
:1039B00082E090E0909343068093420639CBCF9209
:1039C000DF92EF92FF920F931F93CF93DF931F929B
:1039D000CDB7DEB7182F062FE42E862F880F8E5F07
:1039E00099830E94500483E00E945004F12EC12E5E
:1039F0009981D92E8C2D8F19801798F4F601E7FE46
:103A000002C0849101C080810E945004182F80E080
:103A10000E9450048123FFEFCF1ADF0A8111EACF01
:103A200001C081E00F90DF91CF911F910F91FF9026
:103A3000EF90DF90CF9008951092DB061092DA0697
:103A400088EE93E0A0E0B0E08093DC069093DD0682
:103A5000A093DE06B093DF062EE131E03093D90665
:103A60002093D8062FEF3FEF3093E5062093E4062E
:103A700010927807109277078093790790937A07CE
:103A8000A0937B07B0937C0780E391E09093760747
:103A90008093750782E491E090936B0780936A07A7
:103AA00010926F071092700780E180937107109257
:103AB0006E0710926D0710927307109250071092C4
:103AC00051071092520781E08093670781E298E0E6
:103AD000909366078093650710926907E3E5F7E026
:103AE00090E282E18E0F91938E13FDCF89E090E0FA
:103AF000909329078093280790932B0780932A0798
:103B000010922D0710922C0710922F0710922E075B
:103B100083E190E0909339078093380790933B07B7
:103B200080933A0782E390E090933D0780933C07AF
:103B300090933F0780933E0723E530E030933107B1
:103B40002093300730933307209332079093350743
:103B5000809334079093370780933607109241077C
:103B600010924007109243071092420780E490E0C1
:103B700090934507809344079093470780934607A7
:103B8000109249071092480710924B0710924A076B
:103B900082E490E090934D0780934C0790934F07F9
:103BA00080934E0708954532510520F4423010F0BD
:103BB0000C94DE1DFB011082CB010895BB274A3017
:103BC00031F4992322F4BDE2909581959F4F0C9496
:103BD000F51D4532510520F4423010F00C94F41DCF
:103BE000FB011082CB010895BB27FB015527AA27B3
:103BF000880F991FAA1FA41710F0A41B839550517A
:103C0000B9F7A05DAA3308F0A95DA193009779F7F1
:103C1000B111B1931192CB010C940E1EDC01FC0189
:103C2000672F71917723E1F7329704C07C916D93F0
:103C300070836291AE17BF07C8F30895F999FECF5C
:103C400092BD81BDF89A992780B50895262FF999DC
:103C5000FECF1FBA92BD81BD20BD0FB6F894FA9A6F
:103C6000F99A0FBE01960895052E97FB1EF4009455
:103C70000E944B1E57FD07D00E94951E07FC03D0E3
:103C80004EF40C944B1E50954095309521953F4F26
:103C90004F4F5F4F089590958095709561957F4F38
:103CA0008F4F9F4F08950E94B71EA59F900DB49F00
:103CB000900DA49F800D911D112408952F923F9285
:103CC0004F925F926F927F928F929F92AF92BF922C
:103CD000CF92DF92EF92FF920F931F93CF93DF93D8
:103CE000CDB7DEB7CA1BDB0B0FB6F894DEBF0FBE35
:103CF000CDBF09942A88398848885F846E847D8482
:103D00008C849B84AA84B984C884DF80EE80FD8083
:103D10000C811B81AA81B981CE0FD11D0FB6F894F9
:103D2000DEBF0FBECDBFED010895A1E21A2EAA1B82
:103D3000BB1BFD010DC0AA1FBB1FEE1FFF1FA2175B
:103D4000B307E407F50720F0A21BB30BE40BF50B58
:103D5000661F771F881F991F1A9469F760957095E1
:103D6000809590959B01AC01BD01CF010895A29F64
:103D7000B001B39FC001A39F700D811D1124911D3F
:103D8000B29F700D811D1124911D0895AA1BBB1BAC
:103D900051E107C0AA1FBB1FA617B70710F0A61B4B
:103DA000B70B881F991F5A95A9F780959095BC016C
:103DB000CD010895EE0FFF1F0590F491E02D0994B9
:103DC000CF93DF938230910510F482E090E0E09190
:103DD0009107F091920720E030E0C0E0D0E030970A
:103DE00011F14081518148175907C0F04817590710
:103DF00061F482819381209719F09B838A832BC081
:103E0000909392078093910726C02115310519F0F0
:103E10004217530718F49A01BE01DF01EF01028037
:103E2000F381E02DDCCF2115310509F1281B390B79
:103E30002430310590F412968D919C911397611561
:103E4000710521F0FB019383828304C09093920754
:103E500080939107FD01329644C0FD01E20FF31FEC
:103E600081939193225031092D933C933AC0209134
:103E70008F0730919007232B41F420910F0130914F
:103E800010013093900720938F0720910D013091FE
:103E90000E012115310541F42DB73EB740911101B6
:103EA00050911201241B350BE0918F07F091900780
:103EB000E217F307A0F42E1B3F0B2817390778F001
:103EC000AC014E5F5F4F2417350748F04E0F5F1F60
:103ED0005093900740938F078193919302C0E0E045
:103EE000F0E0CF01DF91CF9108950F931F93CF930F
:103EF000DF93009709F48CC0FC0132971382128281
:103F000000919107109192070115110581F420810C
:103F10003181820F931F20918F07309190072817CE
:103F2000390779F5F0939007E0938F0771C0D801B6
:103F300040E050E0AE17BF0750F412962D913C912F
:103F40001397AD012115310509F1D901F3CF9D0179
:103F5000DA013383228360817181860F971F821774
:103F6000930769F4EC0128813981260F371F2E5FF2
:103F70003F4F318320838A819B8193838283452BAA
:103F800029F4F0939207E093910742C01396FC93B3
:103F9000EE931297ED01499159919E01240F351F1F
:103FA000E217F30771F480819181840F951F0296C7
:103FB00011969C938E938281938113969C938E93FA
:103FC0001297E0E0F0E0D80112968D919C91139742
:103FD000009719F0F8018C01F6CF8D919C91980112
:103FE0002E5F3F4F820F931F20918F0730919007D4
:103FF0002817390769F4309729F410929207109224
:10400000910702C0138212821093900700938F07CA
:10401000DF91CF911F910F910895A0E0B0E0E3E10F
:10402000F0E20C94621EEC01009721F4CB010E9497
:10403000E01EB8C0FC01E60FF71F9C0122503109B9
:10404000E217F30708F4ACC0D9010D911C91119748
:1040500006171707B0F00530110508F49FC0C80116
:1040600004978617970708F499C002501109061B98
:10407000170B019311936D937C93CF010E94751FD1
:104080008DC05B01A01AB10A4C01800E911EA09157
:104090009107B091920740E050E0E12CF12C10978D
:1040A00009F44AC0A815B905D1F56D907C90119717
:1040B000630182E0C80ED11CCA14DB0480F1A301A5
:1040C0004A195B096A0182E0C80ED11C1296BC90A5
:1040D00012971396AC91B5E0CB16D10440F0B282A2
:1040E000A38351834083D9016D937C930AC00E5FF3
:1040F0001F4FC301800F911FF90191838083EB2D26
:10410000FA2FE114F10431F0D7011396FC93EE93EA
:10411000129744C0F0939207E09391073FC08D91AE
:104120009C9111974817590708F4AC017D0112962C
:104130000D90BC91A02DB3CF80918F0790919007E7
:1041400088159905E1F446175707C8F480910D01C9
:1041500090910E01009741F48DB79EB740911101E7
:1041600050911201841B950BE817F907C8F4F093DE
:104170009007E0938F07F901718360830FC0CB0133
:104180000E94E01E7C01009759F0A801BE010E9428
:10419000DC20CE010E94751FC70104C0CE0102C001
:1041A00080E090E0CDB7DEB7EEE00C947E1E81E0BB
:1041B00090E0F8940C94EC20FB01DC0102C001902B
:1041C0000D9241505040D8F70895FB01DC01019059
:0C41D0000D920020E1F70895F894FFCF55
:1041DC0001FFFFFFFF00E100000000000000009362
:1041EC0007800000C1808100000000000000DD0499
:1041FC00810A6E06F304FE049606720600000000A7
:10420C0091057D05A4056F05760573057005000005
:10421C000000A205466F756E642064617920200051
:10422C0020617420726567697374657220706F7396
:10423C0020000D0A0073617665416E6451756974D6
:10424C00005361766520646179200020746F2065CD
:10425C0078697374696E67207265676973746572C7
:10426C0020706F73200020746F2066726565207259
:10427C006567697374657220706F73200063686181
:10428C006E6765204461746520746F20002C0000FB
:00000001FF
