:100000000C9470030C9498030C9498030C9498032C
:100010000C9498030C9498030C9498030C949803F4
:100020000C9498030C9498030C9433070C94A20737
:100030000C9498030C9498030C9498030C949803D4
:100040000C9498030C9498030C9498030C949803C4
:100050000C9498030C9498030C9498030C94D40972
:100060000C9498030C9498030C9498030C949803A4
:100070000C9498030C9498030C9498030C94980394
:100080000C9498030C9498030C9498030C94980384
:100090000C9498030C9498030C9498030C94980374
:1000A0000C9498030C9498030C949803000000009F
:1000B000003E5B4F5B3E3E6B4F6B3E1C3E7C3E1CEE
:1000C000183C7E3C181C577D571C1C5E7F5E1C0034
:1000D000183C1800FFE7C3E7FF0018241800FFE7EB
:1000E000DBE7FF30483A060E2629792926407F05AE
:1000F0000507407F05253F5A3CE73C5A7F3E1C1CC4
:1001000008081C1C3E7F14227F22145F5F005F5F83
:1001100006097F017F006689956A6060606060946F
:10012000A2FFA29408047E040810207E2010080874
:100130002A1C08081C2A08081E101010100C1E0C7F
:100140001E0C30383E3830060E3E0E060000000011
:100150000000005F00000007000700147F147F14F8
:10016000242A7F2A1223130864623649562050003D
:1001700008070300001C2241000041221C002A1C29
:100180007F1C2A08083E0808008070300008080814
:100190000808000060600020100804023E51494534
:1001A0003E00427F400072494949462141494D3352
:1001B0001814127F1027454545393C4A49493141B9
:1001C000211109073649494936464949291E000087
:1001D00014000000403400000008142241141414DC
:1001E0001414004122140802015909063E415D59C8
:1001F0004E7C1211127C7F494949363E41414122D1
:100200007F4141413E7F494949417F090909013EFA
:10021000414151737F0808087F00417F4100204021
:10022000413F017F081422417F404040407F021C33
:10023000027F7F0408107F3E4141413E7F0909094A
:10024000063E4151215E7F09192946264949493216
:1002500003017F01033F4040403F1F2040201F3FDC
:100260004038403F63140814630304780403615961
:10027000494D43007F4141410204081020004141A3
:10028000417F04020102044040404040000307084F
:100290000020545478407F2844443838444444284B
:1002A000384444287F385454541800087E090218F2
:1002B000A4A49C787F0804047800447D400020407A
:1002C000403D007F1028440000417F40007C0478BE
:1002D00004787C080404783844444438FC18242406
:1002E0001818242418FC7C08040408485454542486
:1002F00004043F44243C4040207C1C2040201C3C03
:100300004030403C44281028444C9090907C4464F9
:10031000544C44000836410000007700000041368C
:10032000080002010204023C2623263C1EA1A16112
:10033000123A4040207A3854545559215555794144
:100340002154547841215554784020545579400C1B
:100350001E527212395555555939545454593955FC
:100360005454580000457C410002457D420001453F
:100370007C40F0292429F0F0282528F07C545545AC
:10038000002054547C547C0A097F4932494949323F
:100390003248484832324A4848303A4141217A3A54
:1003A00042402078009DA0A07D39444444393D401E
:1003B00040403D3C24FF2424487E4943662B2FFCCB
:1003C0002F2BFF0929F620C0887E09032054547979
:1003D000410000447D413048484A32384040227A4A
:1003E000007A0A0A727D0D19317D2629292F2826C7
:1003F0002929292630484D402038080808080808CF
:100400000808382F10C8ACBA2F102834FA00007B27
:10041000000008142A142222142A1408950022002D
:1004200095AA005500AAAA55AA55AA000000FF00E7
:10043000101010FF00141414FF001010FF00FF1024
:1004400010F010F0141414FC001414F700FF000056
:10045000FF00FF1414F404FC141417101F10101FD5
:10046000101F1414141F00101010F0000000001FC3
:10047000101010101F10101010F010000000FF10CE
:100480001010101010101010FF10000000FF1400CA
:1004900000FF00FF00001F10170000FC04F41414FC
:1004A0001710171414F404F40000FF00F7141414C8
:1004B00014141414F700F7141414171410101F1048
:1004C0001F141414F4141010F010F000001F101F6B
:1004D0000000001F14000000FC140000F010F010D9
:1004E00010FF10FF141414FF141010101F00000050
:1004F00000F010FFFFFFFFFFF0F0F0F0F0FFFFFF54
:100500000000000000FFFF0F0F0F0F0F38444438AA
:10051000447C2A2A3E147E02020606027E027E02E5
:1005200063554941633844443C04407E201E200604
:10053000027E020299A5E7A5991C2A492A1C4C7241
:1005400001724C304A4D4D303048784830BC625AC8
:10055000463D3E494949007E0101017E2A2A2A2A58
:100560002A44445F444440514A444040444A514034
:100570000000FF0103E080FF000008086B6B0836F5
:1005800012362436060F090F060000181800000066
:100590001010003040FF0101001F01011E00191D55
:1005A0001712003C3C3C3C0000000000F0F89C8E20
:1005B0008783878E9CF8F00000FEFF03030303038C
:1005C000070EFCF80000FEFF0303030303070EFC05
:1005D000F80000FFFF00000000000000FFFF000027
:1005E000FEFF8383838383C7EE7C380000F8FC0E14
:1005F00007030303070EFCF800003F7FE0C0808084
:10060000C0E07F3FFFFF01010101010101FFFF0089
:1006100000FFFF0C0C0C0C1C3E77E3C100007FFFB9
:10062000C0C0C0C0C0E0703F1F00001F3F70E0C0EE
:10063000C0C0E0703F1F00007FFFC1C1C1C1C1E366
:10064000773E1C00001F3F70E0C0C0C0E0703F1F3D
:10065000000000000001FFFF01000000D5F08D1434
:10066000A1C881CFD9F1AF2000080B00020202011E
:100670000009040000010202000005240010010529
:100680002401010104240206052406000107058156
:100690000310004009040100020A000000070502DF
:1006A0000240000007058302400000040309041211
:1006B000010002EF020140412336800001010203E4
:1006C0000141726475696E6F204C4C430041726445
:1006D00075696E6F204C656F6E6172646F00960A6B
:1006E00011241FBECFEFDAE0DEBFCDBF11E0A0E0E6
:1006F000B1E0EAE8F1E202C005900D92AE33B10735
:10070000D9F725E0AEE3B1E001C01D92A43CB207E9
:10071000E1F713E0C0E7D3E004C02197FE010E9497
:10072000B810CF36D107C9F70E94C70A0C94C3107E
:100730000C940000EDE5F1E0A0E0B8E000800EBC14
:100740008111012C1197A0FDFDCF0192B9F70DB4D5
:100750000895FC0180915C01882311F13FB7F89462
:1007600082E08093E9002091F200822F90E0181639
:10077000190614F481E090E0882339F0289844E6C3
:1007800040935B014091F1004083222339F0209196
:10079000F200211103C02BE62093E8003FBF08952B
:1007A0008FEF9FEF08952FB7F89483E08093E900CF
:1007B0009091E800892F807295FF04C09091F2001B
:1007C00080E4891B2FBF08958091530181110DC0D2
:1007D00082E080934F0184E0809350011092520197
:1007E0001092510181E0809353018FE491E00895CC
:1007F000CF93DF931F92CDB7DEB76983DC01ED9114
:10080000FC910280F381E02D41E050E0BE016F5F7A
:100810007F4F09950F90DF91CF91089583E08093EA
:10082000E9008091F200882319F08AE38093E800C0
:1008300008950E94D30390E00895CF93DF931F9211
:10084000CDB7DEB7FC018485958597FD08C02FEFF5
:100850003FEF358724870F90DF91CF910895CE0128
:1008600001960E94A903019719F4898190E0F3CFC2
:100870008FEF9FEFF0CF0F931F93CF93DF931F92D4
:10088000CDB7DEB78C01FC018485958597FF0BC041
:10089000CE0101960E94A903019771F4898190E02D
:1008A000F80195878487F801848595850F90DF91FD
:1008B000CF911F910F9108958FEF9FEFF1CFFC0122
:1008C0008485958597FD0BC09FB7F89482E080934F
:1008D000E9008091F2009FBF90E0019608959FB7D4
:1008E000F89482E08093E9008091F2009FBF90E04D
:1008F00008954091490150914A012091470130915A
:10090000480142175307B4F49091E8009570E1F361
:100910009091E80092FD19C08093F1008091490107
:1009200090914A0101968F739927892B19F48EEFC4
:100930008093E8008091490190914A01019690933B
:100940004A018093490181E0089580E00895DF9293
:10095000EF92FF920F931F93CF93DF93D82E8A01CC
:10096000EB017B01E40EF51ECE15DF0559F0D7FE35
:1009700012C0FE0184910E94790421968111F4CF66
:100980000FEF1FEFC801DF91CF911F910F91FF90E3
:10099000EF90DF9008958881EECF0F931F93CF9350
:1009A000DF931F92CDB7DEB782E0898342E450E047
:1009B00069E676E080E80E94A7040E94E403DC0177
:1009C00012960D911C910115110589F0D801ED9138
:1009D000FC910280F381E02DBE016F5F7F4FC80163
:1009E000099597FD04C0F80100851185ECCF898138
:1009F0000F90DF91CF911F910F910895615030F0CA
:100A00002091F100FC0120830196F8CF289884E61C
:100A100080935B010895AF92BF92CF92DF92EF92E5
:100A2000FF920F931F93CF93DF936C017B018B0198
:100A3000040F151FEB015E01AE18BF08C017D107E8
:100A400059F06991D601ED91FC910190F081E02D72
:100A5000C6010995892B79F7C501DF91CF911F91C7
:100A60000F91FF90EF90DF90CF90BF90AF900895DF
:100A70003FB7F8948091430190914401A0914501C2
:100A8000B091460126B5A89B05C02F3F19F00196ED
:100A9000A11DB11D3FBFBA2FA92F982F8827BC01D8
:100AA000CD01620F711D811D911D42E0660F771F00
:100AB000881F991F4A95D1F708958F929F92AF9200
:100AC000BF92CF92DF92EF92FF926B017C010E9466
:100AD00038054B015C01C114D104E104F104B9F003
:100AE0000E943805681979098A099B09683E734094
:100AF0008105910580F321E0C21AD108E108F108CF
:100B000088EE880E83E0981EA11CB11CE4CFFF90F4
:100B1000EF90DF90CF90BF90AF909F908F9008950F
:100B20008F929F92AF92BF92CF92DF92EF92FF92FD
:100B30000F931F93CF93DF936C017B018A01809108
:100B40000B01882309F45CC080915C01882309F4BF
:100B500057C080914E0180FF05C08091E000826007
:100B60008093E000E801B12C8AEFA82E93E0892E53
:100B70002AE3922E209711F4BB20D9F10E94D303CF
:100B800081110AC0AA94AA20D9F161E070E080E046
:100B900090E00E945D05EECF8C171D0611F00CF061
:100BA0008C2F9FB7F8948092E9002091E80025FDF2
:100BB00002C09FBFDFCF282F30E0C21BD30BF7014D
:100BC000815020F041914093F100FACFE20EF31EE4
:100BD000BB2021F09092E800B12CEBCF8091E8008F
:100BE00085FDE7CF9092E800BB24B394209709F3EA
:100BF000F3CF5D9884E680934D01101611063CF00A
:100C000081E090E0F6019383828310E000E0C80168
:100C1000DF91CF911F910F91FF90EF90DF90CF90D8
:100C2000BF90AF909F908F9008952D9A0895BC012A
:100C300090E080E00C945D058FB18095807F669B8D
:100C400088601C9B846008952F923F924F925F9220
:100C50006F927F928F929F92AF92BF92CF92DF92CC
:100C6000EF92FF920F931F93CF93DF9300D000D0AA
:100C70001F92CDB7DEB79C838B836A3059F5DC01B8
:100C800055968C91B8E08B9F90011124EB81FC81EB
:100C900081899289820F931F928B818B108A17868C
:100CA00081E090E00F900F900F900F900F90DF91E8
:100CB000CF911F910F91FF90EF90DF90CF90BF9059
:100CC000AF909F908F907F906F905F904F903F90EC
:100CD0002F9008956D3021F3AB81BC811F968D91CB
:100CE0009C915097803891050CF087C05196CD901B
:100CF000DC90B0E4CB16D1040CF07FC0EB81FC811A
:100D00009588E5E09C019E9E200D311D1124121650
:100D100013060CF072C0E92CF12C9701B3E0220FFE
:100D2000331FBA95E1F72C0D3D1D121613060CF07A
:100D300064C0AB81BC8154965C90549753964C90A0
:100D40006E9FF0011124E455FF4F70E0249175303F
:100D500009F420E05601A8E06A2E222E312C642DE1
:100D600020FF652D611103C0541409F437C0AC0194
:100D700061706A834983242F281B291578F510E0B8
:100D800000E0091540F54038510510F598012A0D8D
:100D90003B1D20343105E0F460E1762E898061E06E
:100DA00021FD64E020FD660F22FD6295287F729E82
:100DB000D0011124A80D6D83A35ABE4F2C913A8106
:100DC000862E822A311103C08D80809482228C92DB
:100DD0000F5F1F4FD6CF4F5F5F4FCCCF910135953F
:100DE00027956A94AE0CBF1C6110B7CF7F5F319618
:100DF0008E0D9F1D763009F0A9CFAB81BC81559631
:100E00002C915597422F50E01F968D919C91B6E002
:100E10002B9F800D911D1124EB81FC81908B878786
:100E20002689222309F43CCF6AEF64039001659F71
:100E3000300D112420583F4F281739070CF030CFC0
:100E4000CF010190F081E02D0190F081E02D6AE06A
:100E5000099526CF0895089590E080E008950C94B8
:100E6000360E0E94BE101F920F920FB60F921124E1
:100E70008F939F938091E1009091E100937F9093F5
:100E8000E10083FF0FC01092E90091E09093EB0026
:100E90001092EC0092E39093ED0010925C0198E0C8
:100EA0009093F00082FF22C093E09093E90090912C
:100EB000F200992319F09AE39093E80090914D0184
:100EC000992341F090914D01915090934D019111D2
:100ED00001C05D9A90915B01992341F090915B0173
:100EE000915090935B01911101C0289A84FF18C022
:100EF0008091E2008E7E81608093E2008091E1002B
:100F00008F7E8093E10080914E018E7E8061809380
:100F10004E019F918F910F900FBE0F901F901895CB
:100F200080FFF7CF8091E2008E7E80618093E200A7
:100F30008091E1008E7E8093E10080914E018E7E53
:100F40008160E5CF1F920F920FB60F921124CF92BE
:100F5000DF92EF92FF920F931F932F933F934F9344
:100F60005F936F937F938F939F93AF93BF93EF9311
:100F7000FF93CF93DF93CDB7DEB76C97DEBFCDBFC6
:100F80001092E9008091E80083FF25C068E0CE015F
:100F900045960E94FE0482EF8093E8008D8987FFCA
:100FA00039C09091E80090FFFCCF982F907609F01F
:100FB00034C19E894F89588D2F89F88C911131C089
:100FC000803861F580914C018093F1001092F1001E
:100FD0008EEF8093E8006C960FB6F894DEBF0FBEDC
:100FE000CDBFDF91CF91FF91EF91BF91AF919F91D5
:100FF0008F917F916F915F914F913F912F911F91B1
:101000000F91FF90EF90DF90CF900F900FBE0F9059
:101010001F9018959EEF9093E800C7CF1092F100B3
:10102000D5CF913059F48111D3CF4130510581F69C
:1010300080914C018D7F80934C01CACF933049F44D
:101040008111C6CF4130510519F680914C01826063
:10105000F2CF953041F48091E80080FFFCCF20680A
:101060002093E300B5CF963009F0A9C00B8D1C8DFD
:1010700022E01092E90010924A0110924901F21206
:101080002EC010924801109247010E94CD041F8289
:1010900099E09983FA8291E09E8390EA98879AEF8B
:1010A00099872091490130914A01275F3F4F3C8346
:1010B0002B838D831092E90010924A01109249010E
:1010C000109348010093470149E050E0BE016F5F73
:1010D0007F4F80E00E94A7040E94CD0479CF109337
:1010E0004801009347010E94E403DC0112960D9130
:1010F0001C910115110509F451C1D801ED91FC9124
:101100000480F581E02DBE016B5E7F4FC80109951B
:10111000009709F03EC1F80100851185EACFF3E0A0
:10112000FF120EC08F89882309F440C0823061F419
:1011300040E860E18DEC96E00E941E0A811148CFE4
:1011400081E28093EB0047CF813029F440E86BE0E7
:1011500081EC96E0F1CF833099F70E94E403DC0143
:101160001296ED90FC908E010F5F1F4F6801E11405
:10117000F10479F0D701ED91FC910680F781E02D23
:10118000B801C7010995080F111DF701E084F1842A
:10119000EECFD8011C92F60101900020E9F73197BB
:1011A000BF016C197D0940E0C601C6CF6BEA76E04D
:1011B000FB01449150E080E80E94A70409CF9730DA
:1011C00009F4BECF983021F481E08093F10000CF84
:1011D000993009F0FDCE837009F0B2CFE1E1F1E082
:1011E00081E031E096E32191222371F08093E900C0
:1011F0003093EB00DF0111972C912093EC0090933A
:10120000ED008F5F873079F78EE78093EA001092C8
:10121000EA008F8980935C01DBCE8B8D9C8D1092D0
:10122000E90010924A01109249019093480180937D
:101230004701898D811192C08E899D89913A49F427
:10124000813209F07DCF47E050E064E071E080E05A
:10125000B3CF913209F074CF833269F48F89988DBE
:10126000B0E0A0E08093000190930101A0930201FF
:10127000B0930301ADCE803269F48091E80082FF23
:10128000FCCF67E084E091E00E94FE048BEF809346
:10129000E8009ECE823209F09BCE8F8980930B01AD
:1012A000EEEFFFE7859194918B3F9C4D51F1E0E08B
:1012B000F8E08091040190910501A0910601B091A0
:1012C0000701803B9440A105B105F1F480910B0129
:1012D00080FD1AC0EE3F8AE0F80789F587E797E7B7
:1012E000918380838091600080934B0188E19BE033
:1012F0000FB6F894A895809360000FBE909360009D
:1013000067CEEEEFFAE0D5CF80819181873797479E
:1013100009F05ECEA895809160008861809360009E
:1013200080914B0180936000EE3F2AE0F20789F044
:101330008091FE0A9091FF0A9183808349CE80813B
:1013400091818737980751F29093FF0A8093FE0AA4
:10135000C5CF1092FF0A1092FE0A3ACE0E94E40313
:10136000DC0112960D911C910115110509F4E8CECE
:10137000D801ED91FC910190F081E02DBE016B5EF2
:101380007F4FC8010995811123CEF8010085118591
:10139000EBCF181619060CF41BCED2CEF1E0FF12DB
:1013A000BECE6FEA76E004CF1F920F920FB60F9277
:1013B00011242F933F938F939F93AF93BF9380916B
:1013C0003F0190914001A0914101B09142013091C3
:1013D0003E0123E0230F2D3758F50196A11DB11DC5
:1013E00020933E0180933F0190934001A0934101DF
:1013F000B09342018091430190914401A091450135
:10140000B09146010196A11DB11D809343019093B7
:101410004401A0934501B0934601BF91AF919F91C4
:101420008F913F912F910F900FBE0F901F901895A5
:1014300026E8230F0296A11DB11DD2CFEF92FF9295
:101440000F931F93CF93DF93F82E192FE62E042FBF
:1014500081E0860F880F0E94790483E00E9479045E
:10146000CF2DD12FEC0EFD2EF11CCE15DF05B9F0DE
:1014700007FF13C0FE0184910E947904182F80E0B9
:101480000E947904812321968111EFCFDF91CF91C2
:101490001F910F91FF90EF9008958881EDCF81E02B
:1014A000F5CF0F931F93CF93DF938C0181E090E0F2
:1014B0000E942F0780FF32C08AE090E00E942F0731
:1014C0009FEF980F9E3F50F522E330E0D8015096F1
:1014D0003C932E931F9728E330E052963C932E9333
:1014E0005197CBE0D0E0D801ED91FC910190F081D3
:1014F000E02D682FC8010995CE010E942F07219683
:10150000C131D10581F780E00E949A0388EE93E013
:10151000DF91CF911F910F910C941706DF91CF911E
:101520001F910F91089504970C94510AEDE5F5E091
:101530001382128288EE93E0A0E0B0E0848395836A
:10154000A683B7838BE191E0918380838FEF9FEF38
:1015500095878487EDEAF5E0138212821186128660
:1015600080E183871086178215868DE291E0918352
:1015700080838BE391E095838483108A1786128A97
:10158000118A81E0838B148A858B168A089578945A
:1015900084B5826084BD84B5816084BD85B5826078
:1015A00085BD85B5816085BD80916E008160809329
:1015B0006E00109281008091810082608093810092
:1015C00080918100816080938100809180008160A2
:1015D000809380008091910082608093910080913F
:1015E0009100816080939100809190008160809350
:1015F00090008091C10084608093C1008091C100FF
:1016000082608093C1008091C10081608093C1009D
:101610008091C30081608093C3008091C00082608C
:101620008093C0008091C20081608093C20080914D
:101630007A00846080937A0080917A00826080933F
:101640007A0080917A00816080937A0080917A009C
:10165000806880937A0010925C0110924C01109285
:101660004E018091D70081608093D70080EA8093FB
:10167000D80089B5806189BD89B5826089BD09B40A
:1016800000FEFDCF61E070E080E090E00E945D052B
:101690008091D8008F7C80618093D8008091E00099
:1016A000807F8093E0008091E1008E7E8093E10056
:1016B0008DE08093E200559A209A81EC80937C0023
:1016C00085B1806F85B984B1877E84B984B1876E16
:1016D00084B95E9A5F988AB1806D8AB9769A6E985D
:1016E00081B3806F81BB899880B38D7080BB80E5AA
:1016F0008CBD81E08DBD85E090E00E9417065F9A69
:1017000085E090E00E9417065E985C98ECE5F6E0B4
:1017100089E696E024912EBD00000DB407FEFDCFB2
:1017200031968E179F07B1F75C9A81E88093640029
:101730008091650081608093650080E00E949A033B
:101740000E941C0687FF15C05C9885EA8EBD0000CC
:101750000DB407FEFDCF5C9A2E982F982D9880919E
:10176000640080628093640081E083BF889513BE2B
:10177000FCCF0E941C0682FF48C02D980E941C06C8
:1017800084788438E1F40E94150688EC90E00E9489
:1017900017062F9882E090E00E94360E8F3F29F0C6
:1017A0006FEF82E090E00E943E0E84EF91E00E9495
:1017B00017062F9A0E941C0684788438D9F30E9459
:1017C0001C0684718431E1F40E94150688EC90E0D7
:1017D0000E9417062E9882E090E00E94360E882321
:1017E00029F060E082E090E00E943E0E84EF91E0FC
:1017F0000E9417062E9A0E941C0684718431D9F328
:1018000088EC90E00E941706B4CF0E94150682E093
:1018100090E00E942F07882309F4F2C03E9A3F9A75
:1018200081E090E00E942F07482F4470942E81FFA2
:101830000EC041112E98C0EFDFEF08E010E00E94CB
:101840001C0686FFE0C02E9A2F9A0E94150682E39E
:1018500090E00E9417060E941C068111F8CFEDE56A
:10186000F1E081118FEF0024819381938193819323
:101870000394D1F71092BF051092BE051092BD05DA
:101880001092BC0580E00E949A03109290008AE0BA
:101890008093910080EDC82E87E0D82EE12CF12CAA
:1018A00090E4392E28EE422E23E0522E612C712C2A
:1018B00000E010E0CAE0D0E00E94DE0DA701960132
:1018C0000E944C0E685A744E8F4F9F4F0E94BF0F5C
:1018D0004B015C0120E030E040E05FE30E944B10F0
:1018E00020E034E244E759E40E94B00EA5019401DF
:1018F0000E941C0F0E948E0F61507109309290005F
:10190000709399006093980086E090E00E9417061B
:10191000219791F60E94DE0DA70196010E944C0EC0
:101920006055794C8F4F9F4F0E94BF0F4B015C0158
:1019300020E030E040E05FE30E944B1020E034E222
:1019400044E759E40E94B00EA50194010E941C0FC7
:101950000E948E0F6150710930929000709399002F
:10196000609398000E94DE0D20E530E040E050E0FA
:101970000E944C0EDC01CB014496A11DB11D0E94BA
:101980001706CAE0D0E00E94DE0DA30192010E947A
:101990004C0E6056704F8F4F9F4F0E94BF0F4B01F0
:1019A0005C0120E030E040E05FE30E944B1020E06B
:1019B00034E244E759E40E94B00EA50194010E946C
:1019C0001C0F0E948E0F615071093092900070932D
:1019D00099006093980086E090E00E941706219796
:1019E00091F61092900060E67AEE8FEF9FEF0E94E2
:1019F0005D050115110509F45DCF0E9400005ACF65
:101A00003E983F980DCF992029F0C430D10511F4AC
:101A10002E9A2F9881E00E949A039E01D7FF04C05E
:101A2000222733272C1B3D0B27703327CE01D7FDF0
:101A3000079673E0959587957A95E1F7D7FF05C0EE
:101A40000197F801E21BF30B9F01AC015695542F4F
:101A5000442757954795435A5E4FF12CE12C3801A6
:101A6000621A730A8F3FFFEF9F07B4F1DA01AC5699
:101A7000BF4F6A0170E060E0F701E455FA4F5F0183
:101A80008F3F980779F0F501E60FF71FE491F0E03A
:101A90002F01022E01C0440C0A94EAF7F601848853
:101AA0004828448A2115310571F0F501E60FF71F2A
:101AB000E491F0E0062C02C0F595E7950A94E2F770
:101AC000FC91EF2BEC936F5F7F4F1196FFEFCF1AD6
:101AD000DF0A68357105A1F6019668E5E60EF11C8E
:101AE00040585F4FE0EBEE16F10409F0BBCF80E009
:101AF0000E949A038FE090E00E9417062196C93158
:101B0000D10509F09CCE992011F02F9A2D9880E9EB
:101B100091E00E9417060E9415068DEA95E00E944A
:101B2000510A95CE8F929F92AF92BF92CF92DF9241
:101B3000EF92FF92CF93DF93EC01688179818A81E4
:101B40009B81611571058105910521F464E279EDB0
:101B50008BE597E02DE133EF41E050E00E944C0E21
:101B600049015A019B01AC01A7EAB1E40E946B0E46
:101B70006B017C01ACEEB4EFA50194010E94790EDB
:101B8000C60ED71EE81EF91EF7FE06C081E0C81A71
:101B9000D108E10880E8F80AC882D982EA82FB828B
:101BA000C701B6019F77DF91CF91FF90EF90DF9053
:101BB000CF90BF90AF909F908F9008958F929F92FB
:101BC000AF92BF92CF92DF92EF92FF9260910C01A1
:101BD00070910D0180910E0190910F0161157105B9
:101BE0008105910521F464E279ED8BE597E02DE123
:101BF00033EF41E050E00E944C0E49015A019B0135
:101C0000AC01A7EAB1E40E946B0E6B017C01ACEE63
:101C1000B4EFA50194010E94790EC60ED71EE81EEE
:101C2000F91EF7FE06C081E0C81AD108E10880E875
:101C3000F80AC0920C01D0920D01E0920E01F092D0
:101C40000F01C701B6019F77FF90EF90DF90CF9013
:101C5000BF90AF909F908F90089560930C01709308
:101C60000D0180930E0190930F010895F999FECF15
:101C700092BD81BDF89A992780B50895262FF999CC
:101C8000FECF1FBA92BD81BD20BD0FB6F894FA9A5F
:101C9000F99A0FBE01960895052E97FB1EF4009445
:101CA0000E94630E57FD07D00E947E0E07FC03D0F2
:101CB0004EF40C94630E50954095309521953F4F0E
:101CC0004F4F5F4F089590958095709561957F4F28
:101CD0008F4F9F4F08950E94A00EA59F900DB49F17
:101CE000900DA49F800D911D11240895B7FF0C94B1
:101CF0006B0E0E946B0E821B930B0895A1E21A2EAD
:101D0000AA1BBB1BFD010DC0AA1FBB1FEE1FFF1F9F
:101D1000A217B307E407F50720F0A21BB30BE40BEF
:101D2000F50B661F771F881F991F1A9469F7609536
:101D30007095809590959B01AC01BD01CF010895F0
:101D4000A29FB001B39FC001A39F700D811D1124FC
:101D5000911DB29F700D811D1124911D0895505841
:101D6000BB27AA270E94C70E0C9411100E940310D3
:101D700038F00E940A1020F039F49F3F19F426F43D
:101D80000C9400100EF4E095E7FB0C94FA0FE92F89
:101D90000E94221058F3BA17620773078407950749
:101DA00020F079F4A6F50C9444100EF4E0950B2E77
:101DB000BA2FA02D0B01B90190010C01CA01A0019D
:101DC0001124FF27591B99F0593F50F4503E68F1F8
:101DD0001A16F040A22F232F342F4427585FF3CF39
:101DE000469537952795A795F0405395C9F77EF40A
:101DF0001F16BA0B620B730B840BBAF09150A1F053
:101E0000FF0FBB1F661F771F881FC2F70EC0BA0FD8
:101E1000621F731F841F48F4879577956795B79560
:101E2000F7959E3F08F0B0CF9395880F08F099275B
:101E3000EE0F9795879508950E94300F0C9411101E
:101E40000E940A1058F00E94031040F029F45F3FEE
:101E500029F00C94FA0F51110C9445100C940010B9
:101E60000E94221068F39923B1F3552391F3951B37
:101E7000550BBB27AA2762177307840738F09F5FAB
:101E80005F4F220F331F441FAA1FA9F335D00E2E18
:101E90003AF0E0E832D091505040E695001CCAF785
:101EA0002BD0FE2F29D0660F771F881FBB1F261748
:101EB00037074807AB07B0E809F0BB0B802DBF011F
:101EC000FF2793585F4F3AF09E3F510578F00C94EE
:101ED000FA0F0C9445105F3FE4F3983ED4F38695D7
:101EE00077956795B795F7959F5FC9F7880F911D0F
:101EF0009695879597F90895E1E0660F771F881FFB
:101F0000BB1F621773078407BA0720F0621B730BAD
:101F1000840BBA0BEE1F88F7E09508950E942A10F3
:101F200088F09F5798F0B92F9927B751B0F0E1F09A
:101F3000660F771F881F991F1AF0BA95C9F714C04A
:101F4000B13091F00E944410B1E008950C94441017
:101F5000672F782F8827B85F39F0B93FCCF3869583
:101F600077956795B395D9F73EF4909580957095E0
:101F700061957F4F8F4F9F4F0895E89409C097FB5D
:101F80003EF490958095709561957F4F8F4F9F4F50
:101F90009923A9F0F92F96E9BB279395F695879594
:101FA00077956795B795F111F8CFFAF4BB0F11F457
:101FB00060FF1BC06F5F7F4F8F4F9F4F16C08823FE
:101FC00011F096E911C0772321F09EE8872F762F34
:101FD00005C0662371F096E8862F70E060E02AF075
:101FE0009A95660F771F881FDAF7880F9695879561
:101FF00097F9089597F99F6780E870E060E0089589
:102000009FEF80EC089500240A9416161706180610
:102010000906089500240A941216130614060506EC
:102020000895092E0394000C11F4882352F0BB0F7D
:1020300040F4BF2B11F460FF04C06F5F7F4F8F4FE0
:102040009F4F089557FD9058440F551F59F05F3F1B
:1020500071F04795880F97FB991F61F09F3F79F0CA
:1020600087950895121613061406551FF2CF46954C
:10207000F1DF08C0161617061806991FF1CF8695CE
:102080007105610508940895E894BB2766277727B2
:10209000CB0197F908950E945E100C9411100E94D4
:1020A000031038F00E940A1020F0952311F00C94D0
:1020B000FA0F0C94001011240C9445100E94221069
:1020C00070F3959FC1F3950F50E0551F629FF0018B
:1020D000729FBB27F00DB11D639FAA27F00DB11DA4
:1020E000AA1F649F6627B00DA11D661F829F22272D
:1020F000B00DA11D621F739FB00DA11D621F839FB4
:10210000A00D611D221F749F3327A00D611D231F89
:10211000849F600D211D822F762F6A2F11249F57D7
:1021200050409AF0F1F088234AF0EE0FFF1FBB1FDA
:10213000661F771F881F91505040A9F79E3F510599
:1021400080F00C94FA0F0C9445105F3FE4F3983E36
:10215000D4F3869577956795B795F795E7959F5F43
:10216000C1F7FE2B880F911D9695879597F90895D5
:10217000EE0FFF1F0590F491E02D099481E090E0AF
:0A218000F8940C94C310F894FFCFFC
:10218A00FFFFFFFF00E10000000000000100000067
:10219A0000C1808100000000000000F803900519CA
:1021AA00040E045F041D043B040000000024060B17
:0E21BA00052C072B07510AFCFF0000930A00BA
:2070000055C000006EC000006CC000006AC0000068C0000066C0000064C0000062C0000043
:2070200060C000005EC00000F2C400005AC0000058C0000056C0000054C0000052C00000EE
:2070400050C0000078C000004CC000004AC0000048C0000046C0000044C0000042C00000BE
:2070600040C000003EC000003CC000003AC0000038C0000036C0000034C0000032C0000048
:2070800030C000002EC000002CC000002AC0000028C0000026C0000024C0000022C00000A8
:2070A00020C000001EC000001CC0000011241FBECFEFDAE0DEBFCDBF11E0A0E0B1E0E2E3BC
:2070C000FFE702C005900D92A83AB107D9F711E0A8EAB1E001C01D92AE3BB107E1F78FD30B
:2070E00026C78ECFF89410926F0010928100109285001092840081E085BF15BE47985D9AEB
:20710000289A0C94000008952091B2013091B3012F5F3F4F3093B3012093B201932F37FFA6
:2071200003C08EEF831B982F990F921710F447980895479A08951F920F920FB60F9211246E
:207140002F938F939F93EF93FF9310928500109284008091A8019091A901009741F00197D3
:207160009093A9018093A801892B09F45D9A8091AA019091AB01009741F001979093AB0126
:207180008093AA01892B09F4289AE0E0F0E0859194918F5F9F4F49F08091AC019091AD0151
:2071A00001969093AD018093AC01FF91EF919F918F912F910F900FBE0F901F90189584E0BC
:2071C0008093E9000DC08091E8008B778093E80003C08EB3882351F08091E80082FFF9CFBE
:2071E0008091E80085FFEFCF8091F1000895982F83E08093E9008091E80085FD0DC0809136
:20720000E8008E778093E80003C08EB3882369F08091E80080FFF9CF9093F1005D9884E6CB
:2072200090E09093A9018093A80108954F925F926F927F928F929F92AF92BF92CF92DF921E
:20724000EF92FF920F931F93CF93DF9384E08093E9008091E80082FF57C2289884E690E067
:207260009093AB018093AA01AADF182F853481F48CE49DE19093AD018093AC0107B600FC4B
:20728000FDCFF999FECF81E180935700E89503C0843519F494DF8DE00DC28C34E1F38035F9
:2072A000D1F3843721F484E4A2DF80E003C2813611F489E5FFC18134B1F481DF182F7FDFE3
:2072C00090E0880F991FAA2797FDA095BA2F312F330F20E0442737FD4095542F822B932B68
:2072E000A42BB52BB8C1803711F483E5E3C1833549F4C0E0D1E089917ADF21E0C730D20714
:20730000D1F7D9C1863521F481E371DF80E3D2C1833731F487E86BDF85E969DF8EE1CAC149
:207320008536B9F4E0E0F0E093E085E090935700E89507B600FCFDCF80935700E89507B65D
:2073400000FCFDCFE058FF4FA0E7E030FA0771F7A2CF823739F4E1E0F0E089E08093570024
:207360008491A8C1863439F4E0E0F0E089E08093570084919FC18E3439F4E3E0F0E089E0E5
:2073800080935700849196C1813539F4E2E0F0E089E08093570084918DC1823631F489E521
:2073A00026DF80E024DF80E885C1823419F0873609F0E5C01092AD011092AC0100DF082FE8
:2073C000FEDEF82EFCDE682E8554823008F071C1902F80E0CF2DD0E0C82BD92B10926F00B3
:2073E000173609F04BC081E180935700E895DD24CC24C3943FC0E090AE01F090AF010091CC
:20740000B0011091B101B6E46B16D9F4ED2DF0E0EE29FF29E4918E2FEADEDD2081F082E08D
:2074200090E0A0E0B0E0E80EF91E0A1F1B1FE092AE01F092AF010093B0011093B101DC2470
:2074400018C0D801C701B695A7959795879559D5CEDE82E090E0A0E0B0E0E80EF91E0A1FF2
:207460001B1FE092AE01F092AF010093B0011093B1012197209709F0BECF7DC08090AE01F5
:207480009090AF01A090B001B090B10196E4691609F05DC083E0F40180935700E89507B63E
:2074A00000FCFDCF54C0F6E46F1661F5772031F1E090AE01F090AF010091B0011091B1019E
:2074C0007EDED82ECC24852D90E08C299D29F7010C0140925700E895112482E090E0A0E08B
:2074E000B0E0E80EF91E0A1F1B1FE092AE01F092AF010093B0011093B10102C060DE582E1A
:20750000742423C0E090AE01F090AF010091B0011091B10116950795F794E79450DE682FFA
:20752000C701F7D48091AE019091AF01A091B001B091B1010296A11DB11D8093AE01909349
:20754000AF01A093B001B093B101219704C05524772444244394209709F0A5CF96E46916B6
:2075600041F485E0F40180935700E89507B600FCFDCF8DE03CDE82E080936F009CC0833492
:2075800071F40091AE011091AF0119DE90E021E0F8010C0120935700E89511247CCE8336C8
:2075A00019F5E090AE01F090AF010091B0011091B10105DEF701E16090E021E00C0120938C
:2075C0005700E895112482E090E0A0E0B0E0E80EF91E0A1F1B1FE092AE01F092AF0100936A
:2075E000B0011093B10157CE8D3661F4E091AE01F091AF0185E080935700E89507B600FCF2
:20760000FDCF49CE823551F4E091AE01F091AF0105911491812FEBDD802F4CC0843421F5FE
:20762000E090AE01F090AF010091B0011091B10116950795F794E794C2DD682FC70169D4DE
:207640008091AE019091AF01A091B001B091B1010296A11DB11D8093AE019093AF01A093D8
:20766000B001B093B10117CE843609F5E090AE01F090AF010091B0011091B101D801C70142
:20768000B695A795979587953CD4B1DD82E090E0A0E0B0E0E80EF91E0A1F1B1FE092AE010A
:2076A000F092AF010093B0011093B10104C08B3111F08FE39CDD83E08093E9009091E8002B
:2076C0008091E8008E778093E80095FF04C010C08EB38823C9F08091E80080FFF9CF809193
:2076E000E8008E778093E80003C08EB3882361F08091E80080FFF9CF84E08093E9008091F1
:20770000E8008B778093E800DF91CF911F910F91FF90EF90DF90CF90BF90AF909F908F90AC
:207720007F906F905F904F9008959091B601892F8F77813249F58091B7018032A1F081328A
:2077400019F5913A09F58091E800877F8093E8008DE091E067E070E00BD28091E8008B770B
:207760008093E8000895913279F48091E800877F8093E8008DE091E067E070E05DD2809192
:20778000E8008E778093E800089582E061EC42E0B5D083E061E842E1B1D084E060E842E1EF
:2077A000ADC084B7877F84BF88E10FB6F89480936000109260000FBE20E880E090E00FB63F
:2077C000F89420936100809361000FBE81E085BF92E095BF3F9A209A559AE1E6F0E02083A1
:2077E000108247985D9A289A109289008AEF8093880090936F0083E080938100F0C0409116
:20780000000850910108109201081092000894B714BE88E10FB6F8948093600010926000D5
:207820000FBE292F30E0F901E270F07091FD18C090FF05C0859194918F5F9F4F81F423FFFF
:207840000FC08091090190910A014817590741F0E0E0F0E0859194918F5F9F4F09F042DC64
:20786000A0DF78941092AD011092AC010CC0DEDC36D38091AC019091AD0181549F4110F00D
:207880001092140141DC80911401882381F78091E00081608093E00025DC80E090E0089598
:2078A000FA01923049F0933061F09130F9F485E191E022E130E01EC087E291E02EE330E04D
:2078C00019C0882329F485E691E024E030E012C0813029F489E691E022E230E00BC0823006
:2078E00029F48DE891E028E130E004C080E090E020E030E091838083C90108958093E9004E
:207900008091EB0081608093EB001092ED006093EC004093ED008091EE00881F8827881F62
:2079200008958091B60188238CF403C08EB38823B1F08091E80082FFF9CF8091E8008B772A
:207940008093E80008958EB3882349F08091E80080FFF9CF8091E8008E778093E800089594
:20796000EF92FF920F931F9345D04CD008ED10E0F80180818F77808380818068808380819B
:207980008F7D808319BC1EBA1092B40180EEE82EF12CF70180818B7F8083F8018081816052
:2079A000808380E060E042E0A9DFE1EEF0E080818E7F8083E2EEF0E0808181608083808144
:2079C00088608083F70180818E7F8083F8018081806180831F910F91FF90EF900895E7ED06
:2079E000F0E08081816080838AE482BF81E08093B501B6CFE8EDF0E080818E7F808310921C
:207A0000E20008951092DA001092E10008951F920F920FB60F9211242F933F934F935F93F6
:207A20006F937F938F939F93AF93BF93EF93FF938091DA0080FF1BC08091D80080FF17C0B2
:207A40008091DA008E7F8093DA008091D90080FF0BC080E189BD82E189BD09B400FEFDCF36
:207A600081E08EBB3BD203C019BC1EBA37D28091E10080FF17C08091E20080FF13C0809138
:207A8000E2008E7F8093E2008091E20080618093E2008091D80080628093D80019BC85E049
:207AA0008EBB1CD28091E10084FF2CC08091E20084FF28C080E189BD82E189BD09B400FEC5
:207AC000FDCF8091D8008F7D8093D8008091E1008F7E8093E1008091E2008F7E8093E20012
:207AE0008091E20081608093E2008091B401882331F48091E30087FD02C081E001C084E067
:207B00008EBBECD18091E10083FF21C08091E20083FF1DC08091E100877F8093E10082E06A
:207B20008EBB1092B4018091E1008E7F8093E1008091E2008E7F8093E2008091E2008061E9
:207B40008093E20080E060E042E0D8DEC7D1FF91EF91BF91AF919F918F917F916F915F9130
:207B60004F913F912F910F900FBE0F901F9018959C014091BC015091BD014617570718F49D
:207B8000F90190E044C06115710511F0AB01F8CF8091E8008E778093E80040E050E0F0CF0F
:207BA0008EB3882309F444C0853009F443C08091E80083FF02C081E008958091E80082FD70
:207BC00031C08091E80080FF22C08091F3009091F200782F60E0292F30E0262B372B07C07A
:207BE00081918093F100415050402F5F3F4F4115510519F02830310598F390E02830310566
:207C000009F491E08091E8008E778093E8004115510531F6992321F605C08EB3882341F075
:207C2000853041F08091E80082FFF7CF80E0089582E0089583E008959C016115710529F47C
:207C40008091E8008B778093E800F90126C08EB3882391F1853091F18091E80083FF02C06C
:207C600081E008958091E80082FFF1CF06C08091F10081936150704059F02091F300809191
:207C8000F200322F20E090E0822B932B892B79F78091E8008B778093E80061157105B9F601
:207CA00005C08EB3882341F0853041F08091E80080FFF7CF80E0089582E0089583E00895C2
:207CC0000F931F93DF93CF9300D0CDB7DEB7E6EBF1E08091F100819381E0EE3BF807C9F792
:207CE00024DD8091E80083FFE4C08091B6019091B701953009F46DC0963040F4913081F1A7
:207D0000913070F0933009F0D4C02AC0983009F4A3C0993009F4B2C0963009F0CAC07CC023
:207D2000803809F4C6C0823809F0C3C08091BA0187708093E9008091EB001092E9002091DB
:207D4000E800277F2093E80090E025E0969587952A95E1F781708093F1001092F10087C0D8
:207D6000882319F0823009F0A4C08F71823009F0A0C08091B801882331F52091BA01277097
:207D800009F497C02093E9008091EB0080FF1BC0933021F48091EB00806213C08091EB0018
:207DA00080618093EB0081E090E002C0880F991F2A95E2F78093EA001092EA008091EB00E5
:207DC00088608093EB001092E9008091E800877F51C0882309F06DC01091B8011F770FB79B
:207DE000F8948091E800877F8093E8009ADD8091E80080FFFCCF8091E3008078812B809398
:207E0000E30080688093E300112311F482E001C083E08EBB0FBF4DC08058823008F049C033
:207E20008091B8019091B9016091BA01AE014F5F5F4F36DDBC01009709F43BC08091E8008E
:207E4000877F8093E80089819A8192DE8091E8008B778093E8002DC0803859F58091E800AA
:207E6000877F8093E8008091B4018093F1008091E8008E778093E80054DD1BC08823C9F4CA
:207E80009091B8019230A8F48091E800877F8093E8009093B40145DD8091B401882331F420
:207EA0008091E30087FD02C081E001C084E08EBB6CDC8091E80083FF0AC08091EB0080624E
:207EC0008093EB008091E800877F8093E8000F900F90CF91DF911F910F91089508951F9360
:207EE0008EB3882361F01091E9001092E9008091E80083FF01C0E4DE17701093E9001F916F
:207F00000895F999FECF92BD81BDF89A992780B50895262FF999FECF1FBA92BD81BD20BDBD
:207F20000FB6F894FA9AF99A0FBE01960895F894FFCF4341544552494E4100777700080031
:207F40000000000000080112011001020000084123360001000201000109023E00020100FF
:207F600080320904000001020201000524001001042402040524060001070582030800FF0C
:207F800009040100020A000000070504021000010705830210000104030904220341007216
:207FA000006400750069006E006F0020004C0065006F006E006100720064006F0000001836
:1A7FC00003410072006400750069006E006F0020004C004C004300000000D7
:00000001FF
