:100000000C94AE0E0C94D60E0C94D60E0C94D60E08
:100010000C94D60E0C94D60E0C94D60E0C94D60ED0
:100020000C94D60E0C94D60E0C94DA170C944C1833
:100030000C94D60E0C94D60E0C94D60E0C94D60EB0
:100040000C94D60E0C94D60E0C94D60E0C94D60EA0
:100050000C94D60E0C94D60E0C94D60E0C94EF1273
:100060000C94D60E0C94D60E0C94D60E0C94D60E80
:100070000C94D60E0C94D60E0C94D60E0C94D60E70
:100080000C9439130C94D60E0C94D60E0C94D60EF8
:100090000C94D60E0C94D60E0C94D60E0C94D60E50
:1000A0000C94D60E0C94D60E0C94D60E05A84CCDFE
:1000B000B2D44EB93836A9020C50B9918688083CA2
:1000C000A6AAAA2ABE000000803FF0F89C8E878373
:1000D000878E9CF8F00000FEFF0303030303070E66
:1000E000FCF80000FEFF0303030303070EFCF80007
:1000F00000FFFF00000000000000FFFF0000FEFF07
:100100008383838383C7EE7C380000F8FC0E0703EB
:100110000303070EFCF800003F7FE0C08080C0E0D2
:100120007F3FFFFF01010101010101FFFF0000FF0F
:10013000FF0C0C0C0C1C3E77E3C100007FFFC0C01D
:10014000C0C0C0E0703F1F00001F3F70E0C0C0C0D3
:10015000E0703F1F00007FFFC1C1C1C1C1E3773E16
:100160001C00001F3F70E0C0C0C0E0703F1F0000D7
:1001700000000001FFFF01000000D5F08D14A1C8B0
:1001800081CFD9F1AF200040100000000000000036
:1001900000000000000000000000000000000080DF
:1001A000800080C0C08080C0C08080C0C08080C00F
:1001B000C080C0C0C04040C0808080C0C0C0C0609F
:1001C000E070F0000000000000000000101018189F
:1001D000181C1C183CBCDEEEF67A7A3B1B263F2F1F
:1001E0001F1F2F373F2F1F1F2F373F2F0F173B3B4F
:1001F000FBFBF7EF1F7E7E676F7367716370617043
:10020000603020300000000000000000000000000E
:10021000000000000000000000000000000000805E
:10022000800080C0C08080C0C08080C0C08080C08E
:10023000C080C0C0E02020E0C0C0C0E0E060E0308E
:1002400070387800000000000000000020203030EE
:10025000303838383C3C3E0E367AFAFBFBE6DF2F6E
:100260001F1F2F373F2F1F1F2F373FCFEFF7FBFBEE
:100270007B3B374F7F7F7F733739333831383038A6
:1002800030181018000000000040100000000000AE
:10029000000000000000000000000000008080005E
:1002A00080C0C080C0E0E0C0C0E0E0C0C0E0E0C00E
:1002B000C0E0E0C0E0E0E0E0E0E0C0C0C0E0E0E0DE
:1002C000E0F0F0F8F8F0000000000000001038380E
:1002D0003C3C3C3E3E3CFEFEFFFFFFFFFF7F3F7F7E
:1002E0007F7F3F3F7F7F7F7F3F3F7F7F7F7F3F3F9E
:1002F0007FFFFFFFFFFFFFFFFFFFFFFFFFFFF7FB9A
:10030000F3F9F1787178300000000000000000007F
:1003100000000000000000000000000000808000DD
:1003200080C0C080C0E0E0C0C0E0E0C0C0E0E0C08D
:10033000C0E0E0C0E0E0F0F0F0F0E0E0E0F0F0F08D
:10034000F0F8F87CFC7800000000000000207070DD
:100350007878787C7C7C7E7E7F7FFFFFFFFFFFFFCD
:10036000FFFF3F3F7F7F7F7F3F3F7F7FFFFFFFFF9D
:10037000FFFFFF7F7FFFFFFFFFFF7F7F7F7F7B7D93
:10038000797C783C383C18000000004010000000E8
:10039000000000000000000000000000000000005D
:1003A00000000080800080C0C08080C0C08080C00D
:1003B000C08080C0C080C0C040C0404080808000FD
:1003C000000000400040004000000000000000006D
:1003D00010101818181C1C183CBCDEEEF67A7A3B7C
:1003E0001B263F2F1F1F2F373F2F1F1F2F373F2F3A
:1003F000171F2F2FEFEFDFD03F3F26263F3F3F1F36
:100400001F1F1F5F1F5F1F551F0E000000401000C1
:1004100000000000000000000000000000000000DC
:100420000080800080C0C080C0E0E0C0C0E0E0C0CC
:10043000C0E0E0C0C0E0E0C0E0E0E0E0E0E0C0C07C
:10044000C0808080C0E0C0E0C0E0C00000000000CC
:10045000001038383C3C3C3E3E3CFEFEFFFFFFFFB8
:10046000FF7F3F7F7F7F3F3F7F7F7F7F3F3F7F7F5C
:100470007F7F3F3F7FFFFFFFFFFFFF7F7F7F7F7F0C
:100480007F3F3F3F7FFF7FFF7FFF7F1F0E000040CA
:10049000100000000000000000000000000000004C
:1004A0000000000000000080800080C0C08080C08C
:1004B000C08080C0C08080C0C080C0C0C040C0407C
:1004C000808000000000000000000000000000002C
:1004D0000000000010101818181C1C183CBCDEEEA0
:1004E000F67A7A3B1B263F2F1F1F2F373F2F1F1FE8
:1004F0002F373F2F0F173B3BFBC3BBBD3B457E75E3
:100500006F776F776E766E766C342C340000000057
:1005100000000000000000000000000000000000DB
:100520000000000000000080800080C0C08080C00B
:10053000C08080C0C08080C0C080C0C0E0A060A07B
:10054000C0C080800000000000000000000000002B
:100550000000000020203030303838383C3C3E0E5F
:10056000367AFAFBFBE6DF2F1F1F2F373F2F1F1FA7
:100570002F373FCFEFF7FBFB7B231D5E5D627F7262
:10058000373B373B373B373B361A161A0000000023
:10059000004010000000000000000000000000000B
:1005A000000000000080800080C0C080C0E0E0C08B
:1005B000C0E0E0C0C0E0E0C0C0E0E0C0E0E0E0E0FB
:1005C000E0E0C0C0808000000000000000000000EB
:1005D00000000000001038383C3C3C3E3E3CFEFE33
:1005E000FFFFFFFFFF7F3F7F7F7F3F3F7F7F7F7F5B
:1005F0003F3F7F7F7F7F3F3F7FFFFFFFFFFFFFFF8B
:10060000FFFFFFFFFFFFFFFFFFFFFE7E7E7E340048
:1006100000000000000000000000000000000000DA
:10062000000000000080800080C0C080C0E0E0C00A
:10063000C0E0E0C0C0E0E0C0C0E0E0C0E0E0F0F05A
:10064000F0F0E0E0C0C0808080800000000000008A
:1006500000000000002070707878787C7C7C7E7EC2
:100660007F7FFFFFFFFFFFFFFFFF3F3F7F7F7F7F1A
:100670003F3F7F7FFFFFFFFFFFFFFF7F7FFFFFFF0A
:10068000FFFF7F7F7F7F7F7F7F7F7F3F3F3F1A001E
:10069000000000202000000000000000008040203A
:1006A00010100888888888C85020008080000000CA
:1006B0000000000000000000000080C0E0E708DE4D
:1006C000DA32FFFFFFB9B9BF1E9CC1FF3F03000034
:1006D0000000000000000000060F1F797078B8C10C
:1006E000C3E7EE6E6D6DEDE0E6C3810000000080B3
:1006F000C00000000000001838746E4E07030301AC
:1007000000000000000000000101030707181E0F91
:10071000030000000020200000000000000080C056
:10072000E0F0F8F8FCFCFCFCFCFCF870A0C0C08019
:10073000000000000000000000000080C0E0F7FFA3
:10074000FFFFFFFFFFFFFFFFFFFFBFFFFFFFFF3FB9
:10075000030000000000000000060F1F7FFFF9FDEE
:10076000FDFBE7FFFFFFFFFFFFFFFFE7C381800007
:1007700080C0E0C000000000183C7CFEFFFF4F0777
:10078000070301010100000001010303070F1F3FE0
:100790003F1F0F03000000202000000000000000A9
:1007A0000080402010100888888888C850200000E9
:1007B0000000000000000000000000000000000039
:1007C00080C708DEDA32FFFFFFB9B9BF1E1C000088
:1007D0000000000000000000000000000000000019
:1007E0000F1F3873677678BCDDC1DD9C000E0000FA
:1007F00000000000800000000000000000183870B9
:100800006C6E4E0F0707020101010307070F0E165A
:100810003A3C1E070100000000000000000000003C
:1008200000C02010080884C4C4C4C4E42810000018
:1008300000000000000000000000000000000000B8
:10084000C0E305EFED197F7FFFDCDC5F0F0E0000DA
:100850000000000000000000000000000000000098
:100860000F3F38717B3B32C6EEE0CE803F78780098
:100870000000000000000000000000000000000078
:10088000707870605C5E1E0E0E677773606060004B
:100890000000000000000000002020000000000018
:1008A000000080C0E0F0F8F8FCFCFCFCFCFCF870F8
:1008B0002000000000000000000000000000000018
:1008C0000080C7EFFFFFFFFFFFFFFFFFFFFF3F3E7F
:1008D0001C000000000000000000000000000000FC
:1008E000000F1F3F7FFFFFFFFFFFFFFFFFFF9E9FE8
:1008F0000E0000000080C080000000000000183CD6
:100900007CFCFEFFFF5F0F0F07030303070F0F1FA2
:100910001F3F7F7E3F1F0701000000000000000016
:100920000000C0E0F0F8FCFCFEFEFEFEFEFEFC381F
:1009300010000000000000000000000000000000A7
:1009400000C0E3F7FFFFFFFFFFFFFFFFFFFF9F1F59
:100950000E00000000000000000000000000000089
:10096000000F3F7F7FFBFF7FFFFFFFFFFFFFFFFFCA
:10097000FC78000000000000000000000000000003
:100980000070F8FCF8FCFEFF7F1F7FFFFFFFF3F015
:10099000F0600000000000000000002020000000C7
:1009A0000000000000000000804020201010101007
:1009B0001090A040000000000000000000000000B7
:1009C000000000008080808F10BCB464FEFFFF73C5
:1009D000737F3C38000000000000000000000000B1
:1009E000387C5EEFF7E305A7BBBCBFBCDBD7D6D72F
:1009F0008B7B3000000000000000000000000000C1
:100A0000001838706C6E4F0F07071B3535363737B7
:100A100007030000000000000000000000000000CC
:100A20000000000000000000000000808040404006
:100A30004040408000000000000000000000000076
:100A40000000000000000000BC42F1F090F8FCFC47
:100A5000CCCCFEF2E100000000000000000000002D
:100A60000000387C5EEFF7E718BFBCBBB3AF9FBB9D
:100A7000BD5DEDC08000000000000000000000002F
:100A800060783830083838381B5F6F7341307377BF
:100A90007F3F0001477E780000000000002020001A
:100AA00000000000000000000080C0E0F0F0F8F856
:100AB000F8F8F8F8F0E04000000000000000000046
:100AC000000000000080C0C0CFDFFFFFFFFFFFFF7E
:100AD000FFFFFFFF7F7C38000000000000000000E7
:100AE00000387CFEFFFFFFF7EFFFFFFFFFFFFFFF78
:100AF000FFFFFFFF7B30000000000000000000004F
:100B00000000183C7CFDFFFFFF5F0F1F3F7F7F7FD2
:100B10007F7F3F070300000000000000000000008E
:100B200000000000000000000000000080C0C0E0E5
:100B3000E0E0E0E0E0C08000000000000000000015
:100B4000000000000000008080BCFEFFFFFFFFFFF0
:100B5000FFFFFFFFFFFFF3E10000000000000000C7
:100B6000000000387CFEFFFFFFFFFFFFFFFFFFFFDD
:100B7000FFFFFFFFFFEDC18000000000000000004C
:100B800000E0F8FC7C7C3C7D7D7FFFFFFFFFFBFBF2
:100B9000FFFFFFFF7FC7FFFFFE780000000000108F
:100BA0001000000000001814141C38F000000000B1
:100BB0000000000000406070584C565350504040B8
:100BC00000000000000080808000808080800000A5
:100BD0000000001C0E0704444758171717575758B2
:100BE0002000387E72723EDEFC00008080800000B3
:100BF00000000000000000074D5A57171717575AFA
:100C00000000000000000040F8400000000000006C
:100C1000000000203060664C4C4C666030200000C4
:100C200000101000000000383C3E3E3EFCF8F00092
:100C3000000000000000C0E0F0F8FCFEFFFFFBF841
:100C4000F0E0C00000000080C0C0C080C0C0C0C0D4
:100C5000800000001C3E3F0FCFEFFFFFFF3FFFFF74
:100C6000FFFFFC387EFFFFFFFFFFFEFC80C0C0C01F
:100C7000800000000000000007CFFFFFFFFF3FFFE4
:100C8000FFFFDE0000000000C0F8FCF8C00000001C
:100C900000000000207078FEFFFFFFFFFFFE78706D
:100CA000200000121000003C6642C2FEFCF85C9C72
:100CB0009CFEDA92623C00001EF08EBFB0AF912E17
:100CC0009FDBDBDBCB83010000000078CC8484FC5D
:100CD000F8F0B83838FCB424C478000038E0CEBE50
:100CE000B1AFA35DBEB7B7B7D7870200001210003F
:100CF0003C7EFFFFFFFFFEFCFEFEFEFFFFFFFF7ED0
:100D00003C1EFFFEFFFFFFFFFFFFFFFFFFFFFFCFC8
:100D10008301000078FCFEFEFEFEFCF8FCFCFCFEFD
:100D2000FEFEFEFC7838FCFEFFFFFFFFFFFFFFFF2B
:100D3000FFFFFFDF870200392000000000000000F5
:100D400000008080808080808080000000000000A3
:100D500000000080808080C0C0C0C0C0C0C0808053
:100D60008080C0E0000080800000000000000000E3
:100D7000000000000000F0F8FCFEFFFFFFF7F7EFB7
:100D8000DFBF7FFFFFFFFFFFFFFFFFFFFFFFFBFB5B
:100D9000FBF7CF3FFFE31DFEFFFFFFFFDF9F9FF944
:100DA000E0C0C0800080C0C0E070000070180EE796
:100DB000EFDFBF7FFFFF7FBFFFFFFF7FBEC1FFFFF2
:100DC000FFFFFFFFFFEFCF9F7FFFFFFFFFF8073F12
:100DD0001C0B070F1F1F3F3F3F2F2F0F1F3C3B17C1
:100DE00003010000000000FFFFFF83010001060F68
:100DF0001F3FFFF9E0C080000000000000C0F0F8D5
:100E0000FE1E09073FFFFFFCE0C0000000000000DD
:100E100000000000000000000000000000000000D2
:100E200000000000000080808080808080800000C2
:100E30000000000000000080808080C0C0C0C0C0F2
:100E400080800000000080C0000000000000000062
:100E500000000000000000000000F0F8FCFEFFFFB2
:100E6000F7EF9F7FFFFFFFFFFFFFFFFFFFFFFFFF8A
:100E7000FFFFFBF7EFDFBF7FFFC73BFDFFFFFFFF7C
:100E8000BF3E3EF3C180800000008080C0E00000D3
:100E900070180E071F3FA79FFFFFFFFFFE017FFF98
:100EA000FFFFFFFFFFFFFFFFFF6F8FFFFFFFFFFF52
:100EB0001F607F3E19170F1F3F3F7F7F7F5F5F1FC0
:100EC0003F78772F0703000000000078FCFEFFFF4B
:100ED000DF0F0703050E7FFFFCF0E0C000000000FD
:100EE000C0F0FCFF1F0F0703043FFEF87000000076
:100EF00000000000000000000000000000000000F2
:100F000000000000000000000000000000000000E1
:100F10000000000000000000000000000000008051
:100F2000800000000000800000C000000000000001
:100F3000000080E0F8E00000000000000000E0F0A9
:100F4000F8FCFEFFEFDF3FFFFFFFFFFEFEFEFEFEB1
:100F5000FEFEFEFEFFFFF7EFDFBF77F7FB1CFFFF94
:100F6000FEFFFFFEFCE4E4FCFCFE7E7D7B7B3B1889
:100F700018000000E0301C0F3F7F4F3FFFFFFFFFD6
:100F8000FC03FFFFFFFFFFFFFFFFFFFFFFDF1FFF70
:100F9000FFFFFFFF3EC1FF7E3D3B1B170707070713
:100FA000070706070301000000000000000000F032
:100FB000F8FCFEFFBF1F0F070B1DFEFEF9E1C1810C
:100FC0000101010181E1F8FF3F1F0F07097EFCF0DD
:100FD000E0800000000000000000000000000000B1
:100FE0000000000000392000000000000000008028
:100FF000C0C0C0C0C0C0C0C08080808080808080F1
:1010000080C0C0C0C0E0E0E0E0E0E0E0C0C0C0C040
:10101000E0F0E080C0C080000000000000000000A0
:10102000000000F0F8FCFEFFFFFFFFFFFFFFFFFFE7
:10103000FFFFFFFFFFFFFFFFFFFFFFFFFFFFFFFFC0
:10104000FFFFFFFFFFFFFFFFFFFFFFFFFFFFF9E0D5
:10105000E0C080C0E0E0F0F87070F87EFFFFFFFFB6
:10106000FFFFFFFFFFFFFFFFFFFFFFFFFFFFFFFF90
:10107000FFFFFFFFFFFFFFFFFFFFFFFFFF7F3F1FA0
:101080000F1F3F3F7F7F7F7F7F3F3F7F7F3F170364
:1010900001000000FFFFFFFFFF8301070F1F3FFF5D
:1010A000FFFFF9E1C18101010101C1F1F9FFFFFF7A
:1010B0001F3FFFFFFFFFFCE0C0000000000000003A
:1010C0000000000000000000000000000000000020
:1010D00000000080C0C0C0C0C0C0C0C08080808090
:1010E0008080808080C0C0C0C0E0E0E0E0E0C0C0A0
:1010F00080808080C0E0C000808000000000000090
:1011000000000000000000F0F8FCFEFFFFFFFFFF02
:10111000FFFFFFFFFFFFFFFFFFFFFFFFFFFFFFFFDF
:10112000FFFFFFFFFFFFFFFFFFFFFFFFFFFFFFFFCF
:10113000FFFFF3C1C0800080C0C0E0F0E070F87E27
:101140001F1F3FFFFFFFFFFFFFFFFFFFFFFFFFFF2F
:10115000FFFFFFFFFFFFFFFFFFFFFFFFFFFFFFFF9F
:10116000FF7F3F3F1F3F7F7FFFFFFFFFFF7F7FFF2F
:10117000FF7F2F070300000078FCFEFFFFFFFFDF6B
:101180000F071F7FFFFFFFFDF1E1C10101C1F1FD6D
:10119000FFFFFF3F0F0F3FFFFFFE78300000000012
:1011A000000000000000000000000000000000003F
:1011B000000000000000000080808080808080802F
:1011C00000000000000000000080808080C0C0801F
:1011D00080800080C080C0E0C0000000000000806F
:1011E000E0F8FCF8E0000000000000E0F0F8FCFE91
:1011F000FFFFFFFFFFFFFFFFFFFFFFFFFFFFFFFFFF
:10120000FFFFFFFFFFFFFFFFFFFFFFFFFFFFFFFFEE
:10121000FFFFFEFEFEFEFFFFFFFFFFFFFF3F3C184C
:1012200000E0F0FC3F3F7FFFFFFFFFFFFFFFFFFFFE
:10123000FFFFFFFFFFFFFFFFFFFFFFFFFFFFFFFFBE
:10124000FFFFFFFFFFFF7F7F3F3F1F1F0F0F0F0FAE
:101250000F0F07030100000000000001F0F8FCFE82
:10126000FFFFFFBF1F0F3FFFFFFFFFFBE3C3830332
:101270000383E3FBFFFFFF7F1F1F7FFFFFFDF0E006
:1012800080000000000000000000000000000000DE
:1012900000000015100040D0B0E0C0E0E0707078B1
:1012A000F8F898906080C080000000406262737B14
:1012B0003D1E0F171B1C0F0700010303070F000043
:1012C00000464EDEBE7EFCF8E010F0F03020C0009C
:1012D0008000000000020B0D07030E1D1D3D3E3F68
:1012E0001F0F010207070F1E00151040F0F8F8F05D
:1012F000E0F0F0F8F8FCFCFCFCF8F0E0E0C0800066
:1013000040E2F7F7FFFF7F3F1F3F3F3F1F0F0703FD
:1013100007070F1F0F0046EFFFFFFFFFFEFCF8F867
:10132000F8F8F8F0E0C0C0800000020F1F1F0F0F98
:101330001F3F3F7F7F7F3F1F0F070F0F1F3F1E88FD
:1013400008F884FA82FA84F880F884FA82FA84F839
:1013500080F884FA82FA84F880F884FA82FA84F8B1
:1013600080F884FA82FA84F880F884FA82FA84F8A1
:1013700080F884FA82FA84F880F884FA82FA84F891
:1013800080F884FA82FA84F880F884FA82FA84F881
:1013900080F884FA82FA84F880F884FA82FA84F871
:1013A00080F884FA82FA84F880F884FA82FA84F861
:1013B00080F884FA82FA84F880F884FA82FA84F851
:1013C00080F884FA82FA84F88000000000000000AF
:1013D000000000000000808080808080808080008D
:1013E00000808080800000000000808080800000FD
:1013F00000804040404040408080000000008080ED
:1014000080808080808080000000008080808080DC
:10141000000000000000808080808000000000004C
:10142000000000800000000000008080808080803C
:1014300080000000008080808080808080800000AC
:10144000000000000000000000000000000000009C
:101450000000000000000181C1C161391D0F0700BB
:101460000F191030FF7FBED7E7E7FFF6E4580F00F3
:10147000E1F2FECCCCFCFCF890D0F1423C00FFFF46
:101480006161616161610100001E3E6161616161D4
:10149000C6860000FEFE010101010106060000FCF7
:1014A000FEC6C3C1C3C6FEFC0000FFFF61616161EF
:1014B000613F1E0000FFFF61616161616101000029
:1014C000000000000000000000000000000000001C
:1014D0000000000000000F0F0D0C0C0C0C0C0C0099
:1014E0000000000003040B070606060200000000CF
:1014F0000000050D0D0F07070100000000000F0F91
:101500000C0C0C0C0C0C0C000002060C0C0C0C0C43
:101510000703000003070C0C0C0C0C060200000F64
:101520000F00000000000F0F00000F0F0000000070
:1015300000000000000F0F0C0C0C0C0C0C0C000039
:10154000000000000000000000000000000000009B
:10155000000000000000000000000000000000008B
:10156000000000000000000000000000000000007B
:101570000000000080C0E0F0F0F0F0F0F0F0F0E0EB
:10158000E0E0E0E0E0E0E0E0F0F0707078F8F8F83B
:10159000F878B8D0F0F0F0F8FCE0E030100000008F
:1015A000000000000000000000000000000000003B
:1015B000000000000000000000000000000000002B
:1015C000000000000000000000000000000000001B
:1015D000000000000000000000000000000000000B
:1015E00000000000000000000000000000000000FB
:1015F00000C0FEFFFFFFFFFFFFFEFEFDFBF7EFDF7A
:101600003FFFFFFFFFFFFFFFFFFFFFFFFFFEF9C7E9
:101610003FFCE39F7FFFFFFFFBF3F3FFFCF8F8F0D5
:101620008070F8783C0E0000000000000000000010
:1016300000000000000000000000000000000000AA
:10164000000000000000000000000000000000009A
:10165000000000000000000000000000000000008A
:101660000000000000000000000000000000000E6C
:1016700003E1FCFD7B370F3FDFEFF7FFFF3F0F1765
:10168000181F1F1F1F1F1F5FDDD9D3CF3FFFFFFF95
:10169000FEFD03030100010303070707050501031E
:1016A000070702000000000000000000000000002A
:1016B000000000000000000000000000000000002A
:1016C000000000000000000000000000000000001A
:1016D000000000000000000000000000000000000A
:1016E00000000000000000000000000000000000FA
:1016F000001F1F1F10000000000103071F1F1C1800
:101700001000000000000000000F1F1F1000071F46
:101710001F1F1C1800000000000000000000000057
:1017200000000000000000000000000000000000B9
:1017300000000000000000000000000000000000A9
:101740000000000000000000000000000000000099
:101750000000000000000000000000000000000089
:101760000000000000000000000000000000000079
:101770000000000000000000000000000000000069
:101780000000000000000000000000000000000059
:101790000000000000000000000000000000000049
:1017A0000000000000000000000000000000000039
:1017B0000000000000000000000000000000000029
:1017C000000000000000000000010204081020409A
:1017D0008000000000003E5B4F5B3E3E6B4F6B3E67
:1017E0001C3E7C3E1C183C7E3C181C577D571C1C24
:1017F0005E7F5E1C00183C1800FFE7C3E7FF00187F
:10180000241800FFE7DBE7FF30483A060E26297967
:101810002926407F050507407F05253F5A3CE73CC8
:101820005A7F3E1C1C08081C1C3E7F14227F221479
:101830005F5F005F5F06097F017F006689956A60D0
:101840006060606094A2FFA29408047E04081020E7
:101850007E201008082A1C08081C2A08081E1010E0
:1018600010100C1E0C1E0C30383E3830060E3E0E8A
:1018700006000000000000005F00000007000700F5
:10188000147F147F14242A7F2A12231308646236DB
:10189000495620500008070300001C224100004167
:1018A000221C002A1C7F1C2A08083E0808008070A1
:1018B00030000808080808000060600020100804D4
:1018C000023E5149453E00427F4000724949494627
:1018D0002141494D331814127F1027454545393CA5
:1018E0004A49493141211109073649494936464992
:1018F00049291E00001400000040340000000814B4
:10190000224114141414140041221408020159092C
:10191000063E415D594E7C1211127C7F4949493681
:101920003E414141227F4141413E7F494949417FFA
:10193000090909013E414151737F0808087F0041B0
:101940007F41002040413F017F081422417F4040F9
:1019500040407F021C027F7F0408107F3E414141CE
:101960003E7F090909063E4151215E7F091929463A
:10197000264949493203017F01033F4040403F1F50
:101980002040201F3F4038403F6314081463030485
:101990007804036159494D43007F414141020408E5
:1019A0001020004141417F040201020440404040B8
:1019B00040000307080020545478407F28444438EE
:1019C0003844444428384444287F38545454180038
:1019D000087E090218A4A49C787F080404780044B7
:1019E0007D40002040403D007F1028440000417FA2
:1019F00040007C047804787C08040478384444442B
:101A000038FC1824241818242418FC7C0804040822
:101A1000485454542404043F44243C4040207C1C3B
:101A20002040201C3C4030403C44281028444C902E
:101A300090907C4464544C44000836410000007788
:101A40000000004136080002010204023C26232661
:101A50003C1EA1A161123A4040207A385454555995
:101A600021555579412154547841215554784020CD
:101A7000545579400C1E52721239555555593954E6
:101A800054545939555454580000457C410002457E
:101A90007D420001457C40F0292429F0F0282528CA
:101AA000F07C545545002054547C547C0A097F49ED
:101AB00032494949323248484832324A4848303A35
:101AC0004141217A3A42402078009DA0A07D3944CE
:101AD0004444393D4040403D3C24FF2424487E4955
:101AE00043662B2FFC2F2BFF0929F620C0887E0987
:101AF0000320545479410000447D413048484A3223
:101B0000384040227A007A0A0A727D0D19317D260A
:101B100029292F28262929292630484D40203808F0
:101B200008080808080808382F10C8ACBA2F102871
:101B300034FA00007B000008142A142222142A140C
:101B4000089500220095AA005500AAAA55AA55AAF0
:101B5000000000FF00101010FF00141414FF00100C
:101B600010FF00FF1010F010F0141414FC001414F7
:101B7000F700FF0000FF00FF1414F404FC14141716
:101B8000101F10101F101F1414141F00101010F03D
:101B9000000000001F101010101F10101010F01087
:101BA000000000FF101010101010101010FF100097
:101BB0000000FF140000FF00FF00001F10170000CE
:101BC000FC04F414141710171414F404F40000FFA8
:101BD00000F714141414141414F700F71414141741
:101BE0001410101F101F141414F4141010F010F01F
:101BF00000001F101F0000001F14000000FC140054
:101C000000F010F01010FF10FF141414FF14101047
:101C1000101F00000000F010FFFFFFFFFFF0F0F0CA
:101C2000F0F0FFFFFF0000000000FFFF0F0F0F0F9D
:101C30000F38444438447C2A2A3E147E02020606A9
:101C4000027E027E0263554941633844443C0440AD
:101C50007E201E2006027E020299A5E7A5991C2A75
:101C6000492A1C4C7201724C304A4D4D3030487834
:101C70004830BC625A463D3E494949007E01010157
:101C80007E2A2A2A2A2A44445F444440514A444036
:101C900040444A51400000FF0103E080FF0000087B
:101CA000086B6B083612362436060F090F06000043
:101CB00018180000001010003040FF0101001F0143
:101CC000011E00191D1712003C3C3C3C00000000A6
:101CD00000080B00020202010009040000010202D8
:101CE000000005240010010524010101042402065E
:101CF00005240600010705810310004009040100C6
:101D0000020A0000000705020240000007058302E6
:101D10004000000403090441726475696E6F204C31
:101D20004C430041726475696E6F204C656F6E6143
:101D300072646F00120100020000004041233680EF
:101D400000010102030112010002EF0201404123E0
:101D500036800001010203012F23292311241FBE15
:101D6000CFEFDAE0DEBFCDBF11E0A0E0B1E0E0EE02
:101D7000F3E502C005900D92A43AB107D9F726E029
:101D8000A4EAB1E001C01D92AA38B207E1F71EE053
:101D9000CDEADEE004C02197FE010E94D127CC3AB3
:101DA000D107C9F70E94891A0C94E3290C9400000A
:101DB000CF92DF92EF92FF920F931F93CF93DF9317
:101DC0006C017A018B01C0E0D0E0CE15DF0589F00F
:101DD000D8016D918D01D601ED91FC910190F081BA
:101DE000E02DC6010995892B11F47E0102C02196D0
:101DF000ECCFC701DF91CF911F910F91FF90EF9032
:101E0000DF90CF9008958091C001E091BE01F091E4
:101E1000BF01882349F0CF0102969093BF018093C0
:101E2000BE01859194910895CF0102969093BF01D0
:101E30008093BE01808191810895CF92DF92EF92CD
:101E4000FF920F931F93CF93DF930E94030F81158F
:101E500020E8920761F4809171008D7F809371007A
:101E600010929100469847981092BD018BC021E0D6
:101E70002093BD01813020E8920751F48091BB018D
:101E80009091BC019093BF018093BE010E94030F0B
:101E900097FD05C02091BA01222309F43FC020918B
:101EA000B90121113BC021E02093C101EC01DF7792
:101EB000209769F481E08093C20146983FE9C32EE0
:101EC0003FE0D32EE12CF12CCAEFD0E014C08E01FC
:101ED00020E030E060E472E48FE090E0A901980136
:101EE0000E94EB2569017A0181E0C81AD108E10856
:101EF000F1081092C201E091DE05F091DF0509952D
:101F0000811103C081E08093C2018091C1018823C7
:101F1000B9F18091C201811133C003C01092C10197
:101F2000C5CF46992DC0479A0E94030F009771F0C4
:101F30009C01DE010E947626DC01CB0129E0B595EB
:101F4000A795979587952A95D1F703C08FEF9FEFB7
:101F5000DC01109290002AE020939100D092990029
:101F6000C09298008093C3019093C401A093C501CF
:101F7000B093C6018091710082608093710002C0AD
:101F80004798D2CFDF91CF911F910F91FF90EF90A3
:101F9000DF90CF9008954F925F926F927F928F92D1
:101FA0009F92AF92BF92CF92DF92EF92FF920F93E8
:101FB0001F93CF93DF9300D000D0CDB7DEB7490198
:101FC0002C2DA02EB12CDC01AA0DBB1D1A161B0650
:101FD0000CF0B3C1803891050CF0AFC1FB01EE0DE0
:101FE000F11D1E161F060CF0A8C1603471050CF01F
:101FF000A4C14115510509F4A0C1FB0177FF04C03C
:10200000EE27FF27E61BF70B3E2F3770732EFB01E1
:1020100077FD379633E0F595E7953A95E1F73E2F52
:1020200077FF07C0772029F03FEF3E0F68E0671980
:10203000762E97FF05C0EE27FF27E81BF90B02C09D
:10204000E0E0F0E0A038B10524F060E8F62EF81AE0
:1020500001C0F02EFE1A632F032E000C770B3F3FBA
:102060001CF4A62FA09501C0A0E011E0BE2DB77012
:1020700009F410E0E694E694E694E10E6E0D711D0D
:10208000693071051CF068E0E62EE31AEA1A3A0F8F
:1020900060E83603800D911D11248E0F9F1FA09FB5
:1020A000E00DF11D11244E0F5F1F61E070E0072C61
:1020B00002C0660F771F0A94E2F7233009F4FCC0D0
:1020C00098F4213009F4AEC0223009F036C12FEF68
:1020D000269F8001279F100D1124009510951C83C9
:1020E0000B835C80E30E27C02A3F29F02B3F09F0C9
:1020F00024C1E30E83C0E30E4EC0FA01EC0DFD1DBA
:10210000E491E69F4001E79F900C11249A82898216
:1021100037FD04C02C912023822A8C92711014C0A8
:10212000EFEFCE1ADE0A1196CF1438F33F5F4A0D57
:102130005B1D80589F4F3E1509F4FFC0DC01A05382
:10214000BE4FC12CD12CF0CF373054F7FD01E058F1
:10215000FF4F208125219A8029292083E1CFFA0190
:10216000E00FF11FE491E69F6001E79FD00C11247E
:10217000DA82C98237FD03C02C91C22ACC92711039
:1021800013C00F5F1F4F11960F1548F33F5F4A0DA5
:102190005B1D80589F4F3E1509F4CFC0DC01A05352
:1021A000BE4F00E010E0F0CF37305CF7FD01E058A3
:1021B000FF4FD0802A812D292083E3CFFA01EC0D37
:1021C000FD1DE491E69FD001E79FB00D1124BA8375
:1021D000A98337FD05C0A095F8012081A223A08323
:1021E000711015C0FFEFCF1ADF0A0F5F1F4FCF141A
:1021F00028F33F5F4A0D5B1D80589F4F3E1509F441
:102200009CC08C0100531E4FC12CD12CF0CF373015
:102210004CF7F801E058FF4F2A812095A0812A232E
:102220002083E0CFD401AE0FBF1FE30E3E1509F4AB
:1022300084C0FC01E053FE4F4F01C12CD12CCF14C0
:1022400098F5FD01EC0DFD1DE491E69F8001E79FEF
:10225000100D1124009510951C830B83FA01EC0DD1
:10226000FD1DE491E69F2001E79F500C11245A8246
:10227000498237FD05C0F40120810223402A4082B3
:10228000772059F037304CF4F401E058FF4F1081BB
:102290002C8121231A81212B2083FFEFCF1ADF0A03
:1022A0002FEF821A920ACBCF3F5F4A0D5B1DAA0D1A
:1022B000BB1D80589F4FBACFCF2CD12CE40FF51FF8
:1022C000DC01A053BE4FAC01405B5D4F00E810E065
:1022D0000C191D09AC18BD08AA0CBB1C6F2C2E2DA7
:1022E000CF93DF93EA018590C590772059F0869EC1
:1022F0004001C69E600137302CF49881D0949D2116
:102300009929999333233AF09C91C0949C21982960
:102310009D930C948C111196FA9429F7EA9451F03C
:10232000F62C33951124EA0DF11DA00FB11DC00F3D
:10233000D11DD9CFDF91CF9111240F900F900F9025
:102340000F90DF91CF911F910F91FF90EF90DF9051
:10235000CF90BF90AF909F908F907F906F905F9045
:102360004F9008958091A40108952F923F924F922B
:102370005F926F927F928F929F92AF92BF92CF9215
:10238000DF92EF92FF920F931F93CF93DF93EC01B5
:102390006A3069F42C8D888D998D38E0239F800DEB
:1023A000911D1124998F888F1F8A1E8AA1C06D30BC
:1023B00009F49EC03C8D5B8C4A8CC88CD98C8E896C
:1023C0009F898038910584F02C8D422F50E08E89B2
:1023D0009F89A6E02A9F800D911D11249F8B8E8BD3
:1023E0002D8D211172C084C0B0E4CB16D10464F7E6
:1023F000AC01E5E03E9F400D511D11241416150659
:102400001CF7A32EB12CA601F8E03F9F400D511DF3
:10241000112414161506C4F625E0629FB00111249C
:102420006F52784E912C40E1342EFB018490F5E000
:102430009F1201C0812C760128E0722E80FC02C020
:10244000652C01C0642C611009C0541007C086942B
:102450007A94EA0CFB1C7110F1CF2EC0AC01242E33
:10246000242F281B231798F78701202FE02FEE1920
:10247000E317F8F440385105C8F400341105B0F4FE
:10248000E9ECF7E1329ED001A0781124A20D27706B
:10249000E20FF11D2491A053BE4F662019F0EC917C
:1024A0002E2B03C02095EC912E232C930F5F1F4FF2
:1024B000DCCF4F5F5F4FD3CF93948A0D9B1D6F5F2F
:1024C0007F4FF6E09F12B1CF7FCF6AEF6403900198
:1024D000659F300D112420583F4F2817390744F4C9
:1024E000CE01E881F9810190F081E02D6AE0099543
:1024F00081E090E0DF91CF911F910F91FF90EF90DD
:10250000DF90CF90BF90AF909F908F907F906F9013
:102510005F904F903F902F90089508950E94CE298C
:102520003FB7F8948091C8019091C901A091CA0168
:10253000B091CB0126B5A89B05C02F3F19F001969D
:10254000A11DB11D3FBFBA2FA92F982F8827820F39
:10255000911DA11DB11DBC01CD0142E0660F771F89
:10256000881F991F4A95D1F708958F929F92AF9235
:10257000BF92CF92DF92EF92FF926B017C010E949B
:1025800090124B015C01C114D104E104F104F1F09B
:102590000E949012DC01CB0188199909AA09BB0994
:1025A000883E9340A105B10570F321E0C21AD1081D
:1025B000E108F10888EE880E83E0981EA11CB11C8A
:1025C000C114D104E104F10419F7DDCFFF90EF90BD
:1025D000DF90CF90BF90AF909F908F9008951F9203
:1025E0000F920FB60F9211242F933F938F939F93C7
:1025F000AF93BF938091A5019091A601A091A701EF
:10260000B091A8013091C70123E0230F2D3720F4AA
:102610000196A11DB11D05C026E8230F0296A11D3C
:10262000B11D2093C7018093A5019093A601A093AB
:10263000A701B093A8018091C8019091C901A09110
:10264000CA01B091CB010196A11DB11D8093C801B3
:102650009093C901A093CA01B093CB01BF91AF91F0
:102660009F918F913F912F910F900FBE0F901F90D0
:1026700018951F920F920FB60F9211242F933F932C
:102680004F935F936F937F938F939F93AF93BF937A
:10269000EF93FF938091C3019091C401A091C50174
:1026A000B091C601892B8A2B8B2B81F18091C201BD
:1026B00081110BC098B180E4892788B98091C1014C
:1026C000882319F088B1805888B98091C30190910E
:1026D000C401A091C501B091C601181619061A06C9
:1026E0001B06B4F48091C3019091C401A091C5016F
:1026F000B091C6010197A109B1098093C3019093DC
:10270000C401A093C501B093C60102C00E941D0F71
:10271000FF91EF91BF91AF919F918F917F916F91B9
:102720005F914F913F912F910F900FBE0F901F908F
:1027300018959C01E1E7F0E090819D7F90831092D5
:10274000C001E0EDF5E0F093BF01E093BE01F0932E
:10275000BC01E093BB01318320837383628380E0FB
:1027600090E8958384830C941D0FCF92DF92EF92B3
:102770000F93CF93DF934115510569F1FA0104914D
:102780003196E4904E5F5F4F2223F9F0C02FD0E0E6
:10279000AE2DA695A695A695EA2FF0E0A1E0B0E0B3
:1027A0003E2D377011F4A0E0B0E0AE0FBF1FCA9FFE
:1027B0006001CB9FD00CDA9FD00C11242C9DF0012E
:1027C0002D9DF00D11244E0F5F1F2AEFC22E20E029
:1027D00030E00E94CB0FDF91CF910F91EF90DF900F
:1027E000CF900895CF92DF92EF920F93CF93DF9324
:1027F0004115510569F1FA0104913196E4904E5F5B
:102800005F4F2223F9F0C02FD0E0AE2DA695A695FC
:10281000A695EA2FF0E0A1E0B0E03E2D377011F46C
:10282000A0E0B0E0AE0FBF1FCA9F6001CB9FD00CED
:10283000DA9FD00C11242C9DF0012D9DF00D112458
:102840004E0F5F1F2BEFC22E20E030E00E94CB0F17
:10285000DF91CF910F91EF90DF90CF9008952D9A57
:102860000895BC0180E090E00C94B5128FB12CB1BA
:1028700093B130E02095309520743327A90123E0EF
:10288000559547952A95E1F7292F30E02095309509
:10289000207133273595279535952795242B8095DD
:1028A000807F822B089583B7817F83BF83B7816048
:1028B00083BF889583B78E7F83BF08958EBD000048
:1028C0000DB407FEFDCF0895FC018091CF01811169
:1028D00003C08FEF9FEF08959FB7F89482E0809335
:1028E000E9002091F20030E01216130614F421E002
:1028F00030E02115310559F0289884E68093CE0107
:102900008091F10080838091F200882319F09FBFAD
:10291000C90108958BE68093E800F9CFCF93DF9348
:102920001F92CDB7DEB76983DC01ED91FC91028087
:10293000F381E02D41E050E0BE016F5F7F4F0995CC
:102940000F90DF91CF91089583E08093E90080910B
:10295000F200882319F08AE38093E8000895CF936A
:10296000DF931F92CDB7DEB7FC018485958597FD77
:1029700005C02FEF3FEF358724870BC0CE010196AE
:102980000E946414019719F4898190E002C08FEFCE
:102990009FEF0F90DF91CF9108950F931F93CF93E7
:1029A000DF931F92CDB7DEB78C01FC01848595853E
:1029B00097FF0EC0CE0101960E946414019719F48E
:1029C000298130E002C02FEF3FEFF80135872487DF
:1029D000F801848595850F90DF91CF911F910F911C
:1029E00008958F929F92AF92BF92CF92DF92EF9213
:1029F000FF920F931F93CF93DF935C016B018A01CA
:102A000080912501882309F45EC08091CF0188233D
:102A100009F459C08091CD0180FF05C08091E0008C
:102A200082608093E000E8018AEFF82E93E0E92EBF
:102A30002FE3822E3AE3932E209709F43DC08FB7FF
:102A4000F894E092E9009091E80095FF06C090911B
:102A5000F200282D291B922F01C090E08FBF911109
:102A60000AC0FA94FF2079F161E070E080E090E024
:102A70000E94B512E1CF292F30E0C217D3070CF422
:102A80009C2F8FB7F894E092E9002091E80025FF91
:102A900011C0292F30E0C21BD30BF601915020F05A
:102AA00041914093F100FACFC20ED31E9091E800FD
:102AB00095FF13C08FBFC0CF5D9884E68093CC0193
:102AC0001016110644F081E090E0F50193838283B3
:102AD00080E090E005C0C80103C09092E800EACF12
:102AE000DF91CF911F910F91FF90EF90DF90CF90EA
:102AF000BF90AF909F908F90089520910F0628234C
:102B000029F490910E06982381E009F480E008955D
:102B100020E080ED91E0B22FB111BFEFFC01002465
:102B2000B193B193B193B1930394D1F708952F92D8
:102B30003F924F925F926F927F928F929F92AF924D
:102B4000BF92CF92DF92EF92FF920F931F93CF939A
:102B5000DF93CDB7DEB728970FB6F894DEBF0FBE70
:102B6000CDBF5A01822E912C9C01280D391D37FDB5
:102B7000C4C0803891050CF0C0C09B01200F311DEE
:102B800037FDBBC0603471050CF0B7C0AB0177FFF7
:102B900004C044275527461B570B477055279B01F8
:102BA00077FF02C0295F3F4FE3E035952795EA950F
:102BB000E1F777FF08C02150310968E070E0DB01E0
:102BC000A41BB50BAD01602F66956695669570E008
:102BD000077011F06F5F7F4FDB01A20FB31FBA8345
:102BE000A98339017694762C662477946794680ECD
:102BF000791EE12CF12C00E010E02301B0E84B0E2F
:102C0000511C68E070E0DB01A41BB50BBC83AB83F7
:102C100069817A812617370709F46FC0283031059A
:102C200009F46BC02F3FBFEF3B070CF45BC0B20150
:102C3000600F711FDB01A053BE4FBE83AD83D8016F
:102C4000A60DB71DA053BE4F6C0160E070E0681583
:102C500079050CF047C0E0E8CE16D10409F442C073
:102C6000D7FC34C02F3FFFEF3F0709F442C0FB0100
:102C7000EE0DFF1DEA0DFB1DE491042E01C0EE0FC9
:102C80000A94EAF73C90E329EC9341155105F1F0E1
:102C900027303105D9F0FB01EE0DFF1DEA0DFB1DBC
:102CA000E4912E2E312CF1010B8002C0F595E795B1
:102CB0000A94E2F7F887EF83ED81FE813080EF819F
:102CC000F885E3291F01ED81FE8120826F5F7F4F30
:102CD000ED81FE813196FE83ED83FFEFCF1ADF0A8F
:102CE0001196B5CF2F5F3F4F00581F4FE80CF91CCE
:102CF0008FCF4115510579F6E9CF28960FB6F89494
:102D0000DEBF0FBECDBFDF91CF911F910F91FF901E
:102D1000EF90DF90CF90BF90AF909F908F907F907B
:102D20006F905F904F903F902F900895009769F0BB
:102D3000FC0101900020E9F73197AF01481B590BC6
:102D4000BC0185E096E00C94D80E80E090E00895F8
:102D50008F929F92AF92BF920F931F93CF93DF9367
:102D6000CDB7DEB7A1970FB6F894DEBF0FBECDBFCB
:102D700019A2423008F44AE08E010F5D1F4F842EE5
:102D8000912CA12CB12CA50194010E945426E62F70
:102D9000B901CA0101501109EA3014F4E05D01C023
:102DA000E95CD801EC93232B242B252B61F7C80178
:102DB0000E949616A1960FB6F894DEBF0FBECDBF47
:102DC000DF91CF911F910F91BF90AF909F908F9007
:102DD0000895CF92DF92EF92FF920F931F93CF93BC
:102DE00000E515E0C7EB5C988C2F0E945E1480E034
:102DF0000E945E1480E10E945E145C9A680180E883
:102E0000C80ED11C7801F70181917F010E945E14E8
:102E1000EC14FD04C1F7C15000581109CF3A19F75D
:102E2000CF911F910F91FF90EF90DF90CF90089579
:102E30008091270681110DC082E08093230684E0F3
:102E400080932406109226061092250681E0809336
:102E5000270683E296E00895FC018485958597FD19
:102E60000BC09FB7F89482E08093E9008091F20054
:102E70009FBF90E0019608959FB7F89482E08093F9
:102E8000E9008091F2009FBF90E008954091840690
:102E90005091850620918206309183064217530790
:102EA000B4F49091E8009570E1F39091E80092FD00
:102EB00019C08093F1008091840690918506019657
:102EC0008F739927892B19F48EEF8093E8008091F6
:102ED00084069091850601969093850680938406DA
:102EE00081E0089580E00895DF92EF92FF920F93C2
:102EF0001F93CF93DF93D82E8A017B01E40EF51E3A
:102F0000EB01CE15DF0571F0D7FE03C0FE01849101
:102F100001C088810E94461721968111F2CF8FEF60
:102F20009FEF01C0C801DF91CF911F910F91FF90DA
:102F3000EF90DF900895615030F02091F100FC0196
:102F400020830196F8CF289884E68093CE010895D7
:102F50000F931F93CF93DF931F92CDB7DEB782E01D
:102F6000898342E450E061ED7CE180E80E947417BF
:102F70000E941817DC0112960D911C9113970115F0
:102F8000110569F0D801ED91FC910280F381E02DEB
:102F9000BE016F5F7F4FC801099597FF07C0898108
:102FA0000F90DF91CF911F910F910895F801008547
:102FB0001185E5CF1F920F920FB60F9211248F93B8
:102FC0009F938091E1009091E100937F9093E100C5
:102FD00083FF0FC01092E90091E09093EB001092F4
:102FE000EC0092E39093ED001092CF0198E0909363
:102FF000F00082FF20C093E09093E9009091F200EE
:10300000992319F09AE39093E8009091CC019923C9
:1030100039F09091CC0191509093CC01992389F192
:103020009091CE01992339F09091CE0191509093D7
:10303000CE01992341F184FF10C08091E2008E7E81
:1030400081608093E2008091E1008F7E8093E100B7
:103050008091CD018E7E806111C080FF16C080916D
:10306000E2008E7E80618093E2008091E1008E7E9E
:103070008093E1008091CD018E7E81608093CD01AF
:1030800004C05D9ACDCF289AD6CF9F918F910F9093
:103090000FBE0F901F9018951F920F920FB60F92B0
:1030A0001124CF92DF92EF92FF920F931F932F93F1
:1030B0003F934F935F936F937F938F939F93AF93C0
:1030C000BF93EF93FF93CF93DF93CDB7DEB76C97AA
:1030D000DEBFCDBF1092E9008091E80083FFFAC106
:1030E00068E0CE0145960E949B1782EF8093E8002E
:1030F0008D8987FF05C09091E80090FFFCCF03C049
:103100009EEF9093E800982F907609F0C6C09E89B4
:103110002F89188D91110CC0803829F48091800678
:103120008093F10002C01092F1001092F10047C1AB
:10313000422F50E0512B913051F4811140C1413068
:10314000510509F03CC1809180068D7F0BC0933002
:1031500061F4811134C14130510509F030C18091D1
:1031600080068260809380062AC1953041F4809168
:10317000E80080FFFCCF20682093E30020C1963058
:1031800009F05FC0EB8CFC8C1092E9001092850670
:1031900010928406123091F51092830610928206E6
:1031A0000E94A81799E0BE016F5F7F4FDB01E92FF6
:1031B0001D92EA95E9F799831A8391E09E8390EA3C
:1031C00098879AEF99872091840630918506275F2A
:1031D0003F4F3C832B838D831092E900109285062C
:1031E00010928406F0928306E092820649E050E055
:1031F00080E00E9474170E94A817E1C0F092830635
:10320000E09282060E941817DC011296ED90FC9065
:103210001397E114F10409F4C0C0D701ED91FC91BA
:103220000480F581E02DBE016B5E7F4FC7010995DB
:10323000009719F00CF0C3C0C6C0F701E084F18418
:10324000E8CF973009F4BFC0983021F481E0809333
:10325000F100B5C0993009F0B2C0837009F0B3C075
:10326000E5E5F1E081E021E036E39081992361F02A
:103270008093E9002093EB0091919093EC003093C0
:10328000ED008F5F873089F78EE78093EA00109218
:10329000EA008F898093CF0192C08B8D9C8D109214
:1032A000E90010928506109284069093830680931D
:1032B0008206898D811156C08E899D89913A59F473
:1032C000813209F080C047E050E06EE171E080E0BB
:1032D0000E94741774C0913209F075C0833289F46A
:1032E000888D90E0982F88272F89822BA0E0B0E06E
:1032F0008093260190932701A0932801B093290180
:103300005EC0803269F48091E80082FFFCCF67E004
:103310008EE191E00E949B178BEF8093E80006C03E
:10332000823209F04CC08F898093250180917F06FD
:10333000882319F0EEEFFAE002C0E0E0F8E08091B7
:103340001E0190911F01A0912001B0912101803BAD
:103350009440A105B10509F088C08091250180FF46
:10336000A0C083C00E941817DC0112960D911C9119
:1033700013970115110539F1D801ED91FC910190D8
:10338000F081E02DBE016B5E7F4FC8010995811170
:1033900016C0F80100851185ECCF1130C1F0133053
:1033A00091F48F89882309F455C08230E9F440E80C
:1033B00060E183E29DE10E941D24882321F08EEFCD
:1033C0008093E80087C081E28093EB0083C08B8DFF
:1033D0009C8D089711F410938106809181068111CC
:1033E00036C064E37DE138C0813029F440E86BE009
:1033F00087E19DE1E0CF833031F70E941817DC01AF
:103400001296ED90FC9013978E010F5F1F4F68018D
:10341000E114F10479F0D701ED91FC910680F78178
:10342000E02DB801C7010995080F111DF701E084CF
:10343000F184EECFD8011C92F60101900020E9F74B
:103440003197BF016C197D0940E0C601B4CF66E435
:103450007DE102C063E17DE16115710509F4B3CF3F
:10346000FB01449150E080E833CF0FB6F894A89563
:1034700080916000886180936000109260000FBEB0
:10348000A895EE3F2AE0F20739F08091FE0A90916C
:10349000FF0A9183808393CF1092FF0A1092FE0A55
:1034A0008ECFEE3F8AE0F80731F0808191819093D2
:1034B000FF0A8093FE0A87E797E7918380839BE06A
:1034C00088E10FB6F894A895809360000FBE9093A2
:1034D000600075CF6C960FB6F894DEBF0FBECDBFFF
:1034E000DF91CF91FF91EF91BF91AF919F918F911C
:1034F0007F916F915F914F913F912F911F910F910C
:10350000FF90EF90DF90CF900F900FBE0F901F9025
:103510001895CF93DF9300D000D0CDB7DEB7789465
:1035200084B5826084BD84B5816084BD85B58260C8
:1035300085BD85B5816085BD80916E008160809379
:103540006E001092810080918100826080938100E2
:1035500080918100816080938100809180008160F2
:10356000809380008091910082608093910080918F
:1035700091008160809391008091900081608093A0
:1035800090008091C10084608093C1008091C1004F
:1035900082608093C1008091C10081608093C100EE
:1035A0008091C30081608093C3008091C0008260DD
:1035B0008093C0008091C20081608093C20080919E
:1035C0007A00846080937A0080917A008260809390
:1035D0007A0080917A00816080937A0080917A00ED
:1035E000806880937A001092CF011092800610922A
:1035F000CD018091D70081608093D70080EA8093CD
:10360000D80089B5806189BD89B5826089BD09B45A
:1036100000FEFDCF61E070E080E090E00E94B51216
:103620008091D8008F7C80618093D8008091E000E9
:10363000807F8093E0008091E1008E7E8093E100A6
:103640008DE08093E200559A209AEEEFFFE7859196
:1036500094918B3F9C4D19F481E080937F0681EC1F
:1036600080937C0085B1806F85B9249884B1866E83
:1036700084B95E9A5F988AB1806D8AB9769A6E989D
:1036800081B3806F81BB899880B38D7080BB80E5EA
:103690008CBD81E08DBD85E090E00E9431145F9A81
:1036A00085E090E00E9431145E985C986AE7E62E0F
:1036B00061E0F62E1DE01E0DF70184910E945E145C
:1036C000FFEFEF1AFF0A1E11F7CF5C9A81E8809393
:1036D000640081E08093650000E014E080E00E94D7
:1036E0005E1401501109D1F70E94361487FF1FC0E4
:1036F0005C9885EA0E945E145C9A2E982F982D980B
:10370000809164008062809364000E945314FDCF16
:103710002D980E9436148478843871F00E943614F3
:103720008471843131F188EC90E00E9431140E9460
:10373000361482FDEDCF3AC00E942F1488EC90E041
:103740000E9431142F9882E090E00E94D5258F3F8F
:1037500029F06FEF82E090E00E94DD2584EF91E098
:103760000E9431142F9A0E94361484788438D9F339
:10377000D5CF0E942F1488EC90E00E9431142E982F
:1037800082E090E00E94D525882329F060E082E065
:1037900090E00E94DD2584EF91E00E9431142E9A82
:1037A0000E94361484718431D9F3BDCF0E942F1446
:1037B00082E090E00E94D525882331F03E9A3F9A1E
:1037C00081E08093A40104C01092A4013E983F9828
:1037D0002E985EEEE52EFF24FA940E94361486FFA2
:1037E00004C02E9A2F9A2D9A3FC02CEFE2162FEF8D
:1037F000F20619F42E9A2F9806C088E1E816F10413
:1038000011F42F9A2D980E94881500E128E54AECC2
:1038100050E0B70184E190E00E9497150E94E916FC
:103820008BE190E00E94311490EFE9169FEFF906CA
:1038300021F48AEF90E00E943114EFEFEE1AFE0AB5
:10384000F9E1EF16F10449F68CEB92E00E94311495
:103850000E942F14E0910906F0910A060190F08170
:10386000E02D89E096E0099582E390E00E94311412
:103870000E9436148111F8CF81E280931006809166
:1038800064008E7F8093640080917A0080648093CE
:103890007A0080917A0086FDFCCF0091780010912B
:1038A00079000E94901220E030E098011127002753
:1038B000600F711F821F931F6115710581059105AE
:1038C00011F00E94AD2480916400816080936400B7
:1038D000109222063AE0C32ED12CE12CF12C20E8E4
:1038E000222E312C2FB7F8948091A5019091A6013A
:1038F000A091A701B091A8012FBF4091150650914A
:103900001606609117067091180620911906222359
:1039100041F020911106821B80931A06109219061D
:1039200054C284179507A607B70738F4481B4230DE
:1039300008F44BC20E94531448C211E010931906B8
:103940008093110690931206A0931306B093140669
:1039500020911006820F911DA11DB11D80931506A7
:1039600090931606A0931706B093180680910C0644
:1039700090910D06019690930D0680930C06809110
:103980000E0680930F060E94361480930E060E9446
:10399000881510921E0610921D0610921C06109299
:1039A0001B0680911D01882309F444C000E420E82F
:1039B00049EC53E160E070E080E090E00E949715F0
:1039C00084E00E947D15811108C288E00E947D1567
:1039D000811103C280911B0190911C0190931C06E0
:1039E00080931B0688E390E090931E0680931D064B
:1039F00040910206509103066091FE057091FF050B
:103A000085E096E00E94D80E80911B0190911C01E8
:103A1000019790931C0180931B012091FC0530912C
:103A2000FD05821793070CF0CEC130921C01209245
:103A30001B01C9C18BE591E00E9496166091B5010A
:103A40007091B6018091B7019091B8014AE00E944F
:103A5000A81682E691E00E9496166091B1017091DD
:103A6000B2018091B3019091B4014AE00E94A8167E
:103A70008091B0018823D9F082E390E090931C06F6
:103A800080931B068CE190E090931E0680931D06A8
:103A900088E691E00E94961688E00E947D158823B2
:103AA00009F491C10E94361482FD8DC199C18091A3
:103AB000AF01811109C088E00E947D15882309F4B7
:103AC0004DC51093B0014AC584E00E947D1588233E
:103AD00041F08091E2059091E305813491050CF06D
:103AE000D7C41092080120E04FE353E162E370E095
:103AF0008091AB019091AC010E94B5138091E805D3
:103B0000882309F4C7C12091E9053091EA05809125
:103B1000E2059091E30537FD66C103979093E305B5
:103B20008093E205215031093093EA052093E9059D
:103B30008091ED05882309F4C3C16091EE05611100
:103B400019C2E091AD01F091AE01F096F093E1055C
:103B5000E093E0058091E8050091E2051091E3050E
:103B6000811161C261115FC28091ED05882309F462
:103B700022C220E04DE95AE0B801CF010E94F213C1
:103B80006091E2057091E30520E04BE959E08091F6
:103B9000E0059091E1050E94B5136091FA057091DE
:103BA000FB056F5F7F4F7093FB056093FA05809173
:103BB000AF01882309F452C28091EE05882309F4ED
:103BC00041C28091F1059091F2058C962091E0051B
:103BD0003091E105821793070CF01AC320910C066F
:103BE00030910D066091F40570E0C9010E94BD2777
:103BF000892B81F48091F30590E0019681709927DB
:103C00008093F3058091AA0190E001968170992735
:103C10008093AA01C9016AE070E00E94BD27892B48
:103C200041F48091A90190E00196817099278093D9
:103C3000A9011091A901212F49EE52E169E070E03C
:103C400081E090E00E94F213212F43E952E169E004
:103C500070E081E090E00E94B5132091EE05809124
:103C6000F1059091F205211107C32091F30545EE6E
:103C70005FE060E270E00E94F2132091F30547E3F9
:103C80005DE060E270E08091F1059091F2050E94A4
:103C9000B5131091AA018091F1059091F205212FA1
:103CA0004DEE5CE068E170E047960E94F21380916F
:103CB000F1059091F205212F43EA5CE068E170E0A4
:103CC00047960E94B5138091ED05882309F4DDC263
:103CD0008091AF01882309F432C36091150170E02F
:103CE00080910C0690910D060E94BD27892B41F40E
:103CF0008091140190E001968170992780931401BE
:103D000080911A01A0900C01B0900D01882309F454
:103D100037C310911401212F41E955E060E370E0B1
:103D2000C5010E94F213212F4FE854E060E370E0D8
:103D3000C5010E94B51380910801882309F497C337
:103D400080910B0181113EC38091AF0181110EC0A2
:103D500020910001309101018091040190910501B1
:103D6000820F931F909301018093000180910001C5
:103D700090910101803F9F4F0CF42EC3809102016E
:103D800090910301813491050CF026C38091E805E0
:103D9000882309F448C3B0900901009102011091F1
:103DA000030180900001909001012B2D41E25CE025
:103DB000B801C4010E94F2132B2D4FE95BE0B8015A
:103DC000C4010E94B5130E94E91680E090E0892B9F
:103DD00009F488CD0E94000082CD10921D01FACD19
:103DE0001092B001F0CF03969093E3058093E20523
:103DF00020911A01211137C04A97ACF12091E005BA
:103E00003091E10580910C0190910D01821793078B
:103E100054F5C2968217930734F181E080931A011A
:103E2000109218011092170183E090E09093EA0538
:103E30008093E9058091B5019091B601A091B701F9
:103E4000B091B8014996A11DB11D8093B501909321
:103E5000B601A093B701B093B80164E670E088EEB4
:103E600093E00E9499138091E4059091E5052091DB
:103E7000E2053091E305281739070CF459CE10926A
:103E8000EA051092E9059093E3058093E20510920C
:103E9000E8054ECE8091EE0581114ACE8091ED0568
:103EA000811146CE8091EB059091EC05181619060C
:103EB0000CF43ECE84E00E947D15811145C338CEBE
:103EC00083E08093E7058091EB059091EC0518164F
:103ED00019060CF43FC00E94361486FF0FC082E022
:103EE0008093E7058091AD019091AE018D329105EF
:103EF00014F401962AC08EE290E027C00E94361486
:103F00002091AD013091AE0185FF0AC084E080931D
:103F1000E705215031093093AE012093AD010DCE5C
:103F20008091E805811109CE37FF06C02F5F3F4F12
:103F30003093AE012093AD018091AD019091AE011F
:103F4000181619060CF0F9CD01979093AE018093E5
:103F5000AD01F3CD2091AD013091AE012250310978
:103F60003093AE012093AD0101979093EC058093BF
:103F7000EB05E3CD4091AD015091AE012091E205FA
:103F80003091E305213431057CF48091EF05909167
:103F9000F005280F391F3093E3052093E2050196C1
:103FA0009093F0058093EF054E5F5F4F5093AE0105
:103FB0004093AD01C6CD8091EB059091EC051816AC
:103FC00019066CF421E04DE95AE0B801CF010E94D6
:103FD000F2136091E2057091E30521E0D6CD609186
:103FE000E70570E080910C0690910D060E94BD27B8
:103FF000892B41F48091E60590E001968170992724
:104000008093E6052091E60549E958E0B801CF0123
:104010000E94F2136091E2057091E3052091E6059C
:1040200047E957E0B4CD20E045E157E0B801CF01C2
:104030000E94F2136091E2057091E30520E043E9EC
:1040400056E0A5CD8091F1059091F2058F3791054D
:1040500014F402966DC080E890E06AC08091F50586
:10406000811154C0072E000C880B990B0E94B824B4
:104070002DEC3CEC4CE45EE30E9417250E942D27BA
:1040800020E030E040EA50E40E9417254B015C013B
:1040900020E030E0A9010E94282720E030E040E045
:1040A0005FE387FD05C0C501B4010E94862604C0F8
:1040B000C501B4010E9485260E94F226645171094F
:1040C0007093F2056093F1058091F8059091F905E0
:1040D00001979093F9058093F805181619060CF4CA
:1040E00093C081E08093F5050E94A8242FE030E082
:1040F00040E050E00E94EB25DC01CB014E96A11D73
:10410000B11D9093F7058093F6057EC02091F605CA
:104110003091F705215031093093F7052093F605CA
:104120008091F1059091F2051216130634F4019670
:104130009093F2058093F10567C0232B09F464C0C6
:1041400001979093F2058093F1058D3E9F4F0CF0FF
:104150005BC00E94A82469837A838B839C836091CF
:10416000B5017091B6018091B7019091B801A70196
:1041700096010E94542682E3482E512C612C712C0A
:10418000421A530A640A750A94E6892E912CA12CCE
:10419000B12C69817A818B819C81A50194010E9457
:1041A000EB25460E571E681E791E85E04816510401
:1041B00061047104E8F00E94A8242B013C01609185
:1041C000B5017091B6018091B7019091B801A70136
:1041D00096010E94542602E310E0021B130BC30158
:1041E000B201A50194010E94EB25600F711F02C06E
:1041F00065E070E07093F9056093F8051092F5059D
:104200001092FB051092FA0584E08093F405D9CC56
:104210008091EE0581112AC08091EF059091F00503
:10422000892B21F588EF9FEF9093F0058093EF05A0
:1042300064E670E080E293E00E94991364E670E027
:1042400080E090E00E94B51264E670E084EF91E0B7
:104250000E94991364E670E080E090E00E94B5123D
:1042600064E670E088EC90E00E94991381E080930E
:10427000EE058093AF01B2CC22E045EE5FE060E254
:1042800070E00E94F21322E0FACC8091EE058111D9
:104290001FCD80911601882399F12091170130914B
:1042A000180180910C0190910D0112161306CCF0AB
:1042B00023E020931501019790930D0180930C0149
:1042C0002091120130911301281739070CF400CD09
:1042D00030930D0120930C011092160110921A01D7
:1042E000F7CC42E040931501029690930D01809324
:1042F0000C01215031093093180120931701E8CCAB
:1043000084E08093150180911901815080931901F7
:104310008111DECC81E0809316018DE290E09093D4
:104320001801809317010E94A8242CE330E040E09C
:1043300050E00E94EB25625E60931901C9CC809128
:10434000E8058111CACC80911A018111C6CC8091F7
:104350000C0190910D01C6962091E0053091E10588
:10436000821793070CF4B9CC81E08093ED0580931C
:10437000AF0160E971E088EC90E00E949913ADCC48
:104380008091ED05882381F08091EE0581110CC0AC
:1043900020E04DE054E060E370E0C5010E94F213BC
:1043A00020E04BE853E0C2CC10911401212F49E8E2
:1043B00052E060E370E0C5010E94F213212F47E84C
:1043C00051E0B4CC80910201909103010296909348
:1043D000030180930201CACC1092080130920101BE
:1043E0002092000180E390E090930301809302010A
:1043F0000E94A8242EE130E040E050E00E94EB252E
:1044000070930701609306010E94A82424E030E025
:1044100040E050E00E94EB2570930A01609309018F
:1044200010920B01B3CC20910001309101018091D9
:10443000E0059091E105AC014E5051092417350774
:104440000CF4A9CC4896821793070CF4A4CCEFE0A7
:10445000F0E0F093EC05E093EB0581E080930B0135
:1044600064E670E080E991E00E94991394CC809119
:10447000060190910701019790930701809306012F
:10448000181619060CF49FCC81E0809308019BCC90
:104490001092AF0110931D011092B5011092B60158
:1044A0001092B7011092B8018091E4059091E50552
:1044B0009093E3058093E2051092F0051092EF05CA
:1044C0001092ED051092EC051092EB051092EE059E
:1044D0001092AE011092AD011092E8051092EA051B
:1044E0001092E905809112019091130190930D01B2
:1044F00080930C018CE380931901109218011092A3
:10450000170184E690E090930701809306013092B2
:10451000010120920001E0E3F0E0F0930301E09359
:1045200002018CEE9FEF9093F2058093F1051092BB
:10453000FB051092FA05E8ECF0E0F093F905E09342
:10454000F8051092F505CDCA81E08093E80586E074
:1045500090E09093EA058093E905EACA80910C0601
:1045600090910D0687709927919581959109909367
:10457000AC018093AB018091B5019091B601A091FF
:10458000B701B091B8010196A11DB11D8093B5018D
:104590009093B601A093B701B093B8014091B101D7
:1045A0005091B2016091B3017091B401481759075D
:1045B0006A077B0708F097CA8093B1019093B20114
:1045C000A093B301B093B4018ECA0F931F93CF93FE
:1045D000DF938C0181E090E00E94D52580FF31C0FF
:1045E0008AE090E00E94D5259FEF980F9E3F48F506
:1045F00022E330E0D80157963C932E93569728E358
:1046000030E059963C932E935897CBE0D0E0D801F8
:10461000ED91FC910190F081E02D682FC801099582
:10462000CE010E94D5252196C131D10581F70E9486
:10463000E91688EE93E0DF91CF911F910F910C94D2
:104640003114DF91CF911F910F91089504970C942D
:10465000E5228091FE059091FF050C946C28109244
:1046600032061092310688EE93E0A0E0B0E080932D
:10467000330690933406A0933506B093360688E34C
:1046800091E09093300680932F068FEF9FEF9093E9
:104690003C0680933B061092080610920706109283
:1046A0000E0610920F0620E12093100690930D063F
:1046B00080930C061092150610921606109217069B
:1046C000109218061092190688E491E0909306065D
:1046D0008093050682E591E090930A06809309068F
:1046E00010921C0610921B0610921E0610921D06B8
:1046F00081E080931F06109220068093210610927D
:10470000220682EB91E19093DF058093DE0580E045
:1047100090E89093DD058093DC0546983E9A479893
:104720003F9A1092FF051092FE051092010610921A
:104730000006109203061092020665E370E080E026
:1047400090E00E9404290097A1F09093FF058093C8
:10475000FE0524E330E0309301062093000620910B
:10476000020630910306232B09F05CC0FC01108285
:1047700059C08091FE059091FF05009711F00E94AD
:104780006C281092FF051092FE05109203061092FD
:104790000206109201061092000620910206309146
:1047A00003064AEF4203C001439F900D11249093EA
:1047B000FD058093FC051092F30586E08093F405D7
:1047C0001092F5051092F7051092F60588EC90E02E
:1047D0009093F9058093F8051092FB051092FA0565
:1047E00080E290E09093E3058093E2059093E505E5
:1047F0008093E4051092E60583E08093E70510922C
:10480000E8051092EA051092E9051092EC05109265
:10481000EB051092ED051092EE051092F005109246
:10482000EF05089524E330E0309303062093020659
:104830006EE671E00E94DC29B0CFCF92DF92EF925A
:10484000FF920F931F93CF93DF931F92CDB7DEB7E5
:10485000182F062FE42E862F880F8E5F99830E94D3
:10486000461783E00E944617F12EC12E9981D92E5A
:104870008C2D8F19801798F4F601E7FE02C0849101
:1048800001C080810E944617182F80E00E944617C1
:104890008123FFEFCF1ADF0A8111EACF01C081E047
:1048A0000F90DF91CF911F910F91FF90EF90DF90CC
:1048B000CF9008958F929F92AF92BF92CF92DF9246
:1048C000EF92FF92CF93DF93EC01688179818A8127
:1048D0009B81611571058105910521F464E279EDF3
:1048E0008BE597E02DE133EF41E050E00E94EB25AE
:1048F00049015A019B01AC01A7EAB1E40E940A26D2
:104900006B017C01ACEEB4EFA50194010E94182666
:10491000DC01CB018C0D9D1DAE1DBF1DB7FF03C07B
:104920000197A109B04888839983AA83BB83BC01FE
:10493000CD019F77DF91CF91FF90EF90DF90CF90E7
:10494000BF90AF909F908F9008950E945A24089531
:104950008AE291E00E945A24089560932A0170939C
:104960002B0180932C0190932D010895E89409C0A8
:1049700097FB3EF490958095709561957F4F8F4F92
:104980009F4F9923A9F0F92F96E9BB279395F695A8
:10499000879577956795B795F111F8CFFAF4BB0F26
:1049A00011F460FF1BC06F5F7F4F8F4F9F4F16C08A
:1049B000882311F096E911C0772321F09EE8872F14
:1049C000762F05C0662371F096E8862F70E060E0D0
:1049D0002AF09A95660F771F881FDAF7880F969549
:1049E000879597F90895990F0008550FAA0BE0E8ED
:1049F000FEEF16161706E807F907C0F012161306A1
:104A0000E407F50798F0621B730B840B950B39F4E0
:104A10000A2661F0232B242B252B21F408950A2646
:104A200009F4A140A6958FEF811D811D08950E9474
:104A30002A250C949B250E948D2538F00E949425F0
:104A400020F0952311F00C9484250C948A251124D0
:104A50000C94CF250E94AC2570F3959FC1F3950F60
:104A600050E0551F629FF001729FBB27F00DB11DF2
:104A7000639FAA27F00DB11DAA1F649F6627B00D82
:104A8000A11D661F829F2227B00DA11D621F739F6B
:104A9000B00DA11D621F839FA00D611D221F749F79
:104AA0003327A00D611D231F849F600D211D822FC0
:104AB000762F6A2F11249F5750409AF0F1F08823E7
:104AC0004AF0EE0FFF1FBB1F661F771F881F915014
:104AD0005040A9F79E3F510580F00C9484250C941A
:104AE000CF255F3FE4F3983ED4F38695779567959D
:104AF000B795F795E7959F5FC1F7FE2B880F911D3E
:104B00009695879597F9089597F99F6780E870E0E3
:104B100060E008959FEF80EC089500240A94161633
:104B2000170618060906089500240A94121613069B
:104B3000140605060895092E0394000C11F4882329
:104B400052F0BB0F40F4BF2B11F460FF04C06F5F45
:104B50007F4F8F4F9F4F089557FD9058440F551F1B
:104B600059F05F3F71F04795880F97FB991F61F0EF
:104B70009F3F79F087950895121613061406551F66
:104B8000F2CF4695F1DF08C0161617061806991FD2
:104B9000F1CF86957105610508940895E894BB27C7
:104BA00066277727CB0197F90895F999FECF92BD33
:104BB00081BDF89A992780B50895262FF999FECFDF
:104BC0001FBA92BD81BD20BD0FB6F894FA9AF99A2A
:104BD0000FBE01960895052E97FB1EF400940E94C7
:104BE000022657FD07D00E94542607FC03D04EF43E
:104BF0000C94022650954095309521953F4F4F4F8C
:104C00005F4F089590958095709561957F4F8F4F78
:104C10009F4F08950E947626A59F900DB49F900DFA
:104C2000A49F800D911D11240895B7FF0C940A26AE
:104C30000E940A26821B930B08952F923F924F9257
:104C40005F926F927F928F929F92AF92BF92CF921C
:104C5000DF92EF92FF920F931F93CF93DF93CDB725
:104C6000DEB7CA1BDB0B0FB6F894DEBF0FBECDBF9D
:104C700009942A88398848885F846E847D848C846E
:104C80009B84AA84B984C884DF80EE80FD800C8177
:104C90001B81AA81B981CE0FD11D0FB6F894DEBF5A
:104CA0000FBECDBFED010895A1E21A2EAA1BBB1BBA
:104CB000FD010DC0AA1FBB1FEE1FFF1FA217B307E8
:104CC000E407F50720F0A21BB30BE40BF50B661FFE
:104CD000771F881F991F1A9469F7609570958095C2
:104CE00090959B01AC01BD01CF010895A29FB00139
:104CF000B39FC001A39F700D811D1124911DB29F10
:104D0000700D811D1124911D08955058BB27AA27AD
:104D10000E949D260C949B250E948D2538F00E94B0
:104D2000942520F039F49F3F19F426F40C948A2539
:104D30000EF4E095E7FB0C948425E92F0E94AC2546
:104D400058F3BA17620773078407950720F079F4C0
:104D5000A6F50C94CE250EF4E0950B2EBA2FA02DBF
:104D60000B01B90190010C01CA01A0011124FF2718
:104D7000591B99F0593F50F4503E68F11A16F04013
:104D8000A22F232F342F4427585FF3CF4695379512
:104D90002795A795F0405395C9F77EF41F16BA0BD7
:104DA000620B730B840BBAF09150A1F0FF0FBB1F85
:104DB000661F771F881FC2F70EC0BA0F621F731FCE
:104DC000841F48F4879577956795B795F7959E3F2B
:104DD00008F0B0CF9395880F08F09927EE0F9795BC
:104DE000879508950E94F9266894B1110C94CF25F7
:104DF00008950E94B42588F09F5798F0B92F9927FD
:104E0000B751B0F0E1F0660F771F881F991F1AF0B5
:104E1000BA95C9F714C0B13091F00E94CE25B1E027
:104E200008950C94CE25672F782F8827B85F39F026
:104E3000B93FCCF3869577956795B395D9F73EF44E
:104E400090958095709561957F4F8F4F9F4F0895F6
:104E50000E94F32408F48FEF08959F930E94372750
:104E60000F9007FCEE5F0C9460270C948A250E943B
:104E7000B425D8F3E894E0E0BB279F57F0F02AED83
:104E80003FE049EC06C0EE0FBB0F661F771F881F7F
:104E900028F0B23A62077307840728F0B25A620B0F
:104EA000730B840BE3959A9572F7803830F49A95DA
:104EB000BB0F661F771F881FD2F790480C94762788
:104EC000EF93E0FF07C0A2EA2AED3FE049EC5FEB79
:104ED0000E949D260E949B250F90039401FC9058F0
:104EE000ECEAF0E00C9482279F3F31F0915020F4DF
:104EF000879577956795B795880F911D96958795B6
:104F000097F908959F938F937F936F93FF93EF93F8
:104F10009B01AC010E941725EF91FF910E949627FB
:104F20002F913F914F915F910C941725DF93CF9371
:104F30001F930F93FF92EF92DF927B018C01689495
:104F400006C0DA2EEF010E942A25FE01E894A59101
:104F50002591359145915591A6F3EF010E949D262B
:104F6000FE019701A801DA9469F7DF90EF90FF90B6
:104F70000F911F91CF91DF910895AA1BBB1B51E1A7
:104F800007C0AA1FBB1FA617B70710F0A61BB70BB9
:104F9000881F991F5A95A9F780959095BC01CD015E
:104FA0000895EE0FFF1F0590F491E02D0994CF9323
:104FB000DF938230910510F482E090E0E091880662
:104FC000F091890620E030E0C0E0D0E0309711F1A8
:104FD0004081518148175907C0F04817590761F4BB
:104FE00082819381209719F09B838A832BC09093B1
:104FF00089068093880626C02115310519F04217CD
:10500000530718F49A01BE01DF01EF010280F3811A
:10501000E02DDCCF2115310509F1281B390B243097
:10502000310590F412968D919C911397611571053D
:1050300021F0FB019383828304C0909389068093BF
:105040008806FD01329644C0FD01E20FF31F8193F3
:105050009193225031092D933C933AC020918606BA
:1050600030918706232B41F420913001309131019A
:10507000309387062093860620912E0130912F01D0
:105080002115310541F42DB73EB7409132015091C1
:105090003301241B350BE0918606F0918706E21759
:1050A000F307A0F42E1B3F0B2817390778F0AC014B
:1050B0004E5F5F4F2417350748F04E0F5F1F509328
:1050C0008706409386068193919302C0E0E0F0E06A
:1050D000CF01DF91CF9108950F931F93CF93DF936B
:1050E000009709F48CC0FC01329713821282009160
:1050F0008806109189060115110581F420813181FE
:10510000820F931F20918606309187062817390752
:1051100079F5F0938706E093860671C0D80140E0E8
:1051200050E0AE17BF0750F412962D913C911397A3
:10513000AD012115310509F1D901F3CF9D01DA0146
:105140003383228360817181860F971F82179307B3
:1051500069F4EC0128813981260F371F2E5F3F4FFC
:10516000318320838A819B8193838283452B29F419
:10517000F0938906E093880642C01396FC93EE9361
:105180001297ED01499159919E01240F351FE217A5
:10519000F30771F480819181840F951F0296119617
:1051A0009C938E938281938113969C938E931297F6
:1051B000E0E0F0E0D80112968D919C911397009752
:1051C00019F0F8018C01F6CF8D919C9198012E5F1A
:1051D0003F4F820F931F2091860630918706281734
:1051E000390769F4309729F41092890610928806DD
:1051F00002C0138212821093870600938606DF9105
:10520000CF911F910F910895A0E0B0E0EAE0F9E29C
:105210000C942126EC01009721F4CB010E94D727A2
:10522000B8C0FC01E60FF71F9C0122503109E217BC
:10523000F30708F4ACC0D9010D911C911197061722
:105240001707B0F00530110508F49FC0C801049796
:105250008617970708F499C002501109061B170B0F
:10526000019311936D937C93CF010E946C288DC0A4
:105270005B01A01AB10A4C01800E911EA091880614
:10528000B091890640E050E0E12CF12C109709F430
:105290004AC0A815B905D1F56D907C9011976301AE
:1052A00082E0C80ED11CCA14DB0480F1A3014A19A4
:1052B0005B096A0182E0C80ED11C1296BC9012975D
:1052C0001396AC91B5E0CB16D10440F0B282A38323
:1052D00051834083D9016D937C930AC00E5F1F4FA9
:1052E000C301800F911FF90191838083EB2DFA2F69
:1052F000E114F10431F0D7011396FC93EE93129769
:1053000044C0F0938906E09388063FC08D919C913C
:1053100011974817590708F4AC017D0112960D90BA
:10532000BC91A02DB3CF80918606909187068815F9
:105330009905E1F446175707C8F480912E01909122
:105340002F01009741F48DB79EB7409132015091E3
:105350003301841B950BE817F907C8F4F09387060F
:10536000E0938606F901718360830FC0CB010E9430
:10537000D7277C01009759F0A801BE010E94D329CC
:10538000CE010E946C28C70104C0CE0102C080E09B
:1053900090E0CDB7DEB7EEE00C943D2681E090E0E2
:1053A000F8940C94E329FB01DC0102C001900D92FA
:1053B00041505040D8F70895FB01DC0101900D9257
:1053C0000020E1F708951EE0CDEADEE004C0FE0112
:1053D0000E94D1272196CE3AD107C9F7F894FFCF82
:1053E00080003000FDFF640000000000DCFF2000B2
:1053F0002000DCFF00040000003C0080000100E110
:10540000000000000000FFFFFFFF0100000000009F
:105410008A068000000000008E14F1142C17AF14CF
:10542000CD14A41400000000B511D80EE522FCFF35
:105430000000262300C1808100000053434F5245E5
:105440003A0020544F503A005041555345004761AF
:105450006D65206279204665726E616E646F204AC8
:105460006572657A20666F72207468652041726487
:1054700075626F79204A616D2E204D61792032303E
:0454800031370000C0
:00000001FF
